{"abi":[{"type":"function","name":"MIN_PROOF_LENGTH","inputs":[],"outputs":[{"name":"","type":"uint256","internalType":"uint256"}],"stateMutability":"view"},{"type":"function","name":"verifyProof","inputs":[{"name":"commitment","type":"bytes32","internalType":"bytes32"},{"name":"proof","type":"bytes","internalType":"bytes"}],"outputs":[{"name":"valid","type":"bool","internalType":"bool"}],"stateMutability":"nonpayable"},{"type":"function","name":"verifyProofView","inputs":[{"name":"commitment","type":"bytes32","internalType":"bytes32"},{"name":"proof","type":"bytes","internalType":"bytes"}],"outputs":[{"name":"valid","type":"bool","internalType":"bool"}],"stateMutability":"pure"},{"type":"event","name":"ProofVerified","inputs":[{"name":"commitment","type":"bytes32","indexed":true,"internalType":"bytes32"},{"name":"result","type":"bool","indexed":false,"internalType":"bool"}],"anonymous":false},{"type":"error","name":"EmptyCommitment","inputs":[]},{"type":"error","name":"ProofTooShort","inputs":[]}],"bytecode":{"object":"0x60808060405234601557610278908161001a8239f35b5f80fdfe6080806040526004361015610012575f80fd5b5f3560e01c9081630fb03ab6146101305750806348203b07146100645763f221f3851461003d575f80fd5b3461006057602061005661005036610148565b916101de565b6040519015158152f35b5f80fd5b346100605761007236610148565b919081156101215760208310610112575f925f5b81811080610108575b156100fc576001600160f81b03196100a88284866101be565b35166100bc576100b79061019c565b610086565b505050602091506001905b7ff8ea4b84d199e84ff35249e26840ceba1b2a1711d50a01b47e981737011721808360405193151593848152a2604051908152f35b505050906020916100c7565b506020811061008f565b631d9c855b60e21b5f5260045ffd5b635560fe6360e11b5f5260045ffd5b34610060575f36600319011261006057806020809252f35b6040600319820112610060576004359160243567ffffffffffffffff811161006057826023820112156100605780600401359267ffffffffffffffff84116100605760248483010111610060576024019190565b5f1981146101aa5760010190565b634e487b7160e01b5f52601160045260245ffd5b908210156101ca570190565b634e487b7160e01b5f52603260045260245ffd5b1561023c576020821061023c575f5b82811080610232575b1561022b576001600160f81b031961020f8285856101be565b35166102235761021e9061019c565b6101ed565b505050600190565b5050505f90565b50602081106101f6565b50505f9056fea2646970667358221220d7838f2e95cb1ac8fbb64e79585808760da8fc973844c04da51783ecacc9cca164736f6c634300081c0033","linkReferences":{}},"methodIdentifiers":{"MIN_PROOF_LENGTH()":"0fb03ab6","verifyProof(bytes32,bytes)":"48203b07","verifyProofView(bytes32,bytes)":"f221f385"},"id":101}