{"abi":[{"type":"constructor","inputs":[{"name":"_target","type":"address","internalType":"contract RampOSAccount"}],"stateMutability":"nonpayable"},{"type":"fallback","stateMutability":"payable"},{"type":"receive","stateMutability":"payable"},{"type":"function","name":"attackCount","inputs":[],"outputs":[{"name":"","type":"uint256","internalType":"uint256"}],"stateMutability":"view"},{"type":"function","name":"maxAttacks","inputs":[],"outputs":[{"name":"","type":"uint256","internalType":"uint256"}],"stateMutability":"view"},{"type":"function","name":"success","inputs":[],"outputs":[{"name":"","type":"bool","internalType":"bool"}],"stateMutability":"view"},{"type":"function","name":"target","inputs":[],"outputs":[{"name":"","type":"address","internalType":"contract RampOSAccount"}],"stateMutability":"view"}],"bytecode":{"object":"0x608034607457601f61062c38819003918201601f19168301916001600160401b03831184841017607857808492602094604052833981010312607457516001600160a01b0381169081900360745760016002555f80546001600160a01b03191691909117905560405161059f908161008d8239f35b5f80fd5b634e487b7160e01b5f52604160045260245ffdfe608080604052600436101561043e575b50361561024657600154600254811061002457005b5f1981146102325760010160015560408051906100418183610526565b60018252601f19810160208301813682373061005c85610548565b5282519061006a8483610526565b600182526020820191833684375f61008182610548565b5284519361008f8686610526565b600185525f5b81811061022157505084516100a9816104f6565b5f81526100b585610548565b526100bf84610548565b505f546001600160a01b031694853b1561021d57516323f0ed1560e11b815260606004820152955160648701819052869493926084860192915f5b8181106101fb5750505060209060031986840301602487015251918281520191905f5b8181106101e257505050600319838203016044840152815180825260208201916020808360051b8301019401925f915b83831061019a57505050505091815f81819503925af1908161018a575b5061017b5760ff1960035416600355005b600160ff196003541617600355005b5f61019491610526565b5f61016a565b91939550919360208080600193601f19868203018752818a518051918291828552018484015e5f838284010152601f801991011601019701930193019092879594929361014d565b825184528795506020938401939092019160010161011d565b82516001600160a01b03168552899750602094850194909201916001016100fa565b5f80fd5b806060602080938901015201610095565b634e487b7160e01b5f52601160045260245ffd5b600154600254811061025457005b5f1981146102325760010160015560408051906102718183610526565b60018252601f19810160208301813682373061028c85610548565b5282519061029a8483610526565b600182526020820191833684375f6102b182610548565b528451936102bf8686610526565b600185525f5b81811061042d57505084516102d9816104f6565b5f81526102e585610548565b526102ef84610548565b505f546001600160a01b031694853b1561021d57516323f0ed1560e11b815260606004820152955160648701819052869493926084860192915f5b81811061040b5750505060209060031986840301602487015251918281520191905f5b8181106103f257505050600319838203016044840152815180825260208201916020808360051b8301019401925f915b8383106103aa57505050505091815f81819503925af1908161018a575061017b5760ff1960035416600355005b91939550919360208080600193601f19868203018752818a518051918291828552018484015e5f838284010152601f801991011601019701930193019092879594929361037d565b825184528795506020938401939092019160010161034d565b82516001600160a01b031685528997506020948501949092019160010161032a565b8060606020809389010152016102c5565b5f3560e01c9081630b93381b146104d757508063407c2821146104ba578063a37573d61461049d5763d4b8399214610476575f61000f565b3461021d575f36600319011261021d575f546040516001600160a01b039091168152602090f35b3461021d575f36600319011261021d576020600254604051908152f35b3461021d575f36600319011261021d576020600154604051908152f35b3461021d575f36600319011261021d5760209060ff6003541615158152f35b6020810190811067ffffffffffffffff82111761051257604052565b634e487b7160e01b5f52604160045260245ffd5b90601f8019910116810190811067ffffffffffffffff82111761051257604052565b8051156105555760200190565b634e487b7160e01b5f52603260045260245ffdfea2646970667358221220dfe111cd682b5049ec21d3cb1ec2f085a04cefea6aa994961f4a93b51315ef1864736f6c634300081c0033","linkReferences":{}},"methodIdentifiers":{"attackCount()":"407c2821","maxAttacks()":"a37573d6","success()":"0b93381b","target()":"d4b83992"},"id":110}