{"abi":[{"type":"constructor","inputs":[{"name":"_entryPoint","type":"address","internalType":"contract IEntryPoint"},{"name":"_signer","type":"address","internalType":"address"}],"stateMutability":"nonpayable"},{"type":"function","name":"ENTRY_POINT","inputs":[],"outputs":[{"name":"","type":"address","internalType":"contract IEntryPoint"}],"stateMutability":"view"},{"type":"function","name":"WITHDRAW_DELAY","inputs":[],"outputs":[{"name":"","type":"uint256","internalType":"uint256"}],"stateMutability":"view"},{"type":"function","name":"cancelWithdraw","inputs":[],"outputs":[],"stateMutability":"nonpayable"},{"type":"function","name":"deposit","inputs":[],"outputs":[],"stateMutability":"payable"},{"type":"function","name":"executeWithdraw","inputs":[],"outputs":[],"stateMutability":"nonpayable"},{"type":"function","name":"getDeposit","inputs":[],"outputs":[{"name":"","type":"uint256","internalType":"uint256"}],"stateMutability":"view"},{"type":"function","name":"getPendingWithdraw","inputs":[],"outputs":[{"name":"to","type":"address","internalType":"address"},{"name":"amount","type":"uint256","internalType":"uint256"},{"name":"requestTime","type":"uint256","internalType":"uint256"},{"name":"executeAfter","type":"uint256","internalType":"uint256"}],"stateMutability":"view"},{"type":"function","name":"getWithdrawTimeRemaining","inputs":[],"outputs":[{"name":"timeRemaining","type":"uint256","internalType":"uint256"}],"stateMutability":"view"},{"type":"function","name":"isWithdrawReady","inputs":[],"outputs":[{"name":"ready","type":"bool","internalType":"bool"}],"stateMutability":"view"},{"type":"function","name":"maxOpsPerUserPerDay","inputs":[],"outputs":[{"name":"","type":"uint256","internalType":"uint256"}],"stateMutability":"view"},{"type":"function","name":"owner","inputs":[],"outputs":[{"name":"","type":"address","internalType":"address"}],"stateMutability":"view"},{"type":"function","name":"pendingWithdrawAmount","inputs":[],"outputs":[{"name":"","type":"uint256","internalType":"uint256"}],"stateMutability":"view"},{"type":"function","name":"pendingWithdrawTo","inputs":[],"outputs":[{"name":"","type":"address","internalType":"address"}],"stateMutability":"view"},{"type":"function","name":"postOp","inputs":[{"name":"mode","type":"uint8","internalType":"enum IPaymaster.PostOpMode"},{"name":"context","type":"bytes","internalType":"bytes"},{"name":"actualGasCost","type":"uint256","internalType":"uint256"},{"name":"","type":"uint256","internalType":"uint256"}],"outputs":[],"stateMutability":"nonpayable"},{"type":"function","name":"renounceOwnership","inputs":[],"outputs":[],"stateMutability":"nonpayable"},{"type":"function","name":"requestWithdraw","inputs":[{"name":"to","type":"address","internalType":"address payable"},{"name":"amount","type":"uint256","internalType":"uint256"}],"outputs":[],"stateMutability":"nonpayable"},{"type":"function","name":"setMaxOpsPerUser","inputs":[{"name":"maxOps","type":"uint256","internalType":"uint256"}],"outputs":[],"stateMutability":"nonpayable"},{"type":"function","name":"setSigner","inputs":[{"name":"_signer","type":"address","internalType":"address"}],"outputs":[],"stateMutability":"nonpayable"},{"type":"function","name":"setTenantLimit","inputs":[{"name":"tenantId","type":"bytes32","internalType":"bytes32"},{"name":"limit","type":"uint256","internalType":"uint256"}],"outputs":[],"stateMutability":"nonpayable"},{"type":"function","name":"tenantDailyLimit","inputs":[{"name":"","type":"bytes32","internalType":"bytes32"}],"outputs":[{"name":"","type":"uint256","internalType":"uint256"}],"stateMutability":"view"},{"type":"function","name":"tenantDailySpent","inputs":[{"name":"","type":"bytes32","internalType":"bytes32"}],"outputs":[{"name":"","type":"uint256","internalType":"uint256"}],"stateMutability":"view"},{"type":"function","name":"tenantLastResetDay","inputs":[{"name":"","type":"bytes32","internalType":"bytes32"}],"outputs":[{"name":"","type":"uint256","internalType":"uint256"}],"stateMutability":"view"},{"type":"function","name":"transferOwnership","inputs":[{"name":"newOwner","type":"address","internalType":"address"}],"outputs":[],"stateMutability":"nonpayable"},{"type":"function","name":"userDailyOps","inputs":[{"name":"","type":"address","internalType":"address"}],"outputs":[{"name":"","type":"uint256","internalType":"uint256"}],"stateMutability":"view"},{"type":"function","name":"userLastResetDay","inputs":[{"name":"","type":"address","internalType":"address"}],"outputs":[{"name":"","type":"uint256","internalType":"uint256"}],"stateMutability":"view"},{"type":"function","name":"validatePaymasterUserOp","inputs":[{"name":"userOp","type":"tuple","internalType":"struct PackedUserOperation","components":[{"name":"sender","type":"address","internalType":"address"},{"name":"nonce","type":"uint256","internalType":"uint256"},{"name":"initCode","type":"bytes","internalType":"bytes"},{"name":"callData","type":"bytes","internalType":"bytes"},{"name":"accountGasLimits","type":"bytes32","internalType":"bytes32"},{"name":"preVerificationGas","type":"uint256","internalType":"uint256"},{"name":"gasFees","type":"bytes32","internalType":"bytes32"},{"name":"paymasterAndData","type":"bytes","internalType":"bytes"},{"name":"signature","type":"bytes","internalType":"bytes"}]},{"name":"userOpHash","type":"bytes32","internalType":"bytes32"},{"name":"maxCost","type":"uint256","internalType":"uint256"}],"outputs":[{"name":"context","type":"bytes","internalType":"bytes"},{"name":"validationData","type":"uint256","internalType":"uint256"}],"stateMutability":"nonpayable"},{"type":"function","name":"verifyingSigner","inputs":[],"outputs":[{"name":"","type":"address","internalType":"address"}],"stateMutability":"view"},{"type":"function","name":"withdrawRequestTime","inputs":[],"outputs":[{"name":"","type":"uint256","internalType":"uint256"}],"stateMutability":"view"},{"type":"function","name":"withdrawTo","inputs":[{"name":"","type":"address","internalType":"address payable"},{"name":"","type":"uint256","internalType":"uint256"}],"outputs":[],"stateMutability":"view"},{"type":"event","name":"OwnershipTransferred","inputs":[{"name":"previousOwner","type":"address","indexed":true,"internalType":"address"},{"name":"newOwner","type":"address","indexed":true,"internalType":"address"}],"anonymous":false},{"type":"event","name":"SignerUpdated","inputs":[{"name":"oldSigner","type":"address","indexed":true,"internalType":"address"},{"name":"newSigner","type":"address","indexed":true,"internalType":"address"}],"anonymous":false},{"type":"event","name":"Sponsored","inputs":[{"name":"sender","type":"address","indexed":true,"internalType":"address"},{"name":"tenantId","type":"bytes32","indexed":true,"internalType":"bytes32"},{"name":"gasCost","type":"uint256","indexed":false,"internalType":"uint256"}],"anonymous":false},{"type":"event","name":"TenantLimitSet","inputs":[{"name":"tenantId","type":"bytes32","indexed":true,"internalType":"bytes32"},{"name":"limit","type":"uint256","indexed":false,"internalType":"uint256"}],"anonymous":false},{"type":"event","name":"WithdrawCancelled","inputs":[{"name":"to","type":"address","indexed":true,"internalType":"address"},{"name":"amount","type":"uint256","indexed":false,"internalType":"uint256"}],"anonymous":false},{"type":"event","name":"WithdrawExecuted","inputs":[{"name":"to","type":"address","indexed":true,"internalType":"address"},{"name":"amount","type":"uint256","indexed":false,"internalType":"uint256"}],"anonymous":false},{"type":"event","name":"WithdrawRequested","inputs":[{"name":"to","type":"address","indexed":true,"internalType":"address"},{"name":"amount","type":"uint256","indexed":false,"internalType":"uint256"},{"name":"executeAfter","type":"uint256","indexed":false,"internalType":"uint256"}],"anonymous":false},{"type":"error","name":"ECDSAInvalidSignature","inputs":[]},{"type":"error","name":"ECDSAInvalidSignatureLength","inputs":[{"name":"length","type":"uint256","internalType":"uint256"}]},{"type":"error","name":"ECDSAInvalidSignatureS","inputs":[{"name":"s","type":"bytes32","internalType":"bytes32"}]},{"type":"error","name":"InvalidSignature","inputs":[]},{"type":"error","name":"NoWithdrawPending","inputs":[]},{"type":"error","name":"OwnableInvalidOwner","inputs":[{"name":"owner","type":"address","internalType":"address"}]},{"type":"error","name":"OwnableUnauthorizedAccount","inputs":[{"name":"account","type":"address","internalType":"address"}]},{"type":"error","name":"PaymasterDepositTooLow","inputs":[]},{"type":"error","name":"TenantLimitExceeded","inputs":[]},{"type":"error","name":"UserRateLimitExceeded","inputs":[]},{"type":"error","name":"WithdrawAlreadyPending","inputs":[]},{"type":"error","name":"WithdrawExpired","inputs":[]},{"type":"error","name":"WithdrawNotReady","inputs":[]}],"bytecode":{"object":"0x60a03461011b57601f61136e38819003918201601f19168301916001600160401b0383118484101761011f57808492604094855283398101031261011b578051906001600160a01b038216820361011b57602001516001600160a01b0381169081900361011b573315610108575f8054336001600160a01b0319821681178355604051949290916001600160a01b0316907f8be0079c531659141344cd1fd0a4f28419497f9722a3daafe3b4186f6b6457e09080a36064600755608052600180546001600160a01b03191691909117905561123a908161013482396080518181816101fb0152818161041f015281816104e701528181610571015281816108d10152610f1d0152f35b631e4fbdf760e01b5f525f60045260245ffd5b5f80fd5b634e487b7160e01b5f52604160045260245ffdfe6080806040526004361015610012575f80fd5b5f905f3560e01c9081630d5e5fff14610e4e575080631ebf369214610e24578063205c287814610daf57806323d9ac9b14610d8757806327b2f33214610d6a5780632eb3670a14610d405780633718c01d14610d16578063397a1b2814610c725780634582248f14610c5557806352b7512c146108905780636464f3651461082f5780636b33a787146107f35780636c19e783146107835780636d8d0d5e14610766578063715018a61461070f5780637c627b21146106a457806384b768241461061f5780638da5cb5b146105f857806393205524146105a057806394430fa51461055c578063c399ec88146104bc578063cb02388d14610498578063d0e30db014610411578063d8ba0753146103e8578063e0181434146103c5578063e3e8049f14610388578063f2fde38b146102fe578063f8fd9795146101825763fd8f222f1461015d575f80fd5b3461017f57602036600319011261017f576101766110c2565b60043560075580f35b80fd5b503461017f578060031936011261017f5761019b6110c2565b60085480156102ef57600954620151808101908181116102db578142106102cc57620a8c00018091116102b85742116102a957600a805460088490556001600160a01b0319811690915560098390556001600160a01b03908116919083907f000000000000000000000000000000000000000000000000000000000000000016803b156102a55781809160446040518094819363040b850f60e31b83528960048401528860248401525af1801561029a57610281575b505060207f7b2a72f0889ae9bb89e8ee7ec3e7c465552d1b76d51df9b0426d0e4e7f39528f91604051908152a280f35b8161028b91610ecb565b61029657825f610251565b8280fd5b6040513d84823e3d90fd5b5080fd5b6306a94d0d60e41b8252600482fd5b634e487b7160e01b83526011600452602483fd5b63174f812760e31b8452600484fd5b634e487b7160e01b84526011600452602484fd5b630810b41160e31b8252600482fd5b503461017f57602036600319011261017f576004356001600160a01b038116908190036102a55761032d6110c2565b80156103745781546001600160a01b03198116821783556001600160a01b03167f8be0079c531659141344cd1fd0a4f28419497f9722a3daafe3b4186f6b6457e08380a380f35b631e4fbdf760e01b82526004829052602482fd5b503461017f57602036600319011261017f576004356001600160a01b038116908190036102a5578160409160209352600683522054604051908152f35b503461017f578060031936011261017f5760206103e061108f565b604051908152f35b503461017f578060031936011261017f57600a546040516001600160a01b039091168152602090f35b505f366003190112610494577f00000000000000000000000000000000000000000000000000000000000000006001600160a01b0316803b15610494575f6024916040519283809263b760faf960e01b825230600483015234905af180156104895761047b575080f35b61048791505f90610ecb565b005b6040513d5f823e3d90fd5b5f80fd5b34610494575f3660031901126104945760206104b2611050565b6040519015158152f35b34610494575f366003190112610494576040516370a0823160e01b81523060048201526020816024817f00000000000000000000000000000000000000000000000000000000000000006001600160a01b03165afa8015610489575f90610529575b602090604051908152f35b506020813d602011610554575b8161054360209383610ecb565b81010312610494576020905161051e565b3d9150610536565b34610494575f366003190112610494576040517f00000000000000000000000000000000000000000000000000000000000000006001600160a01b03168152602090f35b34610494576040366003190112610494576004357fd9c51bb631a106c2dca96fda2e8aa5cee59fbaf6857246ec2790acf30b97338a60206024356105e26110c2565b835f52600382528060405f2055604051908152a2005b34610494575f366003190112610494575f546040516001600160a01b039091168152602090f35b34610494575f366003190112610494576106376110c2565b6008548015610695577f6cf22392efcef3d14b6c4d51fdcdc5c24f8bacbdecf5dcefa057cffdbce53f726020600a545f6008556bffffffffffffffffffffffff60a01b8116600a555f60095560405193845260018060a01b031692a2005b630810b41160e31b5f5260045ffd5b346104945760803660031901126104945760043560038110156104945760243567ffffffffffffffff8111610494573660238201121561049457806004013567ffffffffffffffff811161049457366024828401011161049457610487926024604435930190610f0e565b34610494575f366003190112610494576107276110c2565b5f80546001600160a01b0319811682556001600160a01b03167f8be0079c531659141344cd1fd0a4f28419497f9722a3daafe3b4186f6b6457e08280a3005b34610494575f366003190112610494576020600754604051908152f35b34610494576020366003190112610494576004356001600160a01b03811690819003610494576107b16110c2565b600154816001600160a01b0382167f2d025324f0a785e8c12d0a0d91a9caa49df4ef20ff87e0df7213a1d4f3157beb5f80a36001600160a01b03191617600155005b34610494576020366003190112610494576004356001600160a01b03811690819003610494575f526005602052602060405f2054604051908152f35b34610494575f36600319011261049457600a5460085460095490916001600160a01b0316906201518081019081811161087c57608093604051938452602084015260408301526060820152f35b634e487b7160e01b5f52601160045260245ffd5b346104945760603660031901126104945760043567ffffffffffffffff8111610494578060040181360361012060031982011261049457604435926108ff337f00000000000000000000000000000000000000000000000000000000000000006001600160a01b031614610e8c565b60e48101359160221901821215610494570191600483013567ffffffffffffffff81116104945780360360248501136104945780601411610494576013190190606d8210610c1057816020116104945760388401359180602611610494576058850135946001600160d01b03198616602c831061049457605e8201356001600160d01b03191692606d1161049457604051602081019160243583528660408301526060820152836066820152604c81526109ba606c82610ecb565b5190207f19457468657265756d205369676e6564204d6573736167653a0a3332000000005f52601c52603c5f20906040516080810181811067ffffffffffffffff821117610bfc57604052604181523660a583011161049457610a399260416064610a30940160208401375f60618301526110e8565b90929192611122565b6001546001600160a01b03908116911603610bed57620151804204835f5260046020528060405f205410610bcc575b835f52600360205260405f20548015159081610bad575b50610b9e57835f52600260205260405f20610a9b848254610e7f565b90556001600160a01b03610aae86610eed565b1690815f5260066020528060405f205410610b7d575b50805f52600560205260405f20546007541115610b6e575f52600560205260405f20938454905f19821461087c576060956001610b0393019055610eed565b9160405193602085019360018060a01b03168452604085015284840152838352610b2e608084610ecb565b604051948593604085525180938160408701528686015e5f84840186015260301c65ffffffffffff60a01b16176020830152601f01601f19168101030190f35b635494859760e11b5f5260045ffd5b815f5260056020525f6040812055815f52600660205260405f205586610ac4565b6309b699a360e01b5f5260045ffd5b9050845f526002602052610bc58460405f2054610e7f565b1187610a7f565b835f5260026020525f6040812055835f5260046020528060405f2055610a68565b638baa579f60e01b5f5260045ffd5b634e487b7160e01b5f52604160045260245ffd5b60405162461bcd60e51b815260206004820152601d60248201527f496e76616c6964207061796d61737465722064617461206c656e6774680000006044820152606490fd5b34610494575f366003190112610494576020600954604051908152f35b3461049457604036600319011261049457610c8b610e69565b60243590610c976110c2565b600854610d07578160085560018060a01b031690816bffffffffffffffffffffffff60a01b600a541617600a554260095562015180420180421161087c577fd72eb5d043f24a0168ae744d5c44f9596fd673a26bf74d9646bff4b844882d149160409182519182526020820152a2005b63304fd68560e01b5f5260045ffd5b34610494576020366003190112610494576004355f526004602052602060405f2054604051908152f35b34610494576020366003190112610494576004355f526002602052602060405f2054604051908152f35b34610494575f366003190112610494576020600854604051908152f35b34610494575f366003190112610494576001546040516001600160a01b039091168152602090f35b3461049457604036600319011261049457610dc8610e69565b50610dd16110c2565b60405162461bcd60e51b815260206004820152602560248201527f55736520726571756573745769746864726177202b2065786563757465576974604482015264686472617760d81b6064820152608490fd5b34610494576020366003190112610494576004355f526003602052602060405f2054604051908152f35b34610494575f36600319011261049457806201518060209252f35b600435906001600160a01b038216820361049457565b9190820180921161087c57565b15610e9357565b60405162461bcd60e51b815260206004820152601060248201526f13db9b1e48195b9d1c9e481c1bda5b9d60821b6044820152606490fd5b90601f8019910116810190811067ffffffffffffffff821117610bfc57604052565b356001600160a01b03811681036104945790565b9190820391821161087c57565b909290916060908490610f4b337f00000000000000000000000000000000000000000000000000000000000000006001600160a01b031614610e8c565b810103126104945782356001600160a01b0381169290839003610494576040602085013594013592600382101561103c576002859214611006577fbc5768d3c17f8fab367fa06e6c7576e98a47e0e8024c6b7ebb0650244ed94b896020604051858152a3808211610fbb57505050565b610fc491610f01565b90805f5260026020528160405f205410155f14610ff5575f526002602052610ff160405f20918254610f01565b9055565b90505f5260026020525f6040812055565b7fbc5768d3c17f8fab367fa06e6c7576e98a47e0e8024c6b7ebb0650244ed94b896020604051858152a3808211610fbb57505050565b634e487b7160e01b5f52602160045260245ffd5b6008541561108b576009546201518081019081811161087c57620a8c00019081811161087c574210159081611083575090565b905042111590565b5f90565b6008541561108b5760095462015180810180911161087c57804210156110bd576110ba904290610f01565b90565b505f90565b5f546001600160a01b031633036110d557565b63118cdaa760e01b5f523360045260245ffd5b8151919060418303611118576111119250602082015190606060408401519301515f1a90611182565b9192909190565b50505f9160029190565b600481101561103c5780611134575050565b6001810361114b5763f645eedf60e01b5f5260045ffd5b60028103611166575063fce698f760e01b5f5260045260245ffd5b6003146111705750565b6335e2f38360e21b5f5260045260245ffd5b91907f7fffffffffffffffffffffffffffffff5d576e7357a4501ddfe92f46681b20a084116111f9579160209360809260ff5f9560405194855216868401526040830152606082015282805260015afa15610489575f516001600160a01b038116156111ef57905f905f90565b505f906001905f90565b5050505f916003919056fea2646970667358221220bce35f9c0f55080df6dfe904491c53df9447ff2c3fee30db1c87ad7a8260c39e64736f6c634300081c0033","linkReferences":{}},"methodIdentifiers":{"ENTRY_POINT()":"94430fa5","WITHDRAW_DELAY()":"0d5e5fff","cancelWithdraw()":"84b76824","deposit()":"d0e30db0","executeWithdraw()":"f8fd9795","getDeposit()":"c399ec88","getPendingWithdraw()":"6464f365","getWithdrawTimeRemaining()":"e0181434","isWithdrawReady()":"cb02388d","maxOpsPerUserPerDay()":"6d8d0d5e","owner()":"8da5cb5b","pendingWithdrawAmount()":"27b2f332","pendingWithdrawTo()":"d8ba0753","postOp(uint8,bytes,uint256,uint256)":"7c627b21","renounceOwnership()":"715018a6","requestWithdraw(address,uint256)":"397a1b28","setMaxOpsPerUser(uint256)":"fd8f222f","setSigner(address)":"6c19e783","setTenantLimit(bytes32,uint256)":"93205524","tenantDailyLimit(bytes32)":"1ebf3692","tenantDailySpent(bytes32)":"2eb3670a","tenantLastResetDay(bytes32)":"3718c01d","transferOwnership(address)":"f2fde38b","userDailyOps(address)":"6b33a787","userLastResetDay(address)":"e3e8049f","validatePaymasterUserOp((address,uint256,bytes,bytes,bytes32,uint256,bytes32,bytes,bytes),bytes32,uint256)":"52b7512c","verifyingSigner()":"23d9ac9b","withdrawRequestTime()":"4582248f","withdrawTo(address,uint256)":"205c2878"},"id":57}