{"abi":[{"type":"constructor","inputs":[{"name":"_entryPoint","type":"address","internalType":"contract IEntryPoint"},{"name":"_signer","type":"address","internalType":"address"}],"stateMutability":"nonpayable"},{"type":"function","name":"ENTRY_POINT","inputs":[],"outputs":[{"name":"","type":"address","internalType":"contract IEntryPoint"}],"stateMutability":"view"},{"type":"function","name":"WITHDRAW_DELAY","inputs":[],"outputs":[{"name":"","type":"uint256","internalType":"uint256"}],"stateMutability":"view"},{"type":"function","name":"cancelWithdraw","inputs":[],"outputs":[],"stateMutability":"nonpayable"},{"type":"function","name":"deposit","inputs":[],"outputs":[],"stateMutability":"payable"},{"type":"function","name":"executeWithdraw","inputs":[],"outputs":[],"stateMutability":"nonpayable"},{"type":"function","name":"getDeposit","inputs":[],"outputs":[{"name":"","type":"uint256","internalType":"uint256"}],"stateMutability":"view"},{"type":"function","name":"getPendingWithdraw","inputs":[],"outputs":[{"name":"to","type":"address","internalType":"address"},{"name":"amount","type":"uint256","internalType":"uint256"},{"name":"requestTime","type":"uint256","internalType":"uint256"},{"name":"executeAfter","type":"uint256","internalType":"uint256"}],"stateMutability":"view"},{"type":"function","name":"getWithdrawTimeRemaining","inputs":[],"outputs":[{"name":"timeRemaining","type":"uint256","internalType":"uint256"}],"stateMutability":"view"},{"type":"function","name":"isWithdrawReady","inputs":[],"outputs":[{"name":"ready","type":"bool","internalType":"bool"}],"stateMutability":"view"},{"type":"function","name":"maxOpsPerUserPerDay","inputs":[],"outputs":[{"name":"","type":"uint256","internalType":"uint256"}],"stateMutability":"view"},{"type":"function","name":"owner","inputs":[],"outputs":[{"name":"","type":"address","internalType":"address"}],"stateMutability":"view"},{"type":"function","name":"pendingWithdrawAmount","inputs":[],"outputs":[{"name":"","type":"uint256","internalType":"uint256"}],"stateMutability":"view"},{"type":"function","name":"pendingWithdrawTo","inputs":[],"outputs":[{"name":"","type":"address","internalType":"address"}],"stateMutability":"view"},{"type":"function","name":"postOp","inputs":[{"name":"mode","type":"uint8","internalType":"enum IPaymaster.PostOpMode"},{"name":"context","type":"bytes","internalType":"bytes"},{"name":"actualGasCost","type":"uint256","internalType":"uint256"},{"name":"","type":"uint256","internalType":"uint256"}],"outputs":[],"stateMutability":"nonpayable"},{"type":"function","name":"renounceOwnership","inputs":[],"outputs":[],"stateMutability":"nonpayable"},{"type":"function","name":"requestWithdraw","inputs":[{"name":"to","type":"address","internalType":"address payable"},{"name":"amount","type":"uint256","internalType":"uint256"}],"outputs":[],"stateMutability":"nonpayable"},{"type":"function","name":"senderNonces","inputs":[{"name":"","type":"address","internalType":"address"}],"outputs":[{"name":"","type":"uint256","internalType":"uint256"}],"stateMutability":"view"},{"type":"function","name":"setMaxOpsPerUser","inputs":[{"name":"maxOps","type":"uint256","internalType":"uint256"}],"outputs":[],"stateMutability":"nonpayable"},{"type":"function","name":"setSigner","inputs":[{"name":"_signer","type":"address","internalType":"address"}],"outputs":[],"stateMutability":"nonpayable"},{"type":"function","name":"setTenantLimit","inputs":[{"name":"tenantId","type":"bytes32","internalType":"bytes32"},{"name":"limit","type":"uint256","internalType":"uint256"}],"outputs":[],"stateMutability":"nonpayable"},{"type":"function","name":"tenantDailyLimit","inputs":[{"name":"","type":"bytes32","internalType":"bytes32"}],"outputs":[{"name":"","type":"uint256","internalType":"uint256"}],"stateMutability":"view"},{"type":"function","name":"tenantDailySpent","inputs":[{"name":"","type":"bytes32","internalType":"bytes32"}],"outputs":[{"name":"","type":"uint256","internalType":"uint256"}],"stateMutability":"view"},{"type":"function","name":"tenantLastResetDay","inputs":[{"name":"","type":"bytes32","internalType":"bytes32"}],"outputs":[{"name":"","type":"uint256","internalType":"uint256"}],"stateMutability":"view"},{"type":"function","name":"transferOwnership","inputs":[{"name":"newOwner","type":"address","internalType":"address"}],"outputs":[],"stateMutability":"nonpayable"},{"type":"function","name":"userDailyOps","inputs":[{"name":"","type":"address","internalType":"address"}],"outputs":[{"name":"","type":"uint256","internalType":"uint256"}],"stateMutability":"view"},{"type":"function","name":"userLastResetDay","inputs":[{"name":"","type":"address","internalType":"address"}],"outputs":[{"name":"","type":"uint256","internalType":"uint256"}],"stateMutability":"view"},{"type":"function","name":"validatePaymasterUserOp","inputs":[{"name":"userOp","type":"tuple","internalType":"struct PackedUserOperation","components":[{"name":"sender","type":"address","internalType":"address"},{"name":"nonce","type":"uint256","internalType":"uint256"},{"name":"initCode","type":"bytes","internalType":"bytes"},{"name":"callData","type":"bytes","internalType":"bytes"},{"name":"accountGasLimits","type":"bytes32","internalType":"bytes32"},{"name":"preVerificationGas","type":"uint256","internalType":"uint256"},{"name":"gasFees","type":"bytes32","internalType":"bytes32"},{"name":"paymasterAndData","type":"bytes","internalType":"bytes"},{"name":"signature","type":"bytes","internalType":"bytes"}]},{"name":"userOpHash","type":"bytes32","internalType":"bytes32"},{"name":"maxCost","type":"uint256","internalType":"uint256"}],"outputs":[{"name":"context","type":"bytes","internalType":"bytes"},{"name":"validationData","type":"uint256","internalType":"uint256"}],"stateMutability":"nonpayable"},{"type":"function","name":"verifyingSigner","inputs":[],"outputs":[{"name":"","type":"address","internalType":"address"}],"stateMutability":"view"},{"type":"function","name":"withdrawRequestTime","inputs":[],"outputs":[{"name":"","type":"uint256","internalType":"uint256"}],"stateMutability":"view"},{"type":"function","name":"withdrawTo","inputs":[{"name":"","type":"address","internalType":"address payable"},{"name":"","type":"uint256","internalType":"uint256"}],"outputs":[],"stateMutability":"view"},{"type":"event","name":"AccountingAnomaly","inputs":[{"name":"tenantId","type":"bytes32","indexed":true,"internalType":"bytes32"},{"name":"refund","type":"uint256","indexed":false,"internalType":"uint256"},{"name":"currentSpent","type":"uint256","indexed":false,"internalType":"uint256"}],"anonymous":false},{"type":"event","name":"OwnershipTransferred","inputs":[{"name":"previousOwner","type":"address","indexed":true,"internalType":"address"},{"name":"newOwner","type":"address","indexed":true,"internalType":"address"}],"anonymous":false},{"type":"event","name":"SignerUpdated","inputs":[{"name":"oldSigner","type":"address","indexed":true,"internalType":"address"},{"name":"newSigner","type":"address","indexed":true,"internalType":"address"}],"anonymous":false},{"type":"event","name":"Sponsored","inputs":[{"name":"sender","type":"address","indexed":true,"internalType":"address"},{"name":"tenantId","type":"bytes32","indexed":true,"internalType":"bytes32"},{"name":"gasCost","type":"uint256","indexed":false,"internalType":"uint256"}],"anonymous":false},{"type":"event","name":"TenantLimitSet","inputs":[{"name":"tenantId","type":"bytes32","indexed":true,"internalType":"bytes32"},{"name":"limit","type":"uint256","indexed":false,"internalType":"uint256"}],"anonymous":false},{"type":"event","name":"WithdrawCancelled","inputs":[{"name":"to","type":"address","indexed":true,"internalType":"address"},{"name":"amount","type":"uint256","indexed":false,"internalType":"uint256"}],"anonymous":false},{"type":"event","name":"WithdrawExecuted","inputs":[{"name":"to","type":"address","indexed":true,"internalType":"address"},{"name":"amount","type":"uint256","indexed":false,"internalType":"uint256"}],"anonymous":false},{"type":"event","name":"WithdrawRequested","inputs":[{"name":"to","type":"address","indexed":true,"internalType":"address"},{"name":"amount","type":"uint256","indexed":false,"internalType":"uint256"},{"name":"executeAfter","type":"uint256","indexed":false,"internalType":"uint256"}],"anonymous":false},{"type":"error","name":"ECDSAInvalidSignature","inputs":[]},{"type":"error","name":"ECDSAInvalidSignatureLength","inputs":[{"name":"length","type":"uint256","internalType":"uint256"}]},{"type":"error","name":"ECDSAInvalidSignatureS","inputs":[{"name":"s","type":"bytes32","internalType":"bytes32"}]},{"type":"error","name":"InvalidNonce","inputs":[]},{"type":"error","name":"InvalidSignature","inputs":[]},{"type":"error","name":"NoWithdrawPending","inputs":[]},{"type":"error","name":"OwnableInvalidOwner","inputs":[{"name":"owner","type":"address","internalType":"address"}]},{"type":"error","name":"OwnableUnauthorizedAccount","inputs":[{"name":"account","type":"address","internalType":"address"}]},{"type":"error","name":"PaymasterDepositTooLow","inputs":[]},{"type":"error","name":"TenantLimitExceeded","inputs":[]},{"type":"error","name":"UserRateLimitExceeded","inputs":[]},{"type":"error","name":"WithdrawAlreadyPending","inputs":[]},{"type":"error","name":"WithdrawExpired","inputs":[]},{"type":"error","name":"WithdrawNotReady","inputs":[]}],"bytecode":{"object":"0x60a0346101a457601f61153338819003918201601f19168301916001600160401b038311848410176101a85780849260409485528339810103126101a45780516001600160a01b038116918282036101a457602001516001600160a01b03811692908390036101a4573315610191575f8054336001600160a01b0319821681178355604051939290916001600160a01b0316907f8be0079c531659141344cd1fd0a4f28419497f9722a3daafe3b4186f6b6457e09080a360646007551561014f5750811561011957608052600180546001600160a01b03191691909117905560405161137690816101bd82396080518181816102060152818161042a015281816104f20152818161057c01528181610918015261101f0152f35b60405162461bcd60e51b815260206004820152600e60248201526d24b73b30b634b21039b4b3b732b960911b6044820152606490fd5b62461bcd60e51b815260206004820152601360248201527f496e76616c696420656e74727920706f696e74000000000000000000000000006044820152606490fd5b631e4fbdf760e01b5f525f60045260245ffd5b5f80fd5b634e487b7160e01b5f52604160045260245ffdfe6080806040526004361015610012575f80fd5b5f905f3560e01c9081630d5e5fff14610f50575080631ebf369214610f26578063205c287814610eb157806323d9ac9b14610e8957806327b2f33214610e6c578063295710ff14610e305780632eb3670a14610e065780633718c01d14610ddc578063397a1b2814610d385780634582248f14610d1b57806352b7512c146108d75780636464f365146108765780636b33a7871461083a5780636c19e7831461078e5780636d8d0d5e14610771578063715018a61461071a5780637c627b21146106af57806384b768241461062a5780638da5cb5b1461060357806393205524146105ab57806394430fa514610567578063c399ec88146104c7578063cb02388d146104a3578063d0e30db01461041c578063d8ba0753146103f3578063e0181434146103d0578063e3e8049f14610393578063f2fde38b14610309578063f8fd97951461018d5763fd8f222f14610168575f80fd5b3461018a57602036600319011261018a576101816111fe565b60043560075580f35b80fd5b503461018a578060031936011261018a576101a66111fe565b60095480156102fa57600a54620151808101908181116102e6578142106102d757620a8c00018091116102c35742116102b457600b805460098490556001600160a01b03198116909155600a8390556001600160a01b03908116919083907f000000000000000000000000000000000000000000000000000000000000000016803b156102b05781809160446040518094819363040b850f60e31b83528960048401528860248401525af180156102a55761028c575b505060207f7b2a72f0889ae9bb89e8ee7ec3e7c465552d1b76d51df9b0426d0e4e7f39528f91604051908152a280f35b8161029691610fe1565b6102a157825f61025c565b8280fd5b6040513d84823e3d90fd5b5080fd5b6306a94d0d60e41b8252600482fd5b634e487b7160e01b83526011600452602483fd5b63174f812760e31b8452600484fd5b634e487b7160e01b84526011600452602484fd5b630810b41160e31b8252600482fd5b503461018a57602036600319011261018a576004356001600160a01b038116908190036102b0576103386111fe565b801561037f5781546001600160a01b03198116821783556001600160a01b03167f8be0079c531659141344cd1fd0a4f28419497f9722a3daafe3b4186f6b6457e08380a380f35b631e4fbdf760e01b82526004829052602482fd5b503461018a57602036600319011261018a576004356001600160a01b038116908190036102b0578160409160209352600683522054604051908152f35b503461018a578060031936011261018a5760206103eb6111cb565b604051908152f35b503461018a578060031936011261018a57600b546040516001600160a01b039091168152602090f35b505f36600319011261049f577f00000000000000000000000000000000000000000000000000000000000000006001600160a01b0316803b1561049f575f6024916040519283809263b760faf960e01b825230600483015234905af1801561049457610486575080f35b61049291505f90610fe1565b005b6040513d5f823e3d90fd5b5f80fd5b3461049f575f36600319011261049f5760206104bd61118c565b6040519015158152f35b3461049f575f36600319011261049f576040516370a0823160e01b81523060048201526020816024817f00000000000000000000000000000000000000000000000000000000000000006001600160a01b03165afa8015610494575f90610534575b602090604051908152f35b506020813d60201161055f575b8161054e60209383610fe1565b8101031261049f5760209051610529565b3d9150610541565b3461049f575f36600319011261049f576040517f00000000000000000000000000000000000000000000000000000000000000006001600160a01b03168152602090f35b3461049f57604036600319011261049f576004357fd9c51bb631a106c2dca96fda2e8aa5cee59fbaf6857246ec2790acf30b97338a60206024356105ed6111fe565b835f52600382528060405f2055604051908152a2005b3461049f575f36600319011261049f575f546040516001600160a01b039091168152602090f35b3461049f575f36600319011261049f576106426111fe565b60095480156106a0577f6cf22392efcef3d14b6c4d51fdcdc5c24f8bacbdecf5dcefa057cffdbce53f726020600b545f6009556bffffffffffffffffffffffff60a01b8116600b555f600a5560405193845260018060a01b031692a2005b630810b41160e31b5f5260045ffd5b3461049f57608036600319011261049f57600435600381101561049f5760243567ffffffffffffffff811161049f573660238201121561049f57806004013567ffffffffffffffff811161049f57366024828401011161049f57610492926024604435930190611010565b3461049f575f36600319011261049f576107326111fe565b5f80546001600160a01b0319811682556001600160a01b03167f8be0079c531659141344cd1fd0a4f28419497f9722a3daafe3b4186f6b6457e08280a3005b3461049f575f36600319011261049f576020600754604051908152f35b3461049f57602036600319011261049f576004356001600160a01b0381169081900361049f576107bc6111fe565b801561080457600154816001600160a01b0382167f2d025324f0a785e8c12d0a0d91a9caa49df4ef20ff87e0df7213a1d4f3157beb5f80a36001600160a01b03191617600155005b60405162461bcd60e51b815260206004820152600e60248201526d24b73b30b634b21039b4b3b732b960911b6044820152606490fd5b3461049f57602036600319011261049f576004356001600160a01b0381169081900361049f575f526005602052602060405f2054604051908152f35b3461049f575f36600319011261049f57600b54600954600a5490916001600160a01b031690620151808101908181116108c357608093604051938452602084015260408301526060820152f35b634e487b7160e01b5f52601160045260245ffd5b3461049f57606036600319011261049f5760043567ffffffffffffffff811161049f578060040181360361012060031982011261049f5760443592610946337f00000000000000000000000000000000000000000000000000000000000000006001600160a01b031614610f8e565b60e4810135916022190182121561049f570191600483013567ffffffffffffffff811161049f57803603602485011361049f578060141161049f576013190190608d8210610cd6578160201161049f576038840135918060261161049f576058850135946001600160d01b03198616602c831061049f57605e8201356001600160d01b03191692604c811061049f57606483013590608d1161049f576001600160a01b036109f388610fcd565b165f52600860205260405f20548103610cc757600181018082116108c3576001600160a01b03610a2289610fcd565b165f52600860205260405f205560405190602082019260243584528760408401526060830152846066830152606c82015246608c8201523060601b60ac82015260a08152610a7160c082610fe1565b5190207f19457468657265756d205369676e6564204d6573736167653a0a3332000000005f52601c52603c5f20906040516080810181811067ffffffffffffffff821117610cb357604052604181523660c583011161049f57610af09260416084610ae7940160208401375f6061830152611224565b9092919261125e565b6001546001600160a01b03908116911603610ca457620151804204835f5260046020528060405f205410610c83575b835f52600360205260405f20548015159081610c64575b50610c5557835f52600260205260405f20610b52848254610f81565b90556001600160a01b03610b6586610fcd565b1690815f5260066020528060405f205410610c34575b50805f52600560205260405f20546007541115610c25575f52600560205260405f20938454905f1982146108c3576060956001610bba93019055610fcd565b9160405193602085019360018060a01b03168452604085015284840152838352610be5608084610fe1565b604051948593604085525180938160408701528686015e5f84840186015260301c65ffffffffffff60a01b16176020830152601f01601f19168101030190f35b635494859760e11b5f5260045ffd5b815f5260056020525f6040812055815f52600660205260405f205586610b7b565b6309b699a360e01b5f5260045ffd5b9050845f526002602052610c7c8460405f2054610f81565b1187610b36565b835f5260026020525f6040812055835f5260046020528060405f2055610b1f565b638baa579f60e01b5f5260045ffd5b634e487b7160e01b5f52604160045260245ffd5b633ab3447f60e11b5f5260045ffd5b60405162461bcd60e51b815260206004820152601d60248201527f496e76616c6964207061796d61737465722064617461206c656e6774680000006044820152606490fd5b3461049f575f36600319011261049f576020600a54604051908152f35b3461049f57604036600319011261049f57610d51610f6b565b60243590610d5d6111fe565b600954610dcd578160095560018060a01b031690816bffffffffffffffffffffffff60a01b600b541617600b5542600a556201518042018042116108c3577fd72eb5d043f24a0168ae744d5c44f9596fd673a26bf74d9646bff4b844882d149160409182519182526020820152a2005b63304fd68560e01b5f5260045ffd5b3461049f57602036600319011261049f576004355f526004602052602060405f2054604051908152f35b3461049f57602036600319011261049f576004355f526002602052602060405f2054604051908152f35b3461049f57602036600319011261049f576004356001600160a01b0381169081900361049f575f526008602052602060405f2054604051908152f35b3461049f575f36600319011261049f576020600954604051908152f35b3461049f575f36600319011261049f576001546040516001600160a01b039091168152602090f35b3461049f57604036600319011261049f57610eca610f6b565b50610ed36111fe565b60405162461bcd60e51b815260206004820152602560248201527f55736520726571756573745769746864726177202b2065786563757465576974604482015264686472617760d81b6064820152608490fd5b3461049f57602036600319011261049f576004355f526003602052602060405f2054604051908152f35b3461049f575f36600319011261049f57806201518060209252f35b600435906001600160a01b038216820361049f57565b919082018092116108c357565b15610f9557565b60405162461bcd60e51b815260206004820152601060248201526f13db9b1e48195b9d1c9e481c1bda5b9d60821b6044820152606490fd5b356001600160a01b038116810361049f5790565b90601f8019910116810190811067ffffffffffffffff821117610cb357604052565b919082039182116108c357565b90929091606090849061104d337f00000000000000000000000000000000000000000000000000000000000000006001600160a01b031614610f8e565b8101031261049f5782356001600160a01b038116929083900361049f5760406020850135940135926003821015611178576002859214611142577fbc5768d3c17f8fab367fa06e6c7576e98a47e0e8024c6b7ebb0650244ed94b896020604051858152a38082116110bd57505050565b6110c691611003565b90805f5260026020528160405f205410155f146110f7575f5260026020526110f360405f20918254611003565b9055565b7f809d8a17887755550d820dfe7bc66ceebb8e7269d3ca8e4c2f112edb009c0b3a60408293835f526002602052815f205482519182526020820152a25f5260026020525f6040812055565b7fbc5768d3c17f8fab367fa06e6c7576e98a47e0e8024c6b7ebb0650244ed94b896020604051858152a38082116110bd57505050565b634e487b7160e01b5f52602160045260245ffd5b600954156111c757600a54620151808101908181116108c357620a8c0001908181116108c35742101590816111bf575090565b905042111590565b5f90565b600954156111c757600a546201518081018091116108c357804210156111f9576111f6904290611003565b90565b505f90565b5f546001600160a01b0316330361121157565b63118cdaa760e01b5f523360045260245ffd5b81519190604183036112545761124d9250602082015190606060408401519301515f1a906112be565b9192909190565b50505f9160029190565b60048110156111785780611270575050565b600181036112875763f645eedf60e01b5f5260045ffd5b600281036112a2575063fce698f760e01b5f5260045260245ffd5b6003146112ac5750565b6335e2f38360e21b5f5260045260245ffd5b91907f7fffffffffffffffffffffffffffffff5d576e7357a4501ddfe92f46681b20a08411611335579160209360809260ff5f9560405194855216868401526040830152606082015282805260015afa15610494575f516001600160a01b0381161561132b57905f905f90565b505f906001905f90565b5050505f916003919056fea2646970667358221220e2eb7deb51ac1f92d11bf7b0ccd285e9d53f991b660734b16d965155e1e07b2a64736f6c634300081c0033","linkReferences":{}},"methodIdentifiers":{"ENTRY_POINT()":"94430fa5","WITHDRAW_DELAY()":"0d5e5fff","cancelWithdraw()":"84b76824","deposit()":"d0e30db0","executeWithdraw()":"f8fd9795","getDeposit()":"c399ec88","getPendingWithdraw()":"6464f365","getWithdrawTimeRemaining()":"e0181434","isWithdrawReady()":"cb02388d","maxOpsPerUserPerDay()":"6d8d0d5e","owner()":"8da5cb5b","pendingWithdrawAmount()":"27b2f332","pendingWithdrawTo()":"d8ba0753","postOp(uint8,bytes,uint256,uint256)":"7c627b21","renounceOwnership()":"715018a6","requestWithdraw(address,uint256)":"397a1b28","senderNonces(address)":"295710ff","setMaxOpsPerUser(uint256)":"fd8f222f","setSigner(address)":"6c19e783","setTenantLimit(bytes32,uint256)":"93205524","tenantDailyLimit(bytes32)":"1ebf3692","tenantDailySpent(bytes32)":"2eb3670a","tenantLastResetDay(bytes32)":"3718c01d","transferOwnership(address)":"f2fde38b","userDailyOps(address)":"6b33a787","userLastResetDay(address)":"e3e8049f","validatePaymasterUserOp((address,uint256,bytes,bytes,bytes32,uint256,bytes32,bytes,bytes),bytes32,uint256)":"52b7512c","verifyingSigner()":"23d9ac9b","withdrawRequestTime()":"4582248f","withdrawTo(address,uint256)":"205c2878"},"id":94}