{"abi":[{"type":"constructor","inputs":[{"name":"_entryPoint","type":"address","internalType":"contract IEntryPoint"}],"stateMutability":"nonpayable"},{"type":"function","name":"ACCOUNT_IMPLEMENTATION","inputs":[],"outputs":[{"name":"","type":"address","internalType":"contract RampOSAccount"}],"stateMutability":"view"},{"type":"function","name":"ENTRY_POINT","inputs":[],"outputs":[{"name":"","type":"address","internalType":"contract IEntryPoint"}],"stateMutability":"view"},{"type":"function","name":"createAccount","inputs":[{"name":"owner","type":"address","internalType":"address"},{"name":"pubKeyX","type":"uint256","internalType":"uint256"},{"name":"pubKeyY","type":"uint256","internalType":"uint256"},{"name":"salt","type":"uint256","internalType":"uint256"}],"outputs":[{"name":"account","type":"address","internalType":"contract RampOSAccount"}],"stateMutability":"nonpayable"},{"type":"function","name":"getAddress","inputs":[{"name":"pubKeyX","type":"uint256","internalType":"uint256"},{"name":"pubKeyY","type":"uint256","internalType":"uint256"},{"name":"salt","type":"uint256","internalType":"uint256"}],"outputs":[{"name":"","type":"address","internalType":"address"}],"stateMutability":"view"},{"type":"event","name":"PasskeyAccountCreated","inputs":[{"name":"account","type":"address","indexed":true,"internalType":"address"},{"name":"owner","type":"address","indexed":true,"internalType":"address"},{"name":"pubKeyX","type":"uint256","indexed":false,"internalType":"uint256"},{"name":"pubKeyY","type":"uint256","indexed":false,"internalType":"uint256"},{"name":"salt","type":"uint256","indexed":false,"internalType":"uint256"}],"anonymous":false},{"type":"error","name":"FailedDeployment","inputs":[]},{"type":"error","name":"InsufficientBalance","inputs":[{"name":"balance","type":"uint256","internalType":"uint256"},{"name":"needed","type":"uint256","internalType":"uint256"}]},{"type":"error","name":"InvalidOwner","inputs":[]},{"type":"error","name":"InvalidPublicKey","inputs":[]}],"bytecode":{"object":"0x60c0346100d757601f613c2a38819003918201601f19168301916001600160401b038311848410176100c3578084926020946040528339810103126100d757516001600160a01b038116908181036100d75760a052604051906137528083016001600160401b038111848210176100c35760209284926104d8843981520301905ff080156100b8576080526040516103fc90816100dc8239608051818181610113015281816101af015261033e015260a0518160d20152f35b6040513d5f823e3d90fd5b634e487b7160e01b5f52604160045260245ffd5b5f80fdfe6080806040526004361015610012575f80fd5b5f3560e01c908163290ab984146101015750806394430fa5146100bd578063d1ce9565146100825763e81b22ea14610048575f80fd5b3461007e57606036600319011261007e57602061006c60443560243560043561030a565b6040516001600160a01b039091168152f35b5f80fd5b3461007e57608036600319011261007e576004356001600160a01b038116810361007e5761006c602091606435906044359060243590610178565b3461007e575f36600319011261007e576040517f00000000000000000000000000000000000000000000000000000000000000006001600160a01b03168152602090f35b3461007e575f36600319011261007e577f00000000000000000000000000000000000000000000000000000000000000006001600160a01b03168152602090f35b90601f8019910116810190811067ffffffffffffffff82111761016457604052565b634e487b7160e01b5f52604160045260245ffd5b9093926001600160a01b03909116919082156102fb57841580156102f3575b6102e4576101a681838761030a565b803b6102d457507f00000000000000000000000000000000000000000000000000000000000000006e5af43d82803e903d91602b57fd5bf36101e983858961039b565b91763d602d80600a3d3981f3363d3d373d3d3d363d7300000062ffffff8260881c16175f526effffffffffffffffffffffffffffff199060781b161760205260018060a01b0390603760095ff5169182156102c5578295833b1561007e5760405163189acdbd60e31b815260048101869052925f8460248183895af19283156102ba577f96280a64677cc209adbed0e88f0f4d61c79af4f040ebb76029f25fee5b249bf8946060946102aa575b5060405192835260208301526040820152a3565b5f6102b491610142565b5f610296565b6040513d5f823e3d90fd5b63b06ebf3d60e01b5f5260045ffd5b6001600160a01b03169450505050565b63145a1fdd60e31b5f5260045ffd5b508115610197565b6349e27cff60e01b5f5260045ffd5b90610315929161039b565b6040513060388201526f5af43d82803e903d91602b57fd5bf3ff60248201526001600160a01b037f000000000000000000000000000000000000000000000000000000000000000081166014830152733d602d80600a3d3981f3363d3d373d3d3d363d73825260588201929092526037600c820120607882015260556043909101201690565b91604051916020830193845260408301526060820152606081526103c0608082610142565b5190209056fea2646970667358221220c4a6079ca3bc22a4694407527251cae0647b4ad1d817b125c4e6ee588b54233b64736f6c634300081c003360c03461018457601f61375238819003918201601f19168301916001600160401b038311848410176101885780849260209460405283398101031261018457516001600160a01b03811680820361018457306080521561013f5760a0525f5160206137325f395f51905f525460ff8160401c16610130576002600160401b03196001600160401b038216016100da575b604051613595908161019d82396080518181816108de0152610a23015260a05181818161079d0152818161134b0152818161142001528181611a9b015281816125b901526127710152f35b6001600160401b0319166001600160401b039081175f5160206137325f395f51905f52556040519081527fc7f505b2f371ae2175ee4913f4499e1f2633a7b5936321eed1cdaeb6115181d290602090a15f61008f565b63f92ee8a960e01b5f5260045ffd5b60405162461bcd60e51b815260206004820152601360248201527f496e76616c696420656e74727920706f696e74000000000000000000000000006044820152606490fd5b5f80fd5b634e487b7160e01b5f52604160045260245ffdfe6080604052600436101561001a575b3615610018575f80fd5b005b5f3560e01c806301ffc9a714610239578063150b7a02146102345780631626ba7e1461022f57806319822f7c1461022a5780632a2314c114610225578063348cc6bd1461022057806334fcd5be1461021b57806347e1da2a146102165780634f1ef28614610211578063529d8ade1461020c57806352d1902d1461020757806354fd4d50146102025780635c35d307146101fd5780636b4ec35d146101f85780637d34dc18146101f35780638c5ac3a5146101ee5780638d980d55146101e95780638da5cb5b146101e4578063ab31d898146101df578063ad3cb1cc146101da578063b0d691fe146101d5578063b61d27f6146101d0578063b7b8d604146101cb578063ba717d7c146101c6578063bb2f1ef2146101c1578063bc197c81146101bc578063bf9890ab146101b7578063c4d66de8146101b2578063c70dc4e6146101ad578063ca9402a0146101a8578063cfdbf254146101a3578063d087d2881461019e578063f23a6e61146101995763fd5d471c0361000e57611b64565b611b0a565b611a6a565b611a50565b611a33565b6117da565b61166f565b6115c4565b611528565b6114d8565b6114b6565b61144e565b61137a565b611336565b6112ef565b611241565b61121a565b610ff6565b610f65565b610b65565b610b06565b610ad3565b610a8c565b610a11565b6109f4565b61088b565b610630565b610568565b610485565b610447565b6103c4565b610372565b610318565b610254565b6001600160e01b031981160361025057565b5f80fd5b346102505760203660031901126102505760206004356102738161023e565b63ffffffff60e01b166301ffc9a760e01b81149081156102c9575b81156102b8575b81156102a7575b506040519015158152f35b630271189760e51b1490505f61029c565b630a85bd0160e11b81149150610295565b630b135d3f60e11b8114915061028e565b6001600160a01b0381160361025057565b9181601f84011215610250578235916001600160401b038311610250576020838186019501011161025057565b34610250576080366003190112610250576103346004356102da565b61033f6024356102da565b6064356001600160401b0381116102505761035e9036906004016102eb565b5050604051630a85bd0160e11b8152602090f35b34610250576040366003190112610250576004356024356001600160401b038111610250576020916103ab6103b19236906004016102eb565b91611b98565b6040516001600160e01b03199091168152f35b34610250576060366003190112610250576004356001600160401b0381116102505761012060031982360301126102505761042b906104136024356044359261040b6125b7565b600401612630565b908061042f575b506040519081529081906020820190565b0390f35b5f80808093335af1506104406126b7565b505f61041a565b3461025057604036600319011261025057602061047b600435610469816102da565b60243590610476826102da565b611c2f565b6040519015158152f35b34610250576040366003190112610250576024356004356104a46126e6565b80158015610530575b61050957600160601b63ffffffff60c01b03198110801590610518575b610509578060045581600555600160ff1960065416176006557fc2f215ab0a6182ec628c025fc8d00353674465f4565913df3fcab7ba1481cf725f80a3005b63543f188160e01b5f5260045ffd5b50600160601b63ffffffff60c01b03198210156104ca565b5081156104ad565b9181601f84011215610250578235916001600160401b038311610250576020808501948460051b01011161025057565b34610250576020366003190112610250576004356001600160401b03811161025057610598903690600401610538565b6105a06125b7565b5f5b8181106105ab57005b6105f16105ed6105e76105bf848688611c8b565b6105c881611cb2565b906105dc6020820135916040810190611cbf565b93905a943691610855565b91612708565b1590565b6105fd576001016105a2565b600182145f036127345761060f61271a565b604051635a15467560e01b815291829161062c9160048401611cf1565b0390fd5b34610250576060366003190112610250576004356001600160401b03811161025057610660903690600401610538565b6024356001600160401b0381116102505761067f903690600401610538565b92906044356001600160401b038111610250576106a0903690600401610538565b926106a9612744565b858514806107cb575b6106bb90611d08565b6106c86020861115611d4c565b6003546001600160a01b0316151580610799575b610742575b600380546001600160a01b03191690555f5b8581106106fc57005b8061073c6107156107106001948a87611d98565b611cb2565b610720838b89611d98565b3561073661072f858b8a611da8565b3691610855565b916129eb565b016106f3565b5f5b85811061075157506106e1565b60035460019190610793906001600160a01b0316610773610710848b88611d98565b9061077f848c8a611d98565b3561078b858b8a611da8565b9390926127e3565b01610744565b50337f00000000000000000000000000000000000000000000000000000000000000006001600160a01b0316146106dc565b508584146106b2565b634e487b7160e01b5f52604160045260245ffd5b608081019081106001600160401b0382111761080357604052565b6107d4565b90601f801991011681019081106001600160401b0382111761080357604052565b60405190610838608083610808565b565b6001600160401b03811161080357601f01601f191660200190565b9291926108618261083a565b9161086f6040519384610808565b829481845281830111610250578281602093845f960137010152565b6040366003190112610250576004356108a3816102da565b6024356001600160401b0381116102505736602382011215610250576108d3903690602481600401359101610855565b906001600160a01b037f0000000000000000000000000000000000000000000000000000000000000000163081149081156109d2575b506109c3576109166126e6565b6040516352d1902d60e01b8152916020836004816001600160a01b0386165afa5f9381610992575b5061095f57634c9c8ce360e01b5f526001600160a01b03821660045260245ffd5b905f5160206135205f395f51905f52830361097e576100189250612d58565b632a87526960e21b5f52600483905260245ffd5b6109b591945060203d6020116109bc575b6109ad8183610808565b810190612550565b925f61093e565b503d6109a3565b63703e46dd60e11b5f5260045ffd5b5f5160206135205f395f51905f52546001600160a01b0316141590505f610909565b34610250575f366003190112610250576020600454604051908152f35b34610250575f366003190112610250577f00000000000000000000000000000000000000000000000000000000000000006001600160a01b031630036109c35760206040515f5160206135205f395f51905f528152f35b805180835260209291819084018484015e5f828201840152601f01601f1916010190565b34610250575f3660031901126102505761042b604051610aad604082610808565b60058152640312e302e360dc1b6020820152604051918291602083526020830190610a68565b34610250575f36600319011261025057606060045460055460ff6006541690604051928352602083015215156040820152f35b3461025057602036600319011261025057602061047b600435610b28816102da565b611e05565b6024359065ffffffffffff8216820361025057565b6044359065ffffffffffff8216820361025057565b908160809103126102505790565b3461025057608036600319011261025057600435610b82816102da565b610b8a610b2d565b610b92610b42565b906064356001600160401b0381116102505790610bb484923690600401610b57565b92610bbd6126e6565b6001600160a01b03831691610c5d90610bd7841515611eb2565b610bfd65ffffffffffff8416610bf665ffffffffffff84168211611ef4565b4210611f36565b610c0686612a43565b610c2e610c11610829565b6001600160a01b0388168152925b65ffffffffffff166020840152565b65ffffffffffff8416604083015260608201526001600160a01b0385165f908152600160205260409020611f82565b6001600160a01b03929092165f9081526002602090815260408083206001909252909120909290610c8e9084611fcf565b600483019360028401925f5b8454811015610cf75780610cf1610ce7610cce610cb96001958a61202d565b905460039190911b1c6001600160a01b031690565b6001600160a01b03165f90815260208b90526040902090565b805460ff19169055565b01610c9a565b5090929193610d058361206c565b5f5b610d11858061208d565b9050811015610d675780610d3d610d37610710600194610d318a8061208d565b90611d98565b866120c2565b610d61610d54610cce61071084610d318b8061208d565b805460ff19166001179055565b01610d07565b509083855f93600381019260058201955b8454811015610dc15780610dbb610ce7610da4610d976001958a612103565b90549060031b1c60e01b90565b8a9063ffffffff60e01b165f5260205260405f2090565b01610d78565b50859385939293610dd182612124565b60208301935f5b610de2868661208d565b9050811015610e415780610e0d610e07610e02600194610d318b8b61208d565b61214b565b86612155565b610e3b610d54610e24610e0284610d318c8c61208d565b8b9063ffffffff60e01b165f5260205260405f2090565b01610dd8565b5060408401356006870155606084013560078701555f60088701557fdf7893125b618293614687811f7475856f46429380555502fba0af70c12f404390610ea8908760096201518042045b91015560405165ffffffffffff90911681529081906020820190565b0390a2005b90602080835192838152019201905f5b818110610eca5750505090565b82516001600160e01b031916845260209384019390920191600101610ebd565b6020815260a08101825190608060208401528151809152602060c084019201905f5b818110610f46575050506060610f346080926020860151601f19868303016040870152610ead565b93604081015182850152015191015290565b82516001600160a01b0316845260209384019390920191600101610f0c565b346102505760203660031901126102505761042b600435610f85816102da565b60405190610f92826107e8565b6060825260076020830160608152604084015f815260608501935f855260018060a01b03165f52600260205260405f2091610fcf6002840161218e565b8652610fdd600384016121df565b9052600682015490520154905260405191829182610eea565b3461025057608036600319011261025057600435611013816102da565b61101b610b2d565b90611024610b42565b906110d5606435936110346126e6565b6001600160a01b0383169461104a861515611eb2565b61106965ffffffffffff8616610bf665ffffffffffff85168211611ef4565b61108962093a8065ffffffffffff6110818589612401565b161115612424565b6110a6611094610829565b6001600160a01b038616815292610c1f565b65ffffffffffff8516604083015260608201526001600160a01b0383165f908152600160205260409020611f82565b6001600160a01b03165f90815260026020908152604080832060019092529091206111009082611fcf565b5f90600281019360048201925b855481101561114b5780611145610ce761112c610cb96001958b61202d565b6001600160a01b03165f90815260208890526040902090565b0161110d565b5090836111578661206c565b600582019260038301915f5b835481101561119f5780611199610ce7611182610d9760019589612103565b899063ffffffff60e01b165f5260205260405f2090565b01611163565b506111f17fdf7893125b618293614687811f7475856f46429380555502fba0af70c12f404391856111d08596612124565b5f60068201555f60078201555f60088201556009610e8c4262015180900490565b0390a27ffc02478c9031af87a228ad62891ad06b80c8b1d74d8bb50ae3d922e942de3f4c5f80a2005b34610250575f366003190112610250575f546040516001600160a01b039091168152602090f35b346102505760203660031901126102505760043561125e816102da565b6001600160a01b03165f908152600260205260409020620151804204600982015410156112e5575f5b6007820154806112ba575061042b60065f19935b0154604051938493846040919493926060820195825260208201520152565b818181106112d057505061042b60065f9361129b565b6112df60069161042b93612484565b9361129b565b6008810154611287565b34610250575f3660031901126102505761042b604051611310604082610808565b60058152640352e302e360dc1b6020820152604051918291602083526020830190610a68565b34610250575f366003190112610250576040517f00000000000000000000000000000000000000000000000000000000000000006001600160a01b03168152602090f35b3461025057606036600319011261025057600435611397816102da565b604435906024356001600160401b038311610250576107366113c06100189436906004016102eb565b6113c8612744565b6003546001600160a01b0316818386888415158061141c575b611409575b50505050506bffffffffffffffffffffffff60a01b600354166003553691610855565b611412946127e3565b5f818386886113e6565b50337f00000000000000000000000000000000000000000000000000000000000000006001600160a01b0316146113e1565b346102505760203660031901126102505760043561146b816102da565b60018060a01b03165f526001602052608060405f20600181549101546040519160018060a01b038116835265ffffffffffff8160a01c16602084015260d01c60408301526060820152f35b34610250575f36600319011261025057602060ff600654166040519015158152f35b34610250575f366003190112610250576114f06126e6565b5f6004555f60055560ff19600654166006557f8d66a8fd9af6ab8342020fa5924a7db2f19d81320bdfb60b4cd563026e5bcfff5f80a1005b346102505760a0366003190112610250576115446004356102da565b61154f6024356102da565b6044356001600160401b0381116102505761156e903690600401610538565b50506064356001600160401b0381116102505761158f903690600401610538565b50506084356001600160401b038111610250576115b09036906004016102eb565b505060405163bc197c8160e01b8152602090f35b34610250576020366003190112610250576004356115e1816102da565b6115e96126e6565b60018060a01b0316805f5260016020525f6001604082208281550155805f5260026020525f6009604082208281558260018201556116296002820161206c565b61163560038201612124565b82600682015582600782015582600882015501557f827105b0db5c62d83203be159279cf30a9457305ecb14bbbeda1d695a9f146315f80a2005b346102505760203660031901126102505760043561168c816102da565b5f5160206135405f395f51905f5254906001600160401b036116bd60ff604085901c1615936001600160401b031690565b16801590816117d2575b60011490816117c8575b1590816117bf575b506117b05761171c908261171360016001600160401b03195f5160206135405f395f51905f525416175f5160206135405f395f51905f5255565b61177b57612491565b61172257005b61174c60ff60401b195f5160206135405f395f51905f5254165f5160206135405f395f51905f5255565b604051600181527fc7f505b2f371ae2175ee4913f4499e1f2633a7b5936321eed1cdaeb6115181d290602090a1005b6117ab600160401b60ff60401b195f5160206135405f395f51905f525416175f5160206135405f395f51905f5255565b612491565b63f92ee8a960e01b5f5260045ffd5b9050155f6116d9565b303b1591506116d1565b8391506116c7565b34610250576040366003190112610250576004356117f7816102da565b6024356001600160401b03811161025057611816903690600401610b57565b9061181f6126e6565b6001600160a01b038181165f908152600160205260409020546118449116151561250c565b61184d82612a43565b9182600161186b8460018060a01b03165f52600160205260405f2090565b01556001600160a01b0382165f908152600260205260409020928060018501555f91600285019460048101935b86548110156118d657806118d0610ce76118b7610cb96001958c61202d565b6001600160a01b03165f90815260208990526040902090565b01611898565b509091936118e38661206c565b5f5b6118ef848061208d565b9050811015611932578061191561190f610710600194610d31898061208d565b896120c2565b61192c610d546118b761071084610d318a8061208d565b016118e5565b508490835f91600385019460058101935b865481101561197f5780611979610ce7611962610d976001958c612103565b889063ffffffff60e01b165f5260205260405f2090565b01611943565b50939490919461198e82612124565b60208601925f5b61199f858961208d565b90508110156119e357806119dd610d54611182610e0284610d318b8f6119d88d6119d2610e0260019d610d31878761208d565b90612155565b61208d565b01611995565b50604080880135600688015560608801356007880155519182526001600160a01b0316907fc4096fe8a888c8ef29c35e66a4dbf58fb142dce9c40ad467c1dbe907b4d26bf5908060208101610ea8565b34610250575f366003190112610250576020600554604051908152f35b34610250575f366003190112610250576020604051818152f35b34610250575f36600319011261025057604051631aab3f0d60e11b81523060048201525f60248201526020816044817f00000000000000000000000000000000000000000000000000000000000000006001600160a01b03165afa8015611b055761042b915f91611ae657506040519081529081906020820190565b611aff915060203d6020116109bc576109ad8183610808565b5f61041a565b61255f565b346102505760a036600319011261025057611b266004356102da565b611b316024356102da565b6084356001600160401b03811161025057611b509036906004016102eb565b505060405163f23a6e6160e01b8152602090f35b3461025057604036600319011261025057602061047b600435611b86816102da565b60243590611b938261023e565b61256a565b91611bdc611be292611bd4611beb957f19457468657265756d205369676e6564204d6573736167653a0a3332000000005f52601c52603c5f2090565b923691610855565b90612b3a565b90929192612b92565b5f546001600160a01b03828116911614611c2357611c0890611e05565b611c18576001600160e01b031990565b630b135d3f60e11b90565b50630b135d3f60e11b90565b60018060a01b03165f52600260205260405f20600281015415611c705760ff916004611c6b92019060018060a01b03165f5260205260405f2090565b541690565b5050600190565b634e487b7160e01b5f52603260045260245ffd5b9190811015611cad5760051b81013590605e1981360301821215610250570190565b611c77565b35611cbc816102da565b90565b903590601e198136030182121561025057018035906001600160401b0382116102505760200191813603831361025057565b604090611cbc939281528160208201520190610a68565b15611d0f57565b60405162461bcd60e51b8152602060048201526015602482015274082e4e4c2f240d8cadccee8d040dad2e6dac2e8c6d605b1b6044820152606490fd5b15611d5357565b60405162461bcd60e51b815260206004820152601860248201527f42617463682073697a652065786365656473206c696d697400000000000000006044820152606490fd5b9190811015611cad5760051b0190565b90821015611cad57611dbf9160051b810190611cbf565b9091565b90604051611dd0816107e8565b82546001600160a01b038116825265ffffffffffff60a082901c16602083015260d01c60408201526001909201546060830152565b60018060a01b03165f52600160205260405f20604051611e24816107e8565b81546001600160a01b03811680835265ffffffffffff60a083901c166020840181905260d09290921c604084018190526001909401546060909301929092529015611eac57611e819065ffffffffffff165b65ffffffffffff1690565b4210611ea757611e989065ffffffffffff16611e76565b4211611ea357600190565b5f90565b505f90565b50505f90565b15611eb957565b60405162461bcd60e51b8152602060048201526013602482015272496e76616c69642073657373696f6e206b657960681b6044820152606490fd5b15611efb57565b60405162461bcd60e51b8152602060048201526013602482015272496e76616c69642074696d6520626f756e647360681b6044820152606490fd5b15611f3d57565b60405162461bcd60e51b815260206004820152601760248201527f53657373696f6e20616c726561647920657870697265640000000000000000006044820152606490fd5b81516020830151604084015160d01b6001600160d01b03191665ffffffffffff60a01b60a09290921b919091166001600160a01b0390921691909117178155606090910151600190910155565b90808203611fdb575050565b805482546001600160a01b039091166001600160a01b0319821681178455825465ffffffffffff60a01b166001600160d01b031992831682178117855583549092169117178255600190810154910155565b8054821015611cad575f5260205f2001905f90565b634e487b7160e01b5f52601160045260245ffd5b818110612061575050565b5f8155600101612056565b80545f82558061207a575050565b610838915f5260205f2090810190612056565b903590601e198136030182121561025057018035906001600160401b03821161025057602001918160051b3603831361025057565b8054600160401b811015610803576120df9160018201815561202d565b81546001600160a01b0393841660039290921b91821b9390911b1916919091179055565b9190918054831015611cad575f52601c60205f208360031c019260021b1690565b80545f825580612132575050565b610838915f52600760205f20910160031c810190612056565b35611cbc8161023e565b8054600160401b8110156108035761217291600182018155612103565b63ffffffff829392549160031b9260e01c831b921b1916179055565b90604051918281549182825260208201905f5260205f20925f5b8181106121bd57505061083892500383610808565b84546001600160a01b03168352600194850194879450602090930192016121a8565b604051815480825290929183906121fd60208301915f5260205f2090565b925f905b80600783011061234457610838945491818110612325575b818110612306575b8181106122e7575b8181106122c8575b8181106122a9575b81811061228a575b81811061226c575b10612257575b500383610808565b6001600160e01b03191681526020015f61224f565b602083811b6001600160e01b03191685529093600191019301612249565b604083901b6001600160e01b0319168452926001906020019301612241565b606083901b6001600160e01b0319168452926001906020019301612239565b608083901b6001600160e01b0319168452926001906020019301612231565b60a083901b6001600160e01b0319168452926001906020019301612229565b60c083901b6001600160e01b0319168452926001906020019301612221565b6001600160e01b031960e084901b168452926001906020019301612219565b9160089193506101006001916123f3875461236a838260e01b63ffffffff60e01b169052565b60c081901b6001600160e01b031916602084015260a081901b6001600160e01b0319166040840152608081901b6001600160e01b0319166060840152606081901b6001600160e01b0319166080840152604081901b6001600160e01b03191660a0840152602081901b6001600160e01b03191660c08401526001600160e01b03191660e0830152565b019401920185929391612201565b9065ffffffffffff8091169116039065ffffffffffff821161241f57565b612042565b1561242b57565b60405162461bcd60e51b81526020600482015260156024820152744c6567616379206b6579206d61782037206461797360581b6044820152606490fd5b600160601b63ffffffff60c01b03199081039190821161241f57565b9190820391821161241f57565b6001600160a01b031680156124d7575f80546001600160a01b031916821781557f9b44a2c7f9f0b5aa4e7da60d8a2325796c57f93a45559d66515743ffbd8a61039080a2565b60405162461bcd60e51b815260206004820152600d60248201526c24b73b30b634b21037bbb732b960991b6044820152606490fd5b1561251357565b60405162461bcd60e51b815260206004820152601560248201527414d95cdcda5bdb881ad95e481b9bdd08199bdd5b99605a1b6044820152606490fd5b90816020910312610250575190565b6040513d5f823e3d90fd5b6001600160a01b03165f908152600260205260409020600381015415611c705760ff916005611c6b92019063ffffffff60e01b165f5260205260405f2090565b611cbc91611be291612b3a565b7f00000000000000000000000000000000000000000000000000000000000000006001600160a01b0316338190036125ec5750565b63fe34a6d360e01b5f52336004523060245260445260645ffd5b909291928360011161025057831161025057600101915f190190565b906004116102505790600490565b600380546001600160a01b031916905561264f90610100810190611cbf565b908161265f575b611cbc92612c56565b8115611cad57803560f81c60018114806126ad575b6126a3571580612699575b156126565781611cbc939261269392612606565b91612c56565b506042821461267f565b50611cbc92612c0e565b5060418314612674565b3d156126e1573d906126c88261083a565b916126d66040519384610808565b82523d5f602084013e565b606090565b5f546001600160a01b031633036126f957565b6330cd747160e01b5f5260045ffd5b925f939184939260208451940192f190565b3d604051906020818301016040528082525f602083013e90565b61273c61271a565b602081519101fd5b5f546001600160a01b03163314158061276d575b61275e57565b63142888bd60e21b5f5260045ffd5b50337f00000000000000000000000000000000000000000000000000000000000000006001600160a01b03161415612758565b356001600160e01b03198116929190600482106127bb575050565b6001600160e01b031960049290920360031b82901b16169150565b9190820180921161241f57565b6001600160a01b0381165f908152600260205260409020919492939092919460028601546129a5575b5060038501541515808061299b575b612987576004831015908161297f575b5061291b575b5050600683015480151580612912575b6128fb5750600783018054612857575b50505050565b6008916201518042049060098601828154106128b5575b5050505492019161288183548092612484565b80831161289e575090612893916127d6565b90555f808080612851565b6377b326b560e11b5f52600483905260245260445ffd5b5f858801558290556040519182526001600160a01b0316907fe08bf5ec0359ff00ff7306d2a54240f6b4970e8ed71e637f2117ab9b246896f990602090a25f808061286e565b634557d16560e01b5f52600483905260245260445ffd5b50808311612841565b61292e9161292891612622565b906127a0565b6129596105ed61295283600588019063ffffffff60e01b165f5260205260405f2090565b5460ff1690565b6129635780612831565b631d8370a360e11b5f526001600160e01b03191660045260245ffd5b90505f61282b565b631d8370a360e11b5f90815260045260245ffd5b506004831061281b565b6001600160a01b0381165f90815260048701602052604090206129cb906105ed90612952565b1561280c5763e356c1d360e01b5f526001600160a01b031660045260245ffd5b9291908151151580612a3a575b612a1c57905f92938392602083519301915af1612a136126b7565b901561273c5750565b63109a6d7360e01b5f9081526001600160a01b038516600452602490fd5b50833b156129f8565b612a4d818061208d565b9190612a5c602083018361208d565b91906060604085013594013560405194859360208501978060a0870160808b525260c0860191905f5b818110612b0657505050602090601f198682030160408701528681520192945f5b818110612ad25750506060840152608083015203601f1981018352612acc915082610808565b51902090565b9193600191939550602080918835612ae98161023e565b63ffffffff60e01b16815201960191019186949295939195612aa6565b91939597949650916020806001928635612b1f816102da565b848060a01b0316815201940191019188969497959392612a85565b8151919060418303612b6a57612b639250602082015190606060408401519301515f1a90612dfa565b9192909190565b50505f9160029190565b60041115612b7e57565b634e487b7160e01b5f52602160045260245ffd5b612b9b81612b74565b80612ba4575050565b612bad81612b74565b60018103612bc45763f645eedf60e01b5f5260045ffd5b612bcd81612b74565b60028103612be8575063fce698f760e01b5f5260045260245ffd5b80612bf4600392612b74565b14612bfc5750565b6335e2f38360e21b5f5260045260245ffd5b909160ff6006541615612c4e578060211161025057600183013590604111610250576021612c459301356004549160055493612e7c565b611ea357600190565b505050600190565b612c959291611bd4612c8f927f19457468657265756d205369676e6564204d6573736167653a0a3332000000005f52601c52603c5f2090565b906125aa565b5f546001600160a01b03166001600160a01b03821614611ea7576001600160a01b0381165f908152600160205260409020612ccf90611dc3565b80516001600160a01b0316612ce5575050600190565b602081015165ffffffffffff1690428211612c4e576040015165ffffffffffff16428110612c4e57612d36611cbc9360018060a01b03166bffffffffffffffffffffffff60a01b6003541617600355565b60a01b65ffffffffffff60a01b1660d09190911b6001600160d01b0319161790565b90813b15612dd9575f5160206135205f395f51905f5280546001600160a01b0319166001600160a01b0384169081179091557fbc7cd75a20ee27fd9adebab32041f755214dbc6bffa90cc0225b39da2e5c2d3b5f80a2805115612dc157612dbe91612f66565b50565b505034612dca57565b63b398979f60e01b5f5260045ffd5b50634c9c8ce360e01b5f9081526001600160a01b0391909116600452602490fd5b91907f7fffffffffffffffffffffffffffffff5d576e7357a4501ddfe92f46681b20a08411612e71579160209360809260ff5f9560405194855216868401526040830152606082015282805260015afa15611b05575f516001600160a01b03811615612e6757905f905f90565b505f906001905f90565b5050505f9160039190565b9392919080158015612f4f575b612f0f5781158015612f38575b612f0f5782158015612f30575b612f0f57600160601b63ffffffff60c01b03198310801590612f18575b612f0f577f7fffffff800000007fffffffffffffffde737d56d38bcf4279dce5617e3192a88211612f0f57612ef88484848489612fd9565b612f0557611cbc94613051565b5050505050600190565b50505050505f90565b50600160601b63ffffffff60c01b0319841015612ec0565b508315612ea3565b505f5160206135005f395f51905f52821015612e96565b505f5160206135005f395f51905f52811015612e89565b905f8091602081519101845af48080612fc6575b15612f89575050611cbc6130eb565b15612fae57639996b31560e01b5f9081526001600160a01b0391909116600452602490fd5b3d15155f0361255f5763d6bda27560e01b5f5260045ffd5b503d151580612f7a5750813b1515612f7a565b91935f94938594604051936020850195865260408501526060840152608083015260a082015260a0815261300e60c082610808565b51906101005afa61301d6126b7565b9080613046575b61302d57505f90565b61304281602080600194518301019101612550565b1490565b506020815114613024565b90939161305d90613104565b908115612f0f575f5160206135005f395f51905f528261307d92096131e3565b9390928315806130e3575b6130d9575f5160206135005f395f51905f526130a6938709916132a6565b908015806130d1575b612f0f575f5160206135005f395f51905f52936130cb9361332d565b50061490565b5081156130af565b5050505050505f90565b508415613088565b604051903d82523d5f602084013e60203d830101604052565b8015611ea75760405190602082526020808301526020604083015260608201527fffffffff00000000ffffffffffffffffbce6faada7179e84f3b9cac2fc63254f60808201525f5160206135005f395f51905f5260a082015260208160c08160055afa15610250575190565b8015611ea75760405190602082526020808301526020604083015260608201527fffffffff00000001000000000000000000000000fffffffffffffffffffffffd60808201526ffffffffeffffffffffffffffffffffff60601b1960a082015260208160c08160055afa15610250575190565b801561329f575f9182917f4fe342e2fe1a7f9b8ee7eb4a7c0f9e162bce33576b315ececbb6406837bf51f57f6b17d1f2e12c4247f8bce6e563a440f277037d812deb33a0f4a13945d898c296825b61323a57505050565b60018084161461325b575b9061324f9161344d565b909160011c9182613231565b939094801580613297575b1561327d57505061324f839480945b909150613245565b858561324f9361328f9398979861332d565b949095613275565b508115613266565b505f905f90565b919290928015613324575f938493825b6132bf57505050565b6001808416146132e0575b906132d49161344d565b909160011c91826132b6565b93909480158061331c575b156133025750506132d4839480945b9091506132ca565b85856132d4936133149398979861332d565b9490956132fa565b5081156132eb565b505f9250829150565b90919392811580613445575b61343f57841580613437575b6134315784821461341657600160601b63ffffffff60c01b03199061336984612468565b9008600160601b63ffffffff60c01b03199061338f8261338885612468565b8808613170565b900993600160601b63ffffffff60c01b03196133aa83612468565b600160601b63ffffffff60c01b031987800908600160601b63ffffffff60c01b0319916133d690612468565b900893600160601b63ffffffff60c01b03199182906133f487612468565b90089009600160601b63ffffffff60c01b03199161341190612468565b900890565b9092935081146134285750505f905f90565b611dbf9161344d565b50925090565b508015613345565b92915050565b508215613339565b919080156134f757600160601b63ffffffff60c01b03196134718183600209613170565b600160601b63ffffffff60c01b03197fffffffff00000001000000000000000000000000fffffffffffffffffffffffc8180888009600309080992600160601b63ffffffff60c01b03196134c88183600209612468565b600160601b63ffffffff60c01b03198680090893600160601b63ffffffff60c01b03199182906133f487612468565b505f9150819056feffffffff00000000ffffffffffffffffbce6faada7179e84f3b9cac2fc632551360894a13ba1a3210667c828492db98dca3e2076cc3735a920a3ca505d382bbcf0c57e16840df040f15088dc2f81fe391c3923bec73e23a9662efc9c229c6a00a2646970667358221220762bdbb0958acf719a7ff29e7826c153cc11f7511cc3ae33609d7090aa44b3b164736f6c634300081c0033f0c57e16840df040f15088dc2f81fe391c3923bec73e23a9662efc9c229c6a00","linkReferences":{}},"methodIdentifiers":{"ACCOUNT_IMPLEMENTATION()":"290ab984","ENTRY_POINT()":"94430fa5","createAccount(address,uint256,uint256,uint256)":"d1ce9565","getAddress(uint256,uint256,uint256)":"e81b22ea"},"id":98}