{"abi":[{"type":"constructor","inputs":[{"name":"initialOwner","type":"address","internalType":"address"}],"stateMutability":"nonpayable"},{"type":"function","name":"DOMAIN_SEPARATOR","inputs":[],"outputs":[{"name":"","type":"bytes32","internalType":"bytes32"}],"stateMutability":"view"},{"type":"function","name":"addMinter","inputs":[{"name":"minter","type":"address","internalType":"address"}],"outputs":[],"stateMutability":"nonpayable"},{"type":"function","name":"allowance","inputs":[{"name":"owner","type":"address","internalType":"address"},{"name":"spender","type":"address","internalType":"address"}],"outputs":[{"name":"","type":"uint256","internalType":"uint256"}],"stateMutability":"view"},{"type":"function","name":"approve","inputs":[{"name":"spender","type":"address","internalType":"address"},{"name":"value","type":"uint256","internalType":"uint256"}],"outputs":[{"name":"","type":"bool","internalType":"bool"}],"stateMutability":"nonpayable"},{"type":"function","name":"balanceOf","inputs":[{"name":"account","type":"address","internalType":"address"}],"outputs":[{"name":"","type":"uint256","internalType":"uint256"}],"stateMutability":"view"},{"type":"function","name":"burn","inputs":[{"name":"value","type":"uint256","internalType":"uint256"}],"outputs":[],"stateMutability":"nonpayable"},{"type":"function","name":"burnFrom","inputs":[{"name":"account","type":"address","internalType":"address"},{"name":"value","type":"uint256","internalType":"uint256"}],"outputs":[],"stateMutability":"nonpayable"},{"type":"function","name":"burnFromWithReference","inputs":[{"name":"from","type":"address","internalType":"address"},{"name":"amount","type":"uint256","internalType":"uint256"},{"name":"referenceCode","type":"string","internalType":"string"}],"outputs":[],"stateMutability":"nonpayable"},{"type":"function","name":"burnWithReference","inputs":[{"name":"amount","type":"uint256","internalType":"uint256"},{"name":"referenceCode","type":"string","internalType":"string"}],"outputs":[],"stateMutability":"nonpayable"},{"type":"function","name":"decimals","inputs":[],"outputs":[{"name":"","type":"uint8","internalType":"uint8"}],"stateMutability":"pure"},{"type":"function","name":"eip712Domain","inputs":[],"outputs":[{"name":"fields","type":"bytes1","internalType":"bytes1"},{"name":"name","type":"string","internalType":"string"},{"name":"version","type":"string","internalType":"string"},{"name":"chainId","type":"uint256","internalType":"uint256"},{"name":"verifyingContract","type":"address","internalType":"address"},{"name":"salt","type":"bytes32","internalType":"bytes32"},{"name":"extensions","type":"uint256[]","internalType":"uint256[]"}],"stateMutability":"view"},{"type":"function","name":"mint","inputs":[{"name":"to","type":"address","internalType":"address"},{"name":"amount","type":"uint256","internalType":"uint256"}],"outputs":[],"stateMutability":"nonpayable"},{"type":"function","name":"mintWithReference","inputs":[{"name":"to","type":"address","internalType":"address"},{"name":"amount","type":"uint256","internalType":"uint256"},{"name":"referenceCode","type":"string","internalType":"string"}],"outputs":[],"stateMutability":"nonpayable"},{"type":"function","name":"minters","inputs":[{"name":"","type":"address","internalType":"address"}],"outputs":[{"name":"","type":"bool","internalType":"bool"}],"stateMutability":"view"},{"type":"function","name":"name","inputs":[],"outputs":[{"name":"","type":"string","internalType":"string"}],"stateMutability":"view"},{"type":"function","name":"nonces","inputs":[{"name":"owner","type":"address","internalType":"address"}],"outputs":[{"name":"","type":"uint256","internalType":"uint256"}],"stateMutability":"view"},{"type":"function","name":"owner","inputs":[],"outputs":[{"name":"","type":"address","internalType":"address"}],"stateMutability":"view"},{"type":"function","name":"permit","inputs":[{"name":"owner","type":"address","internalType":"address"},{"name":"spender","type":"address","internalType":"address"},{"name":"value","type":"uint256","internalType":"uint256"},{"name":"deadline","type":"uint256","internalType":"uint256"},{"name":"v","type":"uint8","internalType":"uint8"},{"name":"r","type":"bytes32","internalType":"bytes32"},{"name":"s","type":"bytes32","internalType":"bytes32"}],"outputs":[],"stateMutability":"nonpayable"},{"type":"function","name":"removeMinter","inputs":[{"name":"minter","type":"address","internalType":"address"}],"outputs":[],"stateMutability":"nonpayable"},{"type":"function","name":"renounceOwnership","inputs":[],"outputs":[],"stateMutability":"nonpayable"},{"type":"function","name":"symbol","inputs":[],"outputs":[{"name":"","type":"string","internalType":"string"}],"stateMutability":"view"},{"type":"function","name":"totalSupply","inputs":[],"outputs":[{"name":"","type":"uint256","internalType":"uint256"}],"stateMutability":"view"},{"type":"function","name":"transfer","inputs":[{"name":"to","type":"address","internalType":"address"},{"name":"value","type":"uint256","internalType":"uint256"}],"outputs":[{"name":"","type":"bool","internalType":"bool"}],"stateMutability":"nonpayable"},{"type":"function","name":"transferFrom","inputs":[{"name":"from","type":"address","internalType":"address"},{"name":"to","type":"address","internalType":"address"},{"name":"value","type":"uint256","internalType":"uint256"}],"outputs":[{"name":"","type":"bool","internalType":"bool"}],"stateMutability":"nonpayable"},{"type":"function","name":"transferOwnership","inputs":[{"name":"newOwner","type":"address","internalType":"address"}],"outputs":[],"stateMutability":"nonpayable"},{"type":"event","name":"Approval","inputs":[{"name":"owner","type":"address","indexed":true,"internalType":"address"},{"name":"spender","type":"address","indexed":true,"internalType":"address"},{"name":"value","type":"uint256","indexed":false,"internalType":"uint256"}],"anonymous":false},{"type":"event","name":"BurnWithReference","inputs":[{"name":"from","type":"address","indexed":true,"internalType":"address"},{"name":"amount","type":"uint256","indexed":false,"internalType":"uint256"},{"name":"referenceCode","type":"string","indexed":false,"internalType":"string"}],"anonymous":false},{"type":"event","name":"EIP712DomainChanged","inputs":[],"anonymous":false},{"type":"event","name":"Mint","inputs":[{"name":"to","type":"address","indexed":true,"internalType":"address"},{"name":"amount","type":"uint256","indexed":false,"internalType":"uint256"},{"name":"referenceCode","type":"string","indexed":false,"internalType":"string"}],"anonymous":false},{"type":"event","name":"MinterAdded","inputs":[{"name":"minter","type":"address","indexed":true,"internalType":"address"}],"anonymous":false},{"type":"event","name":"MinterRemoved","inputs":[{"name":"minter","type":"address","indexed":true,"internalType":"address"}],"anonymous":false},{"type":"event","name":"OwnershipTransferred","inputs":[{"name":"previousOwner","type":"address","indexed":true,"internalType":"address"},{"name":"newOwner","type":"address","indexed":true,"internalType":"address"}],"anonymous":false},{"type":"event","name":"Transfer","inputs":[{"name":"from","type":"address","indexed":true,"internalType":"address"},{"name":"to","type":"address","indexed":true,"internalType":"address"},{"name":"value","type":"uint256","indexed":false,"internalType":"uint256"}],"anonymous":false},{"type":"error","name":"ECDSAInvalidSignature","inputs":[]},{"type":"error","name":"ECDSAInvalidSignatureLength","inputs":[{"name":"length","type":"uint256","internalType":"uint256"}]},{"type":"error","name":"ECDSAInvalidSignatureS","inputs":[{"name":"s","type":"bytes32","internalType":"bytes32"}]},{"type":"error","name":"ERC20InsufficientAllowance","inputs":[{"name":"spender","type":"address","internalType":"address"},{"name":"allowance","type":"uint256","internalType":"uint256"},{"name":"needed","type":"uint256","internalType":"uint256"}]},{"type":"error","name":"ERC20InsufficientBalance","inputs":[{"name":"sender","type":"address","internalType":"address"},{"name":"balance","type":"uint256","internalType":"uint256"},{"name":"needed","type":"uint256","internalType":"uint256"}]},{"type":"error","name":"ERC20InvalidApprover","inputs":[{"name":"approver","type":"address","internalType":"address"}]},{"type":"error","name":"ERC20InvalidReceiver","inputs":[{"name":"receiver","type":"address","internalType":"address"}]},{"type":"error","name":"ERC20InvalidSender","inputs":[{"name":"sender","type":"address","internalType":"address"}]},{"type":"error","name":"ERC20InvalidSpender","inputs":[{"name":"spender","type":"address","internalType":"address"}]},{"type":"error","name":"ERC2612ExpiredSignature","inputs":[{"name":"deadline","type":"uint256","internalType":"uint256"}]},{"type":"error","name":"ERC2612InvalidSigner","inputs":[{"name":"signer","type":"address","internalType":"address"},{"name":"owner","type":"address","internalType":"address"}]},{"type":"error","name":"InvalidAccountNonce","inputs":[{"name":"account","type":"address","internalType":"address"},{"name":"currentNonce","type":"uint256","internalType":"uint256"}]},{"type":"error","name":"InvalidShortString","inputs":[]},{"type":"error","name":"NotMinter","inputs":[]},{"type":"error","name":"OwnableInvalidOwner","inputs":[{"name":"owner","type":"address","internalType":"address"}]},{"type":"error","name":"OwnableUnauthorizedAccount","inputs":[{"name":"account","type":"address","internalType":"address"}]},{"type":"error","name":"StringTooLong","inputs":[{"name":"str","type":"string","internalType":"string"}]},{"type":"error","name":"ZeroAddress","inputs":[]},{"type":"error","name":"ZeroAmount","inputs":[]}],"bytecode":{"object":"0x610160806040523461050357602081611b0a80380380916100208285610507565b83398101031261050357516001600160a01b038116908190036105035760405161004b604082610507565b600f8152602081016e566965746e616d65736520446f6e6760881b815260405190610077604083610507565b600f82526e566965746e616d65736520446f6e6760881b6020830152604051926100a2604085610507565b600384526215939160ea1b6020850152604051936100c1604086610507565b60018552603160f81b60208601908152845190946001600160401b0382116104065760035490600182811c921680156104f9575b60208310146103e85781601f84931161048b575b50602090601f8311600114610425575f9261041a575b50508160011b915f199060031b1c1916176003555b8051906001600160401b0382116104065760045490600182811c921680156103fc575b60208310146103e85781601f84931161037a575b50602090601f8311600114610314575f92610309575b50508160011b915f199060031b1c1916176004555b61019f8161052a565b610120526101ac846106b1565b61014052519020918260e05251902080610100524660a0526040519060208201927f8b73c3c69bb8fe3d512ecc4cf759cc79239f7b179b0ffacaa9a75d522b39400f8452604083015260608201524660808201523060a082015260a0815261021560c082610507565b5190206080523060c05280156102f657600880546001600160a01b031981168317909155604051919081906001600160a01b03167f8be0079c531659141344cd1fd0a4f28419497f9722a3daafe3b4186f6b6457e05f80a3805f52600960205260405f20600160ff198254161790557f6ae172837ea30b801fbfcdd4108aa1d5bf8ff775444fd70256b44e6bf3dfc3f65f80a261132090816107ea823960805181611009015260a051816110c6015260c05181610fd3015260e051816110580152610100518161107e0152610120518161055a015261014051816105830152f35b631e4fbdf760e01b5f525f60045260245ffd5b015190505f80610181565b60045f9081528281209350601f198516905b818110610362575090846001959493921061034a575b505050811b01600455610196565b01515f1960f88460031b161c191690555f808061033c565b92936020600181928786015181550195019301610326565b60045f529091507f8a35acfbc15ff81a39ae7d344fd709f28e8600b4aa8c65c6b64bfe7fe36bd19b601f840160051c810191602085106103de575b90601f859493920160051c01905b8181106103d0575061016b565b5f81558493506001016103c3565b90915081906103b5565b634e487b7160e01b5f52602260045260245ffd5b91607f1691610157565b634e487b7160e01b5f52604160045260245ffd5b015190505f8061011f565b60035f9081528281209350601f198516905b818110610473575090846001959493921061045b575b505050811b01600355610134565b01515f1960f88460031b161c191690555f808061044d565b92936020600181928786015181550195019301610437565b60035f529091507fc2575a0e9e593c00f959f8c92f12db2869c3395a3b0502d05e2516446f71f85b601f840160051c810191602085106104ef575b90601f859493920160051c01905b8181106104e15750610109565b5f81558493506001016104d4565b90915081906104c6565b91607f16916100f5565b5f80fd5b601f909101601f19168101906001600160401b0382119082101761040657604052565b908151602081105f146105a4575090601f815111610564576020815191015160208210610555571790565b5f198260200360031b1b161790565b604460209160405192839163305a27a960e01b83528160048401528051918291826024860152018484015e5f828201840152601f01601f19168101030190fd5b6001600160401b03811161040657600554600181811c911680156106a7575b60208210146103e857601f8111610674575b50602092601f821160011461061357928192935f92610608575b50508160011b915f199060031b1c19161760055560ff90565b015190505f806105ef565b601f1982169360055f52805f20915f5b86811061065c5750836001959610610644575b505050811b0160055560ff90565b01515f1960f88460031b161c191690555f8080610636565b91926020600181928685015181550194019201610623565b60055f52601f60205f20910160051c810190601f830160051c015b81811061069c57506105d5565b5f815560010161068f565b90607f16906105c3565b908151602081105f146106dc575090601f815111610564576020815191015160208210610555571790565b6001600160401b03811161040657600654600181811c911680156107df575b60208210146103e857601f81116107ac575b50602092601f821160011461074b57928192935f92610740575b50508160011b915f199060031b1c19161760065560ff90565b015190505f80610727565b601f1982169360065f52805f20915f5b868110610794575083600195961061077c575b505050811b0160065560ff90565b01515f1960f88460031b161c191690555f808061076e565b9192602060018192868501518155019401920161075b565b60065f52601f60205f20910160051c810190601f830160051c015b8181106107d4575061070d565b5f81556001016107c7565b90607f16906106fb56fe6080806040526004361015610012575f80fd5b5f3560e01c90816306fdde0314610aa857508063095ea7b314610a8257806311cdfd8114610a0b57806318160ddd146109ee57806321204b551461095d57806323b872dd146109255780633092afd5146108c0578063313ce567146108a65780633644e5151461088457806338bf609f1461081657806340c10f191461075157806342966c681461073457806370a08231146106fd578063715018a6146106a257806379cc6790146106725780637ecebe001461063a57806384b0196e146105425780638da5cb5b1461051a57806395d89b4114610438578063983b2d56146103bc578063a9059cbb1461038b578063d505accf14610246578063dd62ed3e146101f6578063f2fde38b146101705763f46eccc41461012f575f80fd5b3461016c57602036600319011261016c576001600160a01b03610150610b6e565b165f526009602052602060ff60405f2054166040519015158152f35b5f80fd5b3461016c57602036600319011261016c57610189610b6e565b610191610fa9565b6001600160a01b031680156101e357600880546001600160a01b0319811683179091556001600160a01b03167f8be0079c531659141344cd1fd0a4f28419497f9722a3daafe3b4186f6b6457e05f80a3005b631e4fbdf760e01b5f525f60045260245ffd5b3461016c57604036600319011261016c5761020f610b6e565b610217610b84565b6001600160a01b039182165f908152600160209081526040808320949093168252928352819020549051908152f35b3461016c5760e036600319011261016c5761025f610b6e565b610267610b84565b604435906064359260843560ff8116810361016c578442116103785761033b6103449160018060a01b03841696875f52600760205260405f20908154916001830190556040519060208201927f6e71edae12b1b97f4d1f60370fef10105fa2faae0126114a169c64845d6126c984528a604084015260018060a01b038916606084015289608084015260a083015260c082015260c0815261030960e082610cc8565b519020610314610fd0565b906040519161190160f01b83526002830152602282015260c43591604260a43592206111e9565b90929192611276565b6001600160a01b0316848103610361575061035f93506110ec565b005b84906325c0072360e11b5f5260045260245260445ffd5b8463313c898160e11b5f5260045260245ffd5b3461016c57604036600319011261016c576103b16103a7610b6e565b6024359033610f12565b602060405160018152f35b3461016c57602036600319011261016c576103d5610b6e565b6103dd610fa9565b6001600160a01b0316801561042957805f52600960205260405f20600160ff198254161790557f6ae172837ea30b801fbfcdd4108aa1d5bf8ff775444fd70256b44e6bf3dfc3f65f80a2005b63d92e233d60e01b5f5260045ffd5b3461016c575f36600319011261016c576040515f60045461045881610c0f565b80845290600181169081156104f65750600114610498575b6104948361048081850382610cc8565b604051918291602083526020830190610b4a565b0390f35b60045f9081527f8a35acfbc15ff81a39ae7d344fd709f28e8600b4aa8c65c6b64bfe7fe36bd19b939250905b8082106104dc57509091508101602001610480610470565b9192600181602092548385880101520191019092916104c4565b60ff191660208086019190915291151560051b840190910191506104809050610470565b3461016c575f36600319011261016c576008546040516001600160a01b039091168152602090f35b3461016c575f36600319011261016c576105de61057e7f000000000000000000000000000000000000000000000000000000000000000061114f565b6105a77f00000000000000000000000000000000000000000000000000000000000000006111b2565b60206105ec604051926105ba8385610cc8565b5f84525f368137604051958695600f60f81b875260e08588015260e0870190610b4a565b908582036040870152610b4a565b4660608501523060808501525f60a085015283810360c08501528180845192838152019301915f5b82811061062357505050500390f35b835185528695509381019392810192600101610614565b3461016c57602036600319011261016c576001600160a01b0361065b610b6e565b165f526007602052602060405f2054604051908152f35b3461016c57604036600319011261016c5761035f61068e610b6e565b6024359061069d823383610e49565b610d2b565b3461016c575f36600319011261016c576106ba610fa9565b600880546001600160a01b031981169091555f906001600160a01b03167f8be0079c531659141344cd1fd0a4f28419497f9722a3daafe3b4186f6b6457e08280a3005b3461016c57602036600319011261016c576001600160a01b0361071e610b6e565b165f525f602052602060405f2054604051908152f35b3461016c57602036600319011261016c5761035f60043533610d2b565b3461016c57604036600319011261016c5761076a610b6e565b602435335f52600960205260ff60405f2054161580610801575b6107f2576001600160a01b0382169182156104295781156107e357816107cd7f85a66b9141978db9980f7e0ce3b468cebf4f7999f32b23091c5c03e798b1ba7a93606093610dc2565b604051908152604060208201525f6040820152a2005b631f2a200560e01b5f5260045ffd5b633e34a41b60e21b5f5260045ffd5b506008546001600160a01b0316331415610784565b3461016c5761082436610bc8565b919283156107e35761087f7f32c525ea3fa01bd5ac1965a21c349518ab7574a5465fa04d5622148201596b279361085c863385610e49565b6108668684610d2b565b6040516001600160a01b03909316959293849384610cfe565b0390a2005b3461016c575f36600319011261016c57602061089e610fd0565b604051908152f35b3461016c575f36600319011261016c5760206040515f8152f35b3461016c57602036600319011261016c576108d9610b6e565b6108e1610fa9565b6001600160a01b03165f818152600960205260408120805460ff191690557fe94479a9f7e1952cc78f2d6baab678adc1b772d936c6583def489e524cb666929080a2005b3461016c57606036600319011261016c576103b1610941610b6e565b610949610b84565b60443591610958833383610e49565b610f12565b3461016c5761096b36610bc8565b91335f52600960205260ff60405f20541615806109d9575b6107f2576001600160a01b0384169384156104295781156107e3577f85a66b9141978db9980f7e0ce3b468cebf4f7999f32b23091c5c03e798b1ba7a936109cd8361087f93610dc2565b60405193849384610cfe565b506008546001600160a01b0316331415610983565b3461016c575f36600319011261016c576020600254604051908152f35b3461016c57604036600319011261016c5760043560243567ffffffffffffffff811161016c57610a3f903690600401610b9a565b82156107e3577f32c525ea3fa01bd5ac1965a21c349518ab7574a5465fa04d5622148201596b2791610a718433610d2b565b61087f604051928392339684610cfe565b3461016c57604036600319011261016c576103b1610a9e610b6e565b60243590336110ec565b3461016c575f36600319011261016c575f600354610ac581610c0f565b80845290600181169081156104f65750600114610aec576104948361048081850382610cc8565b60035f9081527fc2575a0e9e593c00f959f8c92f12db2869c3395a3b0502d05e2516446f71f85b939250905b808210610b3057509091508101602001610480610470565b919260018160209254838588010152019101909291610b18565b805180835260209291819084018484015e5f828201840152601f01601f1916010190565b600435906001600160a01b038216820361016c57565b602435906001600160a01b038216820361016c57565b9181601f8401121561016c5782359167ffffffffffffffff831161016c576020838186019501011161016c57565b606060031982011261016c576004356001600160a01b038116810361016c5791602435916044359067ffffffffffffffff821161016c57610c0b91600401610b9a565b9091565b90600182811c92168015610c3d575b6020831014610c2957565b634e487b7160e01b5f52602260045260245ffd5b91607f1691610c1e565b5f9291815491610c5683610c0f565b8083529260018116908115610cab5750600114610c7257505050565b5f9081526020812093945091925b838310610c91575060209250010190565b600181602092949394548385870101520191019190610c80565b915050602093945060ff929192191683830152151560051b010190565b90601f8019910116810190811067ffffffffffffffff821117610cea57604052565b634e487b7160e01b5f52604160045260245ffd5b91926060938192845260406020850152816040850152848401375f828201840152601f01601f1916010190565b9091906001600160a01b03168015610daf57805f525f60205260405f2054838110610d95576020845f94957fddf252ad1be2c89b69c2b068fc378daa952ba7f163c4a11628f55a4df523b3ef938587528684520360408620558060025403600255604051908152a3565b915063391434e360e21b5f5260045260245260445260645ffd5b634b637e8f60e11b5f525f60045260245ffd5b6001600160a01b0316908115610e365760025490808201809211610e225760207fddf252ad1be2c89b69c2b068fc378daa952ba7f163c4a11628f55a4df523b3ef915f9360025584845283825260408420818154019055604051908152a3565b634e487b7160e01b5f52601160045260245ffd5b63ec442f0560e01b5f525f60045260245ffd5b6001600160a01b039081165f818152600160209081526040808320948616835293905291909120549291905f198410610e83575b50505050565b828410610eef578015610edc576001600160a01b03821615610ec9575f52600160205260405f209060018060a01b03165f5260205260405f20910390555f808080610e7d565b634a1406b160e11b5f525f60045260245ffd5b63e602df0560e01b5f525f60045260245ffd5b508290637dc7a0d960e11b5f5260018060a01b031660045260245260445260645ffd5b6001600160a01b0316908115610daf576001600160a01b0316918215610e3657815f525f60205260405f2054818110610f9057817fddf252ad1be2c89b69c2b068fc378daa952ba7f163c4a11628f55a4df523b3ef92602092855f525f84520360405f2055845f525f825260405f20818154019055604051908152a3565b8263391434e360e21b5f5260045260245260445260645ffd5b6008546001600160a01b03163303610fbd57565b63118cdaa760e01b5f523360045260245ffd5b307f00000000000000000000000000000000000000000000000000000000000000006001600160a01b031614806110c3575b1561102b577f000000000000000000000000000000000000000000000000000000000000000090565b60405160208101907f8b73c3c69bb8fe3d512ecc4cf759cc79239f7b179b0ffacaa9a75d522b39400f82527f000000000000000000000000000000000000000000000000000000000000000060408201527f000000000000000000000000000000000000000000000000000000000000000060608201524660808201523060a082015260a081526110bd60c082610cc8565b51902090565b507f00000000000000000000000000000000000000000000000000000000000000004614611002565b6001600160a01b0316908115610edc576001600160a01b0316918215610ec95760207f8c5be1e5ebec7d5bd14f71427d1e84f3dd0314c0f7b2291e5b200ac8c7c3b92591835f526001825260405f20855f5282528060405f2055604051908152a3565b60ff81146111955760ff811690601f82116111865760405191611173604084610cc8565b6020808452838101919036833783525290565b632cd44ac360e21b5f5260045ffd5b506040516111af816111a8816005610c47565b0382610cc8565b90565b60ff81146111d65760ff811690601f82116111865760405191611173604084610cc8565b506040516111af816111a8816006610c47565b91907f7fffffffffffffffffffffffffffffff5d576e7357a4501ddfe92f46681b20a0841161126b579160209360809260ff5f9560405194855216868401526040830152606082015282805260015afa15611260575f516001600160a01b0381161561125657905f905f90565b505f906001905f90565b6040513d5f823e3d90fd5b5050505f9160039190565b60048110156112d65780611288575050565b6001810361129f5763f645eedf60e01b5f5260045ffd5b600281036112ba575063fce698f760e01b5f5260045260245ffd5b6003146112c45750565b6335e2f38360e21b5f5260045260245ffd5b634e487b7160e01b5f52602160045260245ffdfea26469706673582212201ef0d709e975f29120ed35da5cfad5b8d64093e1caad47f2a859929ce0f9be8264736f6c634300081c0033","linkReferences":{}},"methodIdentifiers":{"DOMAIN_SEPARATOR()":"3644e515","addMinter(address)":"983b2d56","allowance(address,address)":"dd62ed3e","approve(address,uint256)":"095ea7b3","balanceOf(address)":"70a08231","burn(uint256)":"42966c68","burnFrom(address,uint256)":"79cc6790","burnFromWithReference(address,uint256,string)":"38bf609f","burnWithReference(uint256,string)":"11cdfd81","decimals()":"313ce567","eip712Domain()":"84b0196e","mint(address,uint256)":"40c10f19","mintWithReference(address,uint256,string)":"21204b55","minters(address)":"f46eccc4","name()":"06fdde03","nonces(address)":"7ecebe00","owner()":"8da5cb5b","permit(address,address,uint256,uint256,uint8,bytes32,bytes32)":"d505accf","removeMinter(address)":"3092afd5","renounceOwnership()":"715018a6","symbol()":"95d89b41","totalSupply()":"18160ddd","transfer(address,uint256)":"a9059cbb","transferFrom(address,address,uint256)":"23b872dd","transferOwnership(address)":"f2fde38b"},"id":64}