{"abi":[{"type":"constructor","inputs":[],"stateMutability":"nonpayable"},{"type":"function","name":"ADMIN_ROLE","inputs":[],"outputs":[{"name":"","type":"bytes32","internalType":"bytes32"}],"stateMutability":"view"},{"type":"function","name":"DEFAULT_ADMIN_ROLE","inputs":[],"outputs":[{"name":"","type":"bytes32","internalType":"bytes32"}],"stateMutability":"view"},{"type":"function","name":"DOMAIN_SEPARATOR","inputs":[],"outputs":[{"name":"","type":"bytes32","internalType":"bytes32"}],"stateMutability":"view"},{"type":"function","name":"MAX_SUPPLY","inputs":[],"outputs":[{"name":"","type":"uint256","internalType":"uint256"}],"stateMutability":"view"},{"type":"function","name":"MINTER_ROLE","inputs":[],"outputs":[{"name":"","type":"bytes32","internalType":"bytes32"}],"stateMutability":"view"},{"type":"function","name":"UPGRADER_ROLE","inputs":[],"outputs":[{"name":"","type":"bytes32","internalType":"bytes32"}],"stateMutability":"view"},{"type":"function","name":"UPGRADE_INTERFACE_VERSION","inputs":[],"outputs":[{"name":"","type":"string","internalType":"string"}],"stateMutability":"view"},{"type":"function","name":"allowance","inputs":[{"name":"owner","type":"address","internalType":"address"},{"name":"spender","type":"address","internalType":"address"}],"outputs":[{"name":"","type":"uint256","internalType":"uint256"}],"stateMutability":"view"},{"type":"function","name":"approve","inputs":[{"name":"spender","type":"address","internalType":"address"},{"name":"value","type":"uint256","internalType":"uint256"}],"outputs":[{"name":"","type":"bool","internalType":"bool"}],"stateMutability":"nonpayable"},{"type":"function","name":"balanceOf","inputs":[{"name":"account","type":"address","internalType":"address"}],"outputs":[{"name":"","type":"uint256","internalType":"uint256"}],"stateMutability":"view"},{"type":"function","name":"blacklist","inputs":[{"name":"account","type":"address","internalType":"address"}],"outputs":[],"stateMutability":"nonpayable"},{"type":"function","name":"burn","inputs":[{"name":"value","type":"uint256","internalType":"uint256"}],"outputs":[],"stateMutability":"nonpayable"},{"type":"function","name":"burnFrom","inputs":[{"name":"account","type":"address","internalType":"address"},{"name":"value","type":"uint256","internalType":"uint256"}],"outputs":[],"stateMutability":"nonpayable"},{"type":"function","name":"burnFromWithReference","inputs":[{"name":"from","type":"address","internalType":"address"},{"name":"amount","type":"uint256","internalType":"uint256"},{"name":"referenceCode","type":"string","internalType":"string"}],"outputs":[],"stateMutability":"nonpayable"},{"type":"function","name":"burnWithReference","inputs":[{"name":"amount","type":"uint256","internalType":"uint256"},{"name":"referenceCode","type":"string","internalType":"string"}],"outputs":[],"stateMutability":"nonpayable"},{"type":"function","name":"decimals","inputs":[],"outputs":[{"name":"","type":"uint8","internalType":"uint8"}],"stateMutability":"pure"},{"type":"function","name":"eip712Domain","inputs":[],"outputs":[{"name":"fields","type":"bytes1","internalType":"bytes1"},{"name":"name","type":"string","internalType":"string"},{"name":"version","type":"string","internalType":"string"},{"name":"chainId","type":"uint256","internalType":"uint256"},{"name":"verifyingContract","type":"address","internalType":"address"},{"name":"salt","type":"bytes32","internalType":"bytes32"},{"name":"extensions","type":"uint256[]","internalType":"uint256[]"}],"stateMutability":"view"},{"type":"function","name":"getRoleAdmin","inputs":[{"name":"role","type":"bytes32","internalType":"bytes32"}],"outputs":[{"name":"","type":"bytes32","internalType":"bytes32"}],"stateMutability":"view"},{"type":"function","name":"grantRole","inputs":[{"name":"role","type":"bytes32","internalType":"bytes32"},{"name":"account","type":"address","internalType":"address"}],"outputs":[],"stateMutability":"nonpayable"},{"type":"function","name":"hasRole","inputs":[{"name":"role","type":"bytes32","internalType":"bytes32"},{"name":"account","type":"address","internalType":"address"}],"outputs":[{"name":"","type":"bool","internalType":"bool"}],"stateMutability":"view"},{"type":"function","name":"initialize","inputs":[{"name":"admin","type":"address","internalType":"address"}],"outputs":[],"stateMutability":"nonpayable"},{"type":"function","name":"isBlacklisted","inputs":[{"name":"account","type":"address","internalType":"address"}],"outputs":[{"name":"","type":"bool","internalType":"bool"}],"stateMutability":"view"},{"type":"function","name":"mint","inputs":[{"name":"to","type":"address","internalType":"address"},{"name":"amount","type":"uint256","internalType":"uint256"}],"outputs":[],"stateMutability":"nonpayable"},{"type":"function","name":"mintWithReference","inputs":[{"name":"to","type":"address","internalType":"address"},{"name":"amount","type":"uint256","internalType":"uint256"},{"name":"referenceCode","type":"string","internalType":"string"}],"outputs":[],"stateMutability":"nonpayable"},{"type":"function","name":"name","inputs":[],"outputs":[{"name":"","type":"string","internalType":"string"}],"stateMutability":"pure"},{"type":"function","name":"nonces","inputs":[{"name":"owner","type":"address","internalType":"address"}],"outputs":[{"name":"","type":"uint256","internalType":"uint256"}],"stateMutability":"view"},{"type":"function","name":"pause","inputs":[],"outputs":[],"stateMutability":"nonpayable"},{"type":"function","name":"paused","inputs":[],"outputs":[{"name":"","type":"bool","internalType":"bool"}],"stateMutability":"view"},{"type":"function","name":"permit","inputs":[{"name":"owner","type":"address","internalType":"address"},{"name":"spender","type":"address","internalType":"address"},{"name":"value","type":"uint256","internalType":"uint256"},{"name":"deadline","type":"uint256","internalType":"uint256"},{"name":"v","type":"uint8","internalType":"uint8"},{"name":"r","type":"bytes32","internalType":"bytes32"},{"name":"s","type":"bytes32","internalType":"bytes32"}],"outputs":[],"stateMutability":"nonpayable"},{"type":"function","name":"proxiableUUID","inputs":[],"outputs":[{"name":"","type":"bytes32","internalType":"bytes32"}],"stateMutability":"view"},{"type":"function","name":"renounceRole","inputs":[{"name":"role","type":"bytes32","internalType":"bytes32"},{"name":"callerConfirmation","type":"address","internalType":"address"}],"outputs":[],"stateMutability":"nonpayable"},{"type":"function","name":"revokeRole","inputs":[{"name":"role","type":"bytes32","internalType":"bytes32"},{"name":"account","type":"address","internalType":"address"}],"outputs":[],"stateMutability":"nonpayable"},{"type":"function","name":"supportsInterface","inputs":[{"name":"interfaceId","type":"bytes4","internalType":"bytes4"}],"outputs":[{"name":"","type":"bool","internalType":"bool"}],"stateMutability":"view"},{"type":"function","name":"symbol","inputs":[],"outputs":[{"name":"","type":"string","internalType":"string"}],"stateMutability":"pure"},{"type":"function","name":"totalSupply","inputs":[],"outputs":[{"name":"","type":"uint256","internalType":"uint256"}],"stateMutability":"view"},{"type":"function","name":"transfer","inputs":[{"name":"to","type":"address","internalType":"address"},{"name":"value","type":"uint256","internalType":"uint256"}],"outputs":[{"name":"","type":"bool","internalType":"bool"}],"stateMutability":"nonpayable"},{"type":"function","name":"transferFrom","inputs":[{"name":"from","type":"address","internalType":"address"},{"name":"to","type":"address","internalType":"address"},{"name":"value","type":"uint256","internalType":"uint256"}],"outputs":[{"name":"","type":"bool","internalType":"bool"}],"stateMutability":"nonpayable"},{"type":"function","name":"unBlacklist","inputs":[{"name":"account","type":"address","internalType":"address"}],"outputs":[],"stateMutability":"nonpayable"},{"type":"function","name":"unpause","inputs":[],"outputs":[],"stateMutability":"nonpayable"},{"type":"function","name":"upgradeToAndCall","inputs":[{"name":"newImplementation","type":"address","internalType":"address"},{"name":"data","type":"bytes","internalType":"bytes"}],"outputs":[],"stateMutability":"payable"},{"type":"event","name":"Approval","inputs":[{"name":"owner","type":"address","indexed":true,"internalType":"address"},{"name":"spender","type":"address","indexed":true,"internalType":"address"},{"name":"value","type":"uint256","indexed":false,"internalType":"uint256"}],"anonymous":false},{"type":"event","name":"Blacklisted","inputs":[{"name":"account","type":"address","indexed":true,"internalType":"address"}],"anonymous":false},{"type":"event","name":"BurnWithReference","inputs":[{"name":"from","type":"address","indexed":true,"internalType":"address"},{"name":"amount","type":"uint256","indexed":false,"internalType":"uint256"},{"name":"referenceCode","type":"string","indexed":false,"internalType":"string"}],"anonymous":false},{"type":"event","name":"EIP712DomainChanged","inputs":[],"anonymous":false},{"type":"event","name":"Initialized","inputs":[{"name":"version","type":"uint64","indexed":false,"internalType":"uint64"}],"anonymous":false},{"type":"event","name":"Mint","inputs":[{"name":"to","type":"address","indexed":true,"internalType":"address"},{"name":"amount","type":"uint256","indexed":false,"internalType":"uint256"},{"name":"referenceCode","type":"string","indexed":false,"internalType":"string"}],"anonymous":false},{"type":"event","name":"Paused","inputs":[{"name":"account","type":"address","indexed":false,"internalType":"address"}],"anonymous":false},{"type":"event","name":"RoleAdminChanged","inputs":[{"name":"role","type":"bytes32","indexed":true,"internalType":"bytes32"},{"name":"previousAdminRole","type":"bytes32","indexed":true,"internalType":"bytes32"},{"name":"newAdminRole","type":"bytes32","indexed":true,"internalType":"bytes32"}],"anonymous":false},{"type":"event","name":"RoleGranted","inputs":[{"name":"role","type":"bytes32","indexed":true,"internalType":"bytes32"},{"name":"account","type":"address","indexed":true,"internalType":"address"},{"name":"sender","type":"address","indexed":true,"internalType":"address"}],"anonymous":false},{"type":"event","name":"RoleRevoked","inputs":[{"name":"role","type":"bytes32","indexed":true,"internalType":"bytes32"},{"name":"account","type":"address","indexed":true,"internalType":"address"},{"name":"sender","type":"address","indexed":true,"internalType":"address"}],"anonymous":false},{"type":"event","name":"Transfer","inputs":[{"name":"from","type":"address","indexed":true,"internalType":"address"},{"name":"to","type":"address","indexed":true,"internalType":"address"},{"name":"value","type":"uint256","indexed":false,"internalType":"uint256"}],"anonymous":false},{"type":"event","name":"UnBlacklisted","inputs":[{"name":"account","type":"address","indexed":true,"internalType":"address"}],"anonymous":false},{"type":"event","name":"Unpaused","inputs":[{"name":"account","type":"address","indexed":false,"internalType":"address"}],"anonymous":false},{"type":"event","name":"Upgraded","inputs":[{"name":"implementation","type":"address","indexed":true,"internalType":"address"}],"anonymous":false},{"type":"error","name":"AccessControlBadConfirmation","inputs":[]},{"type":"error","name":"AccessControlUnauthorizedAccount","inputs":[{"name":"account","type":"address","internalType":"address"},{"name":"neededRole","type":"bytes32","internalType":"bytes32"}]},{"type":"error","name":"AccountBlacklisted","inputs":[{"name":"account","type":"address","internalType":"address"}]},{"type":"error","name":"AddressEmptyCode","inputs":[{"name":"target","type":"address","internalType":"address"}]},{"type":"error","name":"ECDSAInvalidSignature","inputs":[]},{"type":"error","name":"ECDSAInvalidSignatureLength","inputs":[{"name":"length","type":"uint256","internalType":"uint256"}]},{"type":"error","name":"ECDSAInvalidSignatureS","inputs":[{"name":"s","type":"bytes32","internalType":"bytes32"}]},{"type":"error","name":"ERC1967InvalidImplementation","inputs":[{"name":"implementation","type":"address","internalType":"address"}]},{"type":"error","name":"ERC1967NonPayable","inputs":[]},{"type":"error","name":"ERC20InsufficientAllowance","inputs":[{"name":"spender","type":"address","internalType":"address"},{"name":"allowance","type":"uint256","internalType":"uint256"},{"name":"needed","type":"uint256","internalType":"uint256"}]},{"type":"error","name":"ERC20InsufficientBalance","inputs":[{"name":"sender","type":"address","internalType":"address"},{"name":"balance","type":"uint256","internalType":"uint256"},{"name":"needed","type":"uint256","internalType":"uint256"}]},{"type":"error","name":"ERC20InvalidApprover","inputs":[{"name":"approver","type":"address","internalType":"address"}]},{"type":"error","name":"ERC20InvalidReceiver","inputs":[{"name":"receiver","type":"address","internalType":"address"}]},{"type":"error","name":"ERC20InvalidSender","inputs":[{"name":"sender","type":"address","internalType":"address"}]},{"type":"error","name":"ERC20InvalidSpender","inputs":[{"name":"spender","type":"address","internalType":"address"}]},{"type":"error","name":"ERC2612ExpiredSignature","inputs":[{"name":"deadline","type":"uint256","internalType":"uint256"}]},{"type":"error","name":"ERC2612InvalidSigner","inputs":[{"name":"signer","type":"address","internalType":"address"},{"name":"owner","type":"address","internalType":"address"}]},{"type":"error","name":"EnforcedPause","inputs":[]},{"type":"error","name":"ExpectedPause","inputs":[]},{"type":"error","name":"FailedCall","inputs":[]},{"type":"error","name":"InvalidAccountNonce","inputs":[{"name":"account","type":"address","internalType":"address"},{"name":"currentNonce","type":"uint256","internalType":"uint256"}]},{"type":"error","name":"InvalidInitialization","inputs":[]},{"type":"error","name":"InvalidShortString","inputs":[]},{"type":"error","name":"NotInitializing","inputs":[]},{"type":"error","name":"StringTooLong","inputs":[{"name":"str","type":"string","internalType":"string"}]},{"type":"error","name":"SupplyCapExceeded","inputs":[]},{"type":"error","name":"UUPSUnauthorizedCallContext","inputs":[]},{"type":"error","name":"UUPSUnsupportedProxiableUUID","inputs":[{"name":"slot","type":"bytes32","internalType":"bytes32"}]},{"type":"error","name":"ZeroAddress","inputs":[]},{"type":"error","name":"ZeroAmount","inputs":[]}],"bytecode":{"object":"0x610180604052346104e5576040516100186040826104e9565b600f8152602081016e566965746e616d65736520446f6e6760881b8152604051906100446040836104e9565b600f82526e566965746e616d65736520446f6e6760881b60208301526040519261006f6040856104e9565b600384526215939160ea1b60208501526040519361008e6040866104e9565b60018552603160f81b60208601908152845190946001600160401b0382116103e85760035490600182811c921680156104db575b60208310146103ca5781601f84931161046d575b50602090601f8311600114610407575f926103fc575b50508160011b915f199060031b1c1916176003555b8051906001600160401b0382116103e85760045490600182811c921680156103de575b60208310146103ca5781601f84931161035c575b50602090601f83116001146102f6575f926102eb575b50508160011b915f199060031b1c1916176004555b61016c8161050c565b6101205261017984610693565b61014052519020918260e05251902080610100524660a0526040519060208201927f8b73c3c69bb8fe3d512ecc4cf759cc79239f7b179b0ffacaa9a75d522b39400f8452604083015260608201524660808201523060a082015260a081526101e260c0826104e9565b5190206080523060c05230610160525f51602061284c5f395f51905f525460ff8160401c166102dc576002600160401b03196001600160401b03821601610286575b60405161208090816107cc823960805181611a7f015260a05181611b3c015260c05181611a49015260e05181611ace01526101005181611af401526101205181610785015261014051816107ae0152610160518181816109cb0152610aa70152f35b6001600160401b0319166001600160401b039081175f51602061284c5f395f51905f52556040519081527fc7f505b2f371ae2175ee4913f4499e1f2633a7b5936321eed1cdaeb6115181d290602090a15f610224565b63f92ee8a960e01b5f5260045ffd5b015190505f8061014e565b60045f9081528281209350601f198516905b818110610344575090846001959493921061032c575b505050811b01600455610163565b01515f1960f88460031b161c191690555f808061031e565b92936020600181928786015181550195019301610308565b60045f529091507f8a35acfbc15ff81a39ae7d344fd709f28e8600b4aa8c65c6b64bfe7fe36bd19b601f840160051c810191602085106103c0575b90601f859493920160051c01905b8181106103b25750610138565b5f81558493506001016103a5565b9091508190610397565b634e487b7160e01b5f52602260045260245ffd5b91607f1691610124565b634e487b7160e01b5f52604160045260245ffd5b015190505f806100ec565b60035f9081528281209350601f198516905b818110610455575090846001959493921061043d575b505050811b01600355610101565b01515f1960f88460031b161c191690555f808061042f565b92936020600181928786015181550195019301610419565b60035f529091507fc2575a0e9e593c00f959f8c92f12db2869c3395a3b0502d05e2516446f71f85b601f840160051c810191602085106104d1575b90601f859493920160051c01905b8181106104c357506100d6565b5f81558493506001016104b6565b90915081906104a8565b91607f16916100c2565b5f80fd5b601f909101601f19168101906001600160401b038211908210176103e857604052565b908151602081105f14610586575090601f815111610546576020815191015160208210610537571790565b5f198260200360031b1b161790565b604460209160405192839163305a27a960e01b83528160048401528051918291826024860152018484015e5f828201840152601f01601f19168101030190fd5b6001600160401b0381116103e857600554600181811c91168015610689575b60208210146103ca57601f8111610656575b50602092601f82116001146105f557928192935f926105ea575b50508160011b915f199060031b1c19161760055560ff90565b015190505f806105d1565b601f1982169360055f52805f20915f5b86811061063e5750836001959610610626575b505050811b0160055560ff90565b01515f1960f88460031b161c191690555f8080610618565b91926020600181928685015181550194019201610605565b60055f52601f60205f20910160051c810190601f830160051c015b81811061067e57506105b7565b5f8155600101610671565b90607f16906105a5565b908151602081105f146106be575090601f815111610546576020815191015160208210610537571790565b6001600160401b0381116103e857600654600181811c911680156107c1575b60208210146103ca57601f811161078e575b50602092601f821160011461072d57928192935f92610722575b50508160011b915f199060031b1c19161760065560ff90565b015190505f80610709565b601f1982169360065f52805f20915f5b868110610776575083600195961061075e575b505050811b0160065560ff90565b01515f1960f88460031b161c191690555f8080610750565b9192602060018192868501518155019401920161073d565b60065f52601f60205f20910160051c810190601f830160051c015b8181106107b657506106ef565b5f81556001016107a9565b90607f16906106dd56fe6080806040526004361015610012575f80fd5b5f3560e01c90816301ffc9a71461115f5750806306fdde031461110e578063095ea7b3146110e857806311cdfd811461107157806318160ddd146110545780631a89526614610fea57806321204b5514610f6957806323b872dd14610f31578063248a9ca314610f065780632f2ff15d14610ec8578063313ce567146106c557806332cb6b0c14610ea85780633644e51514610e8657806336568abe14610e4257806338bf609f14610dd45780633f4ba83a14610d6e57806340c10f1914610cb957806342966c6814610c9c5780634f1ef28614610a1f57806352d1902d146109b95780635c975abb1461099757806370a082311461096057806375b238fc1461092657806379cc6790146108f65780637ecebe00146108be5780638456cb591461086557806384b0196e1461076d57806391d148541461072457806395d89b41146106df578063a217fddf146106c5578063a9059cbb14610694578063ad3cb1cc14610649578063c4d66de8146104dd578063d505accf1461039a578063d539139314610360578063d547741f1461031b578063dd62ed3e146102cb578063f72c0d8b14610291578063f9f92be4146102155763fe575a87146101d4575f80fd5b34610211576020366003190112610211576001600160a01b036101f56111d6565b165f52600a602052602060ff60405f2054166040519015158152f35b5f80fd5b346102115760203660031901126102115761022e6111d6565b6102366113ac565b6001600160a01b0316801561028257805f52600a60205260405f20600160ff198254161790557fffa4e6181777692565cf28528fc88fd1516ea86b56da075235fa575af6a4b8555f80a2005b63d92e233d60e01b5f5260045ffd5b34610211575f3660031901126102115760206040517f189ab7a9244df0848122154315af71fe140f3db0fe014031783b0946b8c9d2e38152f35b34610211576040366003190112610211576102e46111d6565b6102ec6111ec565b6001600160a01b039182165f908152600160209081526040808320949093168252928352819020549051908152f35b346102115760403660031901126102115761035e60043561033a6111ec565b90610359610354825f526008602052600160405f20015490565b61148a565b611b62565b005b34610211575f3660031901126102115760206040517f9f2df0fed2c77648de5860a4cc508cd0818c85b8b8a1ab4ceeef8d981c8956a68152f35b346102115760e0366003190112610211576103b36111d6565b6103bb6111ec565b604435906064359260843560ff81168103610211578442116104ca5761048f6104989160018060a01b03841696875f52600760205260405f20908154916001830190556040519060208201927f6e71edae12b1b97f4d1f60370fef10105fa2faae0126114a169c64845d6126c984528a604084015260018060a01b038916606084015289608084015260a083015260c082015260c0815261045d60e082611277565b519020610468611a46565b906040519161190160f01b83526002830152602282015260c43591604260a4359220611e5d565b90929192611eea565b6001600160a01b03168481036104b3575061035e9350611be6565b84906325c0072360e11b5f5260045260245260445ffd5b8463313c898160e11b5f5260045260245ffd5b34610211576020366003190112610211576104f66111d6565b5f51602061202b5f395f51905f52549060ff8260401c16159167ffffffffffffffff811680159081610641575b6001149081610637575b15908161062e575b5061061f5767ffffffffffffffff1981166001175f51602061202b5f395f51905f5255826105f3575b506001600160a01b03811615610282578061057b61059592611706565b50610585816117a2565b5061058f8161185b565b50611914565b5061059c57005b68ff0000000000000000195f51602061202b5f395f51905f5254165f51602061202b5f395f51905f52557fc7f505b2f371ae2175ee4913f4499e1f2633a7b5936321eed1cdaeb6115181d2602060405160018152a1005b68ffffffffffffffffff191668010000000000000001175f51602061202b5f395f51905f52558261055e565b63f92ee8a960e01b5f5260045ffd5b90501584610535565b303b15915061052d565b849150610523565b34610211575f3660031901126102115761069060405161066a604082611277565b60058152640352e302e360dc1b60208201526040519182916020835260208301906111b2565b0390f35b34610211576040366003190112610211576106ba6106b06111d6565b602435903361162c565b602060405160018152f35b34610211575f3660031901126102115760206040515f8152f35b34610211575f36600319011261021157610690604051610700604082611277565b600381526215939160ea1b60208201526040519182916020835260208301906111b2565b346102115760403660031901126102115761073d6111ec565b6004355f52600860205260405f209060018060a01b03165f52602052602060ff60405f2054166040519015158152f35b34610211575f366003190112610211576108096107a97f0000000000000000000000000000000000000000000000000000000000000000611c64565b6107d27f0000000000000000000000000000000000000000000000000000000000000000611d8d565b6020610817604051926107e58385611277565b5f84525f368137604051958695600f60f81b875260e08588015260e08701906111b2565b9085820360408701526111b2565b4660608501523060808501525f60a085015283810360c08501528180845192838152019301915f5b82811061084e57505050500390f35b83518552869550938101939281019260010161083f565b34610211575f3660031901126102115761087d6113ac565b610885611c49565b600160ff1960095416176009557f62e78cea01bee320cd4e420270b5ea74000d11b0c9f74754ebdbfc544b05a2586020604051338152a1005b34610211576020366003190112610211576001600160a01b036108df6111d6565b165f526007602052602060405f2054604051908152f35b346102115760403660031901126102115761035e6109126111d6565b60243590610921823383611563565b6112e7565b34610211575f3660031901126102115760206040517fa49807205ce4d355092ef5a8a18f56e8913cf4a201fbe287825b095693c217758152f35b34610211576020366003190112610211576001600160a01b036109816111d6565b165f525f602052602060405f2054604051908152f35b34610211575f36600319011261021157602060ff600954166040519015158152f35b34610211575f366003190112610211577f00000000000000000000000000000000000000000000000000000000000000006001600160a01b03163003610a105760206040515f51602061200b5f395f51905f528152f35b63703e46dd60e11b5f5260045ffd5b604036600319011261021157610a336111d6565b6024359067ffffffffffffffff8211610211573660238301121561021157816004013567ffffffffffffffff8111610c885760405192610a7d601f8301601f191660200185611277565b818452366024838301011161021157815f9260246020930183870137840101526001600160a01b037f000000000000000000000000000000000000000000000000000000000000000016308114908115610c66575b50610a1057335f9081527f159748355c32b995f1a71c6fec0a71a1995ae96a78ce21f4e23f6ada1cbed7d6602052604090205460ff1615610c2f576040516352d1902d60e01b81526001600160a01b0382169290602081600481875afa5f9181610bfb575b50610b4f5783634c9c8ce360e01b5f5260045260245ffd5b805f51602061200b5f395f51905f52859203610be95750823b15610bd7575f51602061200b5f395f51905f5280546001600160a01b031916821790557fbc7cd75a20ee27fd9adebab32041f755214dbc6bffa90cc0225b39da2e5c2d3b5f80a2805115610bbf5761035e91611f5e565b505034610bc857005b63b398979f60e01b5f5260045ffd5b634c9c8ce360e01b5f5260045260245ffd5b632a87526960e21b5f5260045260245ffd5b9091506020813d602011610c27575b81610c1760209383611277565b8101031261021157519085610b37565b3d9150610c0a565b63e2517d3f60e01b5f52336004527f189ab7a9244df0848122154315af71fe140f3db0fe014031783b0946b8c9d2e360245260445ffd5b5f51602061200b5f395f51905f52546001600160a01b03161415905083610ad2565b634e487b7160e01b5f52604160045260245ffd5b346102115760203660031901126102115761035e600435336112e7565b3461021157604036600319011261021157610cd26111d6565b602435610cdd61141b565b6001600160a01b038216918215610282578115610d5f57655af3107a4000610d07836002546112c6565b11610d505781610d3a7f85a66b9141978db9980f7e0ce3b468cebf4f7999f32b23091c5c03e798b1ba7a936060936114c4565b604051908152604060208201525f6040820152a2005b637ac7b99d60e11b5f5260045ffd5b631f2a200560e01b5f5260045ffd5b34610211575f36600319011261021157610d866113ac565b60095460ff811615610dc55760ff19166009557f5db9ee0a495bf2e6ff9c91a7834c1ba4fdd244a5e8aa4e537bd38aeae4b073aa6020604051338152a1005b638dfc202b60e01b5f5260045ffd5b3461021157610de236611230565b91928315610d5f57610e3d7f32c525ea3fa01bd5ac1965a21c349518ab7574a5465fa04d5622148201596b2793610e1a863385611563565b610e2486846112e7565b6040516001600160a01b03909316959293849384611299565b0390a2005b3461021157604036600319011261021157610e5b6111ec565b336001600160a01b03821603610e775761035e90600435611b62565b63334bd91960e11b5f5260045ffd5b34610211575f366003190112610211576020610ea0611a46565b604051908152f35b34610211575f366003190112610211576020604051655af3107a40008152f35b346102115760403660031901126102115761035e600435610ee76111ec565b90610f01610354825f526008602052600160405f20015490565b6119cd565b34610211576020366003190112610211576020610ea06004355f526008602052600160405f20015490565b34610211576060366003190112610211576106ba610f4d6111d6565b610f556111ec565b60443591610f64833383611563565b61162c565b3461021157610f7736611230565b91610f8061141b565b6001600160a01b038416938415610282578115610d5f57655af3107a4000610faa836002546112c6565b11610d50577f85a66b9141978db9980f7e0ce3b468cebf4f7999f32b23091c5c03e798b1ba7a93610fde83610e3d936114c4565b60405193849384611299565b34610211576020366003190112610211576110036111d6565b61100b6113ac565b6001600160a01b0316801561028257805f52600a60205260405f2060ff1981541690557f117e3210bb9aa7d9baff172026820255c6f6c30ba8999d1c2fd88e2848137c4e5f80a2005b34610211575f366003190112610211576020600254604051908152f35b346102115760403660031901126102115760043560243567ffffffffffffffff8111610211576110a5903690600401611202565b8215610d5f577f32c525ea3fa01bd5ac1965a21c349518ab7574a5465fa04d5622148201596b27916110d784336112e7565b610e3d604051928392339684611299565b34610211576040366003190112610211576106ba6111046111d6565b6024359033611be6565b34610211575f3660031901126102115761069060405161112f604082611277565b600f81526e566965746e616d65736520446f6e6760881b60208201526040519182916020835260208301906111b2565b34610211576020366003190112610211576004359063ffffffff60e01b821680920361021157602091637965db0b60e01b81149081156111a1575b5015158152f35b6301ffc9a760e01b1490508361119a565b805180835260209291819084018484015e5f828201840152601f01601f1916010190565b600435906001600160a01b038216820361021157565b602435906001600160a01b038216820361021157565b9181601f840112156102115782359167ffffffffffffffff8311610211576020838186019501011161021157565b6060600319820112610211576004356001600160a01b03811681036102115791602435916044359067ffffffffffffffff82116102115761127391600401611202565b9091565b90601f8019910116810190811067ffffffffffffffff821117610c8857604052565b91926060938192845260406020850152816040850152848401375f828201840152601f01601f1916010190565b919082018092116112d357565b634e487b7160e01b5f52601160045260245ffd5b9091906001600160a01b0316801561139957611301611c49565b805f52600a60205260ff60405f20541661138757805f525f60205260405f205483811061136d576020845f94957fddf252ad1be2c89b69c2b068fc378daa952ba7f163c4a11628f55a4df523b3ef938587528684520360408620558060025403600255604051908152a3565b915063391434e360e21b5f5260045260245260445260645ffd5b63571f7b4960e01b5f5260045260245ffd5b634b637e8f60e11b5f525f60045260245ffd5b335f9081527f17d1276acf776df712513cd7e943076446ad62eef46fc257e0602ed40109c3c6602052604090205460ff16156113e457565b63e2517d3f60e01b5f52336004527fa49807205ce4d355092ef5a8a18f56e8913cf4a201fbe287825b095693c2177560245260445ffd5b335f9081527f51a495916474fe1a0c0fcfb65a8a97682b84a054118858cdd1f5dfd7fc0919eb602052604090205460ff161561145357565b63e2517d3f60e01b5f52336004527f9f2df0fed2c77648de5860a4cc508cd0818c85b8b8a1ab4ceeef8d981c8956a660245260445ffd5b5f81815260086020908152604080832033845290915290205460ff16156114ae5750565b63e2517d3f60e01b5f523360045260245260445ffd5b6001600160a01b0316908115611550576114dc611c49565b815f52600a60205260ff60405f20541661153d577fddf252ad1be2c89b69c2b068fc378daa952ba7f163c4a11628f55a4df523b3ef6020826115215f946002546112c6565b60025584845283825260408420818154019055604051908152a3565b5063571f7b4960e01b5f5260045260245ffd5b63ec442f0560e01b5f525f60045260245ffd5b6001600160a01b039081165f818152600160209081526040808320948616835293905291909120549291905f19841061159d575b50505050565b8284106116095780156115f6576001600160a01b038216156115e3575f52600160205260405f209060018060a01b03165f5260205260405f20910390555f808080611597565b634a1406b160e11b5f525f60045260245ffd5b63e602df0560e01b5f525f60045260245ffd5b508290637dc7a0d960e11b5f5260018060a01b031660045260245260445260645ffd5b6001600160a01b0316908115611399576001600160a01b031691821561155057611654611c49565b815f52600a60205260ff60405f20541661153d57825f52600a60205260ff60405f2054166116f357815f525f60205260405f20548181106116da57817fddf252ad1be2c89b69c2b068fc378daa952ba7f163c4a11628f55a4df523b3ef92602092855f525f84520360405f2055845f525f825260405f20818154019055604051908152a3565b8263391434e360e21b5f5260045260245260445260645ffd5b8263571f7b4960e01b5f5260045260245ffd5b6001600160a01b0381165f9081527f5eff886ea0ce6ca488a3d6e336d6c0f75f46d19b42c06ce5ee98e42c96d256c7602052604090205460ff1661179d576001600160a01b03165f8181527f5eff886ea0ce6ca488a3d6e336d6c0f75f46d19b42c06ce5ee98e42c96d256c760205260408120805460ff191660011790553391905f516020611feb5f395f51905f528180a4600190565b505f90565b6001600160a01b0381165f9081527f17d1276acf776df712513cd7e943076446ad62eef46fc257e0602ed40109c3c6602052604090205460ff1661179d576001600160a01b03165f8181527f17d1276acf776df712513cd7e943076446ad62eef46fc257e0602ed40109c3c660205260408120805460ff191660011790553391907fa49807205ce4d355092ef5a8a18f56e8913cf4a201fbe287825b095693c21775905f516020611feb5f395f51905f529080a4600190565b6001600160a01b0381165f9081527f51a495916474fe1a0c0fcfb65a8a97682b84a054118858cdd1f5dfd7fc0919eb602052604090205460ff1661179d576001600160a01b03165f8181527f51a495916474fe1a0c0fcfb65a8a97682b84a054118858cdd1f5dfd7fc0919eb60205260408120805460ff191660011790553391907f9f2df0fed2c77648de5860a4cc508cd0818c85b8b8a1ab4ceeef8d981c8956a6905f516020611feb5f395f51905f529080a4600190565b6001600160a01b0381165f9081527f159748355c32b995f1a71c6fec0a71a1995ae96a78ce21f4e23f6ada1cbed7d6602052604090205460ff1661179d576001600160a01b03165f8181527f159748355c32b995f1a71c6fec0a71a1995ae96a78ce21f4e23f6ada1cbed7d660205260408120805460ff191660011790553391907f189ab7a9244df0848122154315af71fe140f3db0fe014031783b0946b8c9d2e3905f516020611feb5f395f51905f529080a4600190565b5f8181526008602090815260408083206001600160a01b038616845290915290205460ff16611a40575f8181526008602090815260408083206001600160a01b0395909516808452949091528120805460ff19166001179055339291905f516020611feb5f395f51905f529080a4600190565b50505f90565b307f00000000000000000000000000000000000000000000000000000000000000006001600160a01b03161480611b39575b15611aa1577f000000000000000000000000000000000000000000000000000000000000000090565b60405160208101907f8b73c3c69bb8fe3d512ecc4cf759cc79239f7b179b0ffacaa9a75d522b39400f82527f000000000000000000000000000000000000000000000000000000000000000060408201527f000000000000000000000000000000000000000000000000000000000000000060608201524660808201523060a082015260a08152611b3360c082611277565b51902090565b507f00000000000000000000000000000000000000000000000000000000000000004614611a78565b5f8181526008602090815260408083206001600160a01b038616845290915290205460ff1615611a40575f8181526008602090815260408083206001600160a01b0395909516808452949091528120805460ff19169055339291907ff6391f5c32d9c69d2a47ea670b442974b53935d1edc7fd64eb21e047a839171b9080a4600190565b6001600160a01b03169081156115f6576001600160a01b03169182156115e35760207f8c5be1e5ebec7d5bd14f71427d1e84f3dd0314c0f7b2291e5b200ac8c7c3b92591835f526001825260405f20855f5282528060405f2055604051908152a3565b60ff60095416611c5557565b63d93c066560e01b5f5260045ffd5b60ff8114611caa5760ff811690601f8211611c9b5760405191611c88604084611277565b6020808452838101919036833783525290565b632cd44ac360e21b5f5260045ffd5b506040515f6005548060011c9160018216918215611d83575b602084108314611d6f578385528492908115611d505750600114611cf1575b611cee92500382611277565b90565b5060055f90815290917f036b6384b5eca791c62761152d0c79bb0604c104a5fb6f4eb0703f3154bb3db05b818310611d34575050906020611cee92820101611ce2565b6020919350806001915483858801015201910190918392611d1c565b60209250611cee94915060ff191682840152151560051b820101611ce2565b634e487b7160e01b5f52602260045260245ffd5b92607f1692611cc3565b60ff8114611db15760ff811690601f8211611c9b5760405191611c88604084611277565b506040515f6006548060011c9160018216918215611e53575b602084108314611d6f578385528492908115611d505750600114611df457611cee92500382611277565b5060065f90815290917ff652222313e28459528d920b65115c16c04f3efc82aaedc97be59f3f377c0d3f5b818310611e37575050906020611cee92820101611ce2565b6020919350806001915483858801015201910190918392611e1f565b92607f1692611dca565b91907f7fffffffffffffffffffffffffffffff5d576e7357a4501ddfe92f46681b20a08411611edf579160209360809260ff5f9560405194855216868401526040830152606082015282805260015afa15611ed4575f516001600160a01b03811615611eca57905f905f90565b505f906001905f90565b6040513d5f823e3d90fd5b5050505f9160039190565b6004811015611f4a5780611efc575050565b60018103611f135763f645eedf60e01b5f5260045ffd5b60028103611f2e575063fce698f760e01b5f5260045260245ffd5b600314611f385750565b6335e2f38360e21b5f5260045260245ffd5b634e487b7160e01b5f52602160045260245ffd5b905f8091602081519101845af48080611fd7575b15611f925750506040513d81523d5f602083013e60203d82010160405290565b15611fb757639996b31560e01b5f9081526001600160a01b0391909116600452602490fd5b3d15611fc8576040513d5f823e3d90fd5b63d6bda27560e01b5f5260045ffd5b503d151580611f725750813b1515611f7256fe2f8788117e7eff1d82e926ec794901d17c78024a50270940304540a733656f0d360894a13ba1a3210667c828492db98dca3e2076cc3735a920a3ca505d382bbcf0c57e16840df040f15088dc2f81fe391c3923bec73e23a9662efc9c229c6a00a2646970667358221220e80c5d2fef0df4921b83ae217bc21485bf7492fc83be6c37105033e0625b38fc64736f6c634300081c0033f0c57e16840df040f15088dc2f81fe391c3923bec73e23a9662efc9c229c6a00","linkReferences":{}},"methodIdentifiers":{"ADMIN_ROLE()":"75b238fc","DEFAULT_ADMIN_ROLE()":"a217fddf","DOMAIN_SEPARATOR()":"3644e515","MAX_SUPPLY()":"32cb6b0c","MINTER_ROLE()":"d5391393","UPGRADER_ROLE()":"f72c0d8b","UPGRADE_INTERFACE_VERSION()":"ad3cb1cc","allowance(address,address)":"dd62ed3e","approve(address,uint256)":"095ea7b3","balanceOf(address)":"70a08231","blacklist(address)":"f9f92be4","burn(uint256)":"42966c68","burnFrom(address,uint256)":"79cc6790","burnFromWithReference(address,uint256,string)":"38bf609f","burnWithReference(uint256,string)":"11cdfd81","decimals()":"313ce567","eip712Domain()":"84b0196e","getRoleAdmin(bytes32)":"248a9ca3","grantRole(bytes32,address)":"2f2ff15d","hasRole(bytes32,address)":"91d14854","initialize(address)":"c4d66de8","isBlacklisted(address)":"fe575a87","mint(address,uint256)":"40c10f19","mintWithReference(address,uint256,string)":"21204b55","name()":"06fdde03","nonces(address)":"7ecebe00","pause()":"8456cb59","paused()":"5c975abb","permit(address,address,uint256,uint256,uint8,bytes32,bytes32)":"d505accf","proxiableUUID()":"52d1902d","renounceRole(bytes32,address)":"36568abe","revokeRole(bytes32,address)":"d547741f","supportsInterface(bytes4)":"01ffc9a7","symbol()":"95d89b41","totalSupply()":"18160ddd","transfer(address,uint256)":"a9059cbb","transferFrom(address,address,uint256)":"23b872dd","unBlacklist(address)":"1a895266","unpause()":"3f4ba83a","upgradeToAndCall(address,bytes)":"4f1ef286"},"id":95}