{"abi":[{"type":"constructor","inputs":[{"name":"anEntryPoint","type":"address","internalType":"contract IEntryPoint"}],"stateMutability":"nonpayable"},{"type":"receive","stateMutability":"payable"},{"type":"function","name":"UPGRADE_INTERFACE_VERSION","inputs":[],"outputs":[{"name":"","type":"string","internalType":"string"}],"stateMutability":"view"},{"type":"function","name":"addSessionKey","inputs":[{"name":"key","type":"address","internalType":"address"},{"name":"validAfter","type":"uint48","internalType":"uint48"},{"name":"validUntil","type":"uint48","internalType":"uint48"},{"name":"permissions","type":"tuple","internalType":"struct RampOSAccount.SessionKeyPermissions","components":[{"name":"allowedTargets","type":"address[]","internalType":"address[]"},{"name":"allowedSelectors","type":"bytes4[]","internalType":"bytes4[]"},{"name":"spendingLimit","type":"uint256","internalType":"uint256"},{"name":"dailyLimit","type":"uint256","internalType":"uint256"}]}],"outputs":[],"stateMutability":"nonpayable"},{"type":"function","name":"addSessionKeyLegacy","inputs":[{"name":"key","type":"address","internalType":"address"},{"name":"validAfter","type":"uint48","internalType":"uint48"},{"name":"validUntil","type":"uint48","internalType":"uint48"},{"name":"permissionsHash","type":"bytes32","internalType":"bytes32"}],"outputs":[],"stateMutability":"nonpayable"},{"type":"function","name":"entryPoint","inputs":[],"outputs":[{"name":"","type":"address","internalType":"contract IEntryPoint"}],"stateMutability":"view"},{"type":"function","name":"execute","inputs":[{"name":"dest","type":"address","internalType":"address"},{"name":"value","type":"uint256","internalType":"uint256"},{"name":"data","type":"bytes","internalType":"bytes"}],"outputs":[],"stateMutability":"nonpayable"},{"type":"function","name":"executeBatch","inputs":[{"name":"calls","type":"tuple[]","internalType":"struct BaseAccount.Call[]","components":[{"name":"target","type":"address","internalType":"address"},{"name":"value","type":"uint256","internalType":"uint256"},{"name":"data","type":"bytes","internalType":"bytes"}]}],"outputs":[],"stateMutability":"nonpayable"},{"type":"function","name":"executeBatch","inputs":[{"name":"dests","type":"address[]","internalType":"address[]"},{"name":"values","type":"uint256[]","internalType":"uint256[]"},{"name":"datas","type":"bytes[]","internalType":"bytes[]"}],"outputs":[],"stateMutability":"nonpayable"},{"type":"function","name":"getNonce","inputs":[],"outputs":[{"name":"","type":"uint256","internalType":"uint256"}],"stateMutability":"view"},{"type":"function","name":"getSessionKeyPermissions","inputs":[{"name":"key","type":"address","internalType":"address"}],"outputs":[{"name":"permissions","type":"tuple","internalType":"struct RampOSAccount.SessionKeyPermissions","components":[{"name":"allowedTargets","type":"address[]","internalType":"address[]"},{"name":"allowedSelectors","type":"bytes4[]","internalType":"bytes4[]"},{"name":"spendingLimit","type":"uint256","internalType":"uint256"},{"name":"dailyLimit","type":"uint256","internalType":"uint256"}]}],"stateMutability":"view"},{"type":"function","name":"getSessionKeySpendingInfo","inputs":[{"name":"key","type":"address","internalType":"address"}],"outputs":[{"name":"dailySpent","type":"uint256","internalType":"uint256"},{"name":"dailyRemaining","type":"uint256","internalType":"uint256"},{"name":"spendingLimit","type":"uint256","internalType":"uint256"}],"stateMutability":"view"},{"type":"function","name":"initialize","inputs":[{"name":"anOwner","type":"address","internalType":"address"}],"outputs":[],"stateMutability":"nonpayable"},{"type":"function","name":"isSelectorAllowed","inputs":[{"name":"key","type":"address","internalType":"address"},{"name":"selector","type":"bytes4","internalType":"bytes4"}],"outputs":[{"name":"","type":"bool","internalType":"bool"}],"stateMutability":"view"},{"type":"function","name":"isTargetAllowed","inputs":[{"name":"key","type":"address","internalType":"address"},{"name":"target","type":"address","internalType":"address"}],"outputs":[{"name":"","type":"bool","internalType":"bool"}],"stateMutability":"view"},{"type":"function","name":"isValidSessionKey","inputs":[{"name":"key","type":"address","internalType":"address"}],"outputs":[{"name":"","type":"bool","internalType":"bool"}],"stateMutability":"view"},{"type":"function","name":"owner","inputs":[],"outputs":[{"name":"","type":"address","internalType":"address"}],"stateMutability":"view"},{"type":"function","name":"proxiableUUID","inputs":[],"outputs":[{"name":"","type":"bytes32","internalType":"bytes32"}],"stateMutability":"view"},{"type":"function","name":"removeSessionKey","inputs":[{"name":"key","type":"address","internalType":"address"}],"outputs":[],"stateMutability":"nonpayable"},{"type":"function","name":"sessionKeys","inputs":[{"name":"","type":"address","internalType":"address"}],"outputs":[{"name":"key","type":"address","internalType":"address"},{"name":"validAfter","type":"uint48","internalType":"uint48"},{"name":"validUntil","type":"uint48","internalType":"uint48"},{"name":"permissionsHash","type":"bytes32","internalType":"bytes32"}],"stateMutability":"view"},{"type":"function","name":"updateSessionKeyPermissions","inputs":[{"name":"key","type":"address","internalType":"address"},{"name":"permissions","type":"tuple","internalType":"struct RampOSAccount.SessionKeyPermissions","components":[{"name":"allowedTargets","type":"address[]","internalType":"address[]"},{"name":"allowedSelectors","type":"bytes4[]","internalType":"bytes4[]"},{"name":"spendingLimit","type":"uint256","internalType":"uint256"},{"name":"dailyLimit","type":"uint256","internalType":"uint256"}]}],"outputs":[],"stateMutability":"nonpayable"},{"type":"function","name":"upgradeToAndCall","inputs":[{"name":"newImplementation","type":"address","internalType":"address"},{"name":"data","type":"bytes","internalType":"bytes"}],"outputs":[],"stateMutability":"payable"},{"type":"function","name":"validateUserOp","inputs":[{"name":"userOp","type":"tuple","internalType":"struct PackedUserOperation","components":[{"name":"sender","type":"address","internalType":"address"},{"name":"nonce","type":"uint256","internalType":"uint256"},{"name":"initCode","type":"bytes","internalType":"bytes"},{"name":"callData","type":"bytes","internalType":"bytes"},{"name":"accountGasLimits","type":"bytes32","internalType":"bytes32"},{"name":"preVerificationGas","type":"uint256","internalType":"uint256"},{"name":"gasFees","type":"bytes32","internalType":"bytes32"},{"name":"paymasterAndData","type":"bytes","internalType":"bytes"},{"name":"signature","type":"bytes","internalType":"bytes"}]},{"name":"userOpHash","type":"bytes32","internalType":"bytes32"},{"name":"missingAccountFunds","type":"uint256","internalType":"uint256"}],"outputs":[{"name":"validationData","type":"uint256","internalType":"uint256"}],"stateMutability":"nonpayable"},{"type":"event","name":"AccountInitialized","inputs":[{"name":"owner","type":"address","indexed":true,"internalType":"address"}],"anonymous":false},{"type":"event","name":"DailyLimitReset","inputs":[{"name":"key","type":"address","indexed":true,"internalType":"address"},{"name":"day","type":"uint256","indexed":false,"internalType":"uint256"}],"anonymous":false},{"type":"event","name":"Initialized","inputs":[{"name":"version","type":"uint64","indexed":false,"internalType":"uint64"}],"anonymous":false},{"type":"event","name":"SessionKeyAdded","inputs":[{"name":"key","type":"address","indexed":true,"internalType":"address"},{"name":"validUntil","type":"uint48","indexed":false,"internalType":"uint48"}],"anonymous":false},{"type":"event","name":"SessionKeyPermissionsUpdated","inputs":[{"name":"key","type":"address","indexed":true,"internalType":"address"},{"name":"permissionsHash","type":"bytes32","indexed":false,"internalType":"bytes32"}],"anonymous":false},{"type":"event","name":"SessionKeyRemoved","inputs":[{"name":"key","type":"address","indexed":true,"internalType":"address"}],"anonymous":false},{"type":"event","name":"Upgraded","inputs":[{"name":"implementation","type":"address","indexed":true,"internalType":"address"}],"anonymous":false},{"type":"error","name":"AddressEmptyCode","inputs":[{"name":"target","type":"address","internalType":"address"}]},{"type":"error","name":"DailyLimitExceeded","inputs":[{"name":"requested","type":"uint256","internalType":"uint256"},{"name":"remaining","type":"uint256","internalType":"uint256"}]},{"type":"error","name":"ECDSAInvalidSignature","inputs":[]},{"type":"error","name":"ECDSAInvalidSignatureLength","inputs":[{"name":"length","type":"uint256","internalType":"uint256"}]},{"type":"error","name":"ECDSAInvalidSignatureS","inputs":[{"name":"s","type":"bytes32","internalType":"bytes32"}]},{"type":"error","name":"ERC1967InvalidImplementation","inputs":[{"name":"implementation","type":"address","internalType":"address"}]},{"type":"error","name":"ERC1967NonPayable","inputs":[]},{"type":"error","name":"ExecuteError","inputs":[{"name":"index","type":"uint256","internalType":"uint256"},{"name":"error","type":"bytes","internalType":"bytes"}]},{"type":"error","name":"FailedCall","inputs":[]},{"type":"error","name":"InvalidInitialization","inputs":[]},{"type":"error","name":"InvalidSessionKey","inputs":[]},{"type":"error","name":"NotFromEntryPoint","inputs":[{"name":"msgSender","type":"address","internalType":"address"},{"name":"entity","type":"address","internalType":"address"},{"name":"entryPoint","type":"address","internalType":"address"}]},{"type":"error","name":"NotInitializing","inputs":[]},{"type":"error","name":"NotOwner","inputs":[]},{"type":"error","name":"NotOwnerOrEntryPoint","inputs":[]},{"type":"error","name":"SelectorNotAllowed","inputs":[{"name":"selector","type":"bytes4","internalType":"bytes4"}]},{"type":"error","name":"SessionKeyExpired","inputs":[]},{"type":"error","name":"SpendingLimitExceeded","inputs":[{"name":"requested","type":"uint256","internalType":"uint256"},{"name":"limit","type":"uint256","internalType":"uint256"}]},{"type":"error","name":"TargetNotAllowed","inputs":[{"name":"target","type":"address","internalType":"address"}]},{"type":"error","name":"UUPSUnauthorizedCallContext","inputs":[]},{"type":"error","name":"UUPSUnsupportedProxiableUUID","inputs":[{"name":"slot","type":"bytes32","internalType":"bytes32"}]}],"bytecode":{"object":"0x60c03461012b57601f61254338819003918201601f19168301916001600160401b0383118484101761012f5780849260209460405283398101031261012b57516001600160a01b038116810361012b573060805260a0525f5160206125235f395f51905f525460ff8160401c1661011c576002600160401b03196001600160401b038216016100c6575b6040516123df9081610144823960805181818161059e01526106c6015260a051818181610d330152818161120501528181611abb0152611caf0152f35b6001600160401b0319166001600160401b039081175f5160206125235f395f51905f52556040519081527fc7f505b2f371ae2175ee4913f4499e1f2633a7b5936321eed1cdaeb6115181d290602090a15f610089565b63f92ee8a960e01b5f5260045ffd5b5f80fd5b634e487b7160e01b5f52604160045260245ffdfe6080604052600436101561001a575b3615610018575f80fd5b005b5f3560e01c806319822f7c146101695780632a2314c11461016457806334fcd5be1461015f57806347e1da2a1461015a5780634f1ef2861461015557806352d1902d146101505780636b4ec35d1461014b5780637d34dc18146101465780638c5ac3a5146101415780638d980d551461013c5780638da5cb5b14610137578063ab31d89814610132578063ad3cb1cc1461012d578063b0d691fe14610128578063b61d27f614610123578063b7b8d6041461011e578063bf9890ab14610119578063c4d66de814610114578063c70dc4e61461010f578063d087d2881461010a5763fd5d471c0361000e57611292565b6111d4565b61104a565b610edf565b610e34565b610dcc565b610d62565b610d1e565b610cd7565b610c05565b610bde565b610afa565b610a69565b61076a565b61070b565b6106b4565b61054b565b610337565b61026f565b610201565b346101ec5760603660031901126101ec576004356001600160401b0381116101ec5761012060031982360301126101ec576101d0906101b8602435604435926101b0611ab9565b600401611b08565b90806101d4575b506040519081529081906020820190565b0390f35b5f80808093335af1506101e5611c17565b505f6101bf565b5f80fd5b6001600160a01b038116036101ec57565b346101ec5760403660031901126101ec576020610235600435610223816101f0565b60243590610230826101f0565b6112f4565b6040519015158152f35b9181601f840112156101ec578235916001600160401b0383116101ec576020808501948460051b0101116101ec57565b346101ec5760203660031901126101ec576004356001600160401b0381116101ec5761029f90369060040161023f565b6102a7611ab9565b5f5b8181106102b257005b6102f86102f46102ee6102c6848688611364565b6102cf81611386565b906102e36020820135916040810190611393565b93905a943691610515565b91611c46565b1590565b610304576001016102a9565b600182145f03611c7257610316611c58565b604051635a15467560e01b815291829161033391600484016113c5565b0390fd5b346101ec5760603660031901126101ec576004356001600160401b0381116101ec5761036790369060040161023f565b6024356001600160401b0381116101ec5761038690369060040161023f565b92906044356001600160401b0381116101ec576103a790369060040161023f565b926103b0611c82565b8585148061048b575b6103c2906113dc565b6003546001600160a01b0316610434575b5f5b8581106103ee57600380546001600160a01b0319169055005b8061042e6104076104026001948a87611420565b611386565b610412838b89611420565b35610428610421858b8a611430565b3691610515565b91611f88565b016103d5565b5f5b85811061044357506103d3565b60035460019190610485906001600160a01b0316610465610402848b88611420565b90610471848c8a611420565b3561047d858b8a611430565b939092611d2f565b01610436565b508584146103b9565b634e487b7160e01b5f52604160045260245ffd5b608081019081106001600160401b038211176104c357604052565b610494565b90601f801991011681019081106001600160401b038211176104c357604052565b604051906104f86080836104c8565b565b6001600160401b0381116104c357601f01601f191660200190565b929192610521826104fa565b9161052f60405193846104c8565b8294818452818301116101ec578281602093845f960137010152565b60403660031901126101ec57600435610563816101f0565b6024356001600160401b0381116101ec57366023820112156101ec57610593903690602481600401359101610515565b906001600160a01b037f000000000000000000000000000000000000000000000000000000000000000016308114908115610692575b50610683576105d6611fb6565b6040516352d1902d60e01b8152916020836004816001600160a01b0386165afa5f9381610652575b5061061f57634c9c8ce360e01b5f526001600160a01b03821660045260245ffd5b905f51602061236a5f395f51905f52830361063e5761001892506120e5565b632a87526960e21b5f52600483905260245ffd5b61067591945060203d60201161067c575b61066d81836104c8565b810190611fa7565b925f6105fe565b503d610663565b63703e46dd60e11b5f5260045ffd5b5f51602061236a5f395f51905f52546001600160a01b0316141590505f6105c9565b346101ec575f3660031901126101ec577f00000000000000000000000000000000000000000000000000000000000000006001600160a01b031630036106835760206040515f51602061236a5f395f51905f528152f35b346101ec5760203660031901126101ec57602061023560043561072d816101f0565b61148d565b6024359065ffffffffffff821682036101ec57565b6044359065ffffffffffff821682036101ec57565b908160809103126101ec5790565b346101ec5760803660031901126101ec57600435610787816101f0565b61078f610732565b90610798610747565b906064356001600160401b0381116101ec576107bb61086c91369060040161075c565b936107c4611fb6565b6107cd85611fd8565b6107f46107d86104e9565b6001600160a01b03861681529265ffffffffffff166020840152565b65ffffffffffff851660408301525b60608201526001600160a01b0383165f90815260016020526040902081516020830151604084015160d01b6001600160d01b03191665ffffffffffff60a01b60a09290921b919091166001600160a01b0390921691909117178155606090910151600190910155565b6001600160a01b0381165f908152600260209081526040808320600190925290912090929061089b908461153a565b60028301916108a9836115c2565b5f5b6108b586806115e3565b90508110156108e757806108e16108db6104026001946108d58b806115e3565b90611420565b86611618565b016108ab565b5083908560038301936108f985611659565b60208201925f5b61090a85856115e3565b905081101561093b578061093561092f61092a6001946108d58a8a6115e3565b611680565b896116ab565b01610900565b5060408301356004860155606083013560058601555f60068601557fdf7893125b618293614687811f7475856f46429380555502fba0af70c12f4043906109ac908660076201518042045b91015560405165ffffffffffff90941684526001600160a01b0316929081906020820190565b0390a2005b90602080835192838152019201905f5b8181106109ce5750505090565b82516001600160e01b0319168452602093840193909201916001016109c1565b6020815260a08101825190608060208401528151809152602060c084019201905f5b818110610a4a575050506060610a386080926020860151601f198683030160408701526109b1565b93604081015182850152015191015290565b82516001600160a01b0316845260209384019390920191600101610a10565b346101ec5760203660031901126101ec576101d0600435610a89816101f0565b60405190610a96826104a8565b6060825260056020830160608152604084015f815260608501935f855260018060a01b03165f52600260205260405f2091610ad3600284016116e4565b8652610ae160038401611735565b90526004820154905201549052604051918291826109ee565b346101ec5760803660031901126101ec57600435610b17816101f0565b7fdf7893125b618293614687811f7475856f46429380555502fba0af70c12f40436109ac610b43610732565b92610b79610b4f610747565b94606435610b5b611fb6565b610b666107d86104e9565b65ffffffffffff87166040830152610803565b6001600160a01b0381165f9081526002602090815260408083206001909252909120610ba5908261153a565b610bb1600282016115c2565b610bbd60038201611659565b5f60048201555f60058201555f600682015560076109864262015180900490565b346101ec575f3660031901126101ec575f546040516001600160a01b039091168152602090f35b346101ec5760203660031901126101ec57600435610c22816101f0565b6001600160a01b03165f90815260026020526040902062015180420460078201541015610ca9575f5b600582015480610c7e57506101d060045f19935b0154604051938493846040919493926060820195825260208201520152565b81818110610c945750506101d060045f93610c5f565b610ca36004916101d093611957565b93610c5f565b6006810154610c4b565b805180835260209291819084018484015e5f828201840152601f01601f1916010190565b346101ec575f3660031901126101ec576101d0604051610cf86040826104c8565b60058152640352e302e360dc1b6020820152604051918291602083526020830190610cb3565b346101ec575f3660031901126101ec576040517f00000000000000000000000000000000000000000000000000000000000000006001600160a01b03168152602090f35b346101ec5760603660031901126101ec57600435610d7f816101f0565b602435604435916001600160401b0383116101ec57366023840112156101ec578260040135916001600160401b0383116101ec5736602484860101116101ec576024610018940191611969565b346101ec5760203660031901126101ec57600435610de9816101f0565b60018060a01b03165f526001602052608060405f20600181549101546040519160018060a01b038116835265ffffffffffff8160a01c16602084015260d01c60408301526060820152f35b346101ec5760203660031901126101ec57600435610e51816101f0565b610e59611fb6565b60018060a01b0316805f5260016020525f6001604082208281550155805f5260026020525f600760408220828155826001820155610e99600282016115c2565b610ea560038201611659565b82600482015582600582015582600682015501557f827105b0db5c62d83203be159279cf30a9457305ecb14bbbeda1d695a9f146315f80a2005b346101ec5760203660031901126101ec57600435610efc816101f0565b5f51602061238a5f395f51905f5254906001600160401b03610f2d60ff604085901c1615936001600160401b031690565b1680159081611042575b6001149081611038575b15908161102f575b5061102057610f8c9082610f8360016001600160401b03195f51602061238a5f395f51905f525416175f51602061238a5f395f51905f5255565b610feb576119c1565b610f9257005b610fbc60ff60401b195f51602061238a5f395f51905f5254165f51602061238a5f395f51905f5255565b604051600181527fc7f505b2f371ae2175ee4913f4499e1f2633a7b5936321eed1cdaeb6115181d290602090a1005b61101b600160401b60ff60401b195f51602061238a5f395f51905f525416175f51602061238a5f395f51905f5255565b6119c1565b63f92ee8a960e01b5f5260045ffd5b9050155f610f49565b303b159150610f41565b839150610f37565b346101ec5760403660031901126101ec57600435611067816101f0565b6024356001600160401b0381116101ec5761108690369060040161075c565b9061108f611fb6565b6001600160a01b038181165f908152600160205260409020546110b491161515611a05565b6110bd82611fd8565b908160016110db8360018060a01b03165f52600160205260405f2090565b01556001600160a01b0381165f908152600260205260409020918060018401556002830191611109836115c2565b5f5b61111586806115e3565b905081101561113b57806111356108db6104026001946108d58b806115e3565b0161110b565b50839085600383019361114d85611659565b60208201925f5b61115e85856115e3565b9050811015611184578061117e61092f61092a6001946108d58a8a6115e3565b01611154565b50604080840135600487015560608401356005870155519182526001600160a01b0316907fc4096fe8a888c8ef29c35e66a4dbf58fb142dce9c40ad467c1dbe907b4d26bf59080602081016109ac565b346101ec575f3660031901126101ec57604051631aab3f0d60e11b81523060048201525f60248201526020816044817f00000000000000000000000000000000000000000000000000000000000000006001600160a01b03165afa801561127b575f90611247575b604051908152602090f35b506020813d602011611273575b81611261602093836104c8565b810103126101ec576101d0905161123c565b3d9150611254565b611a49565b6001600160e01b03198116036101ec57565b346101ec5760403660031901126101ec5760206102356004356112b4816101f0565b602435906112c182611280565b611a54565b634e487b7160e01b5f52603260045260245ffd5b80548210156112ef575f5260205f2001905f90565b6112c6565b60018060a01b03165f526002602052600260405f200190815491821561135c575f5b83811061132557505050505f90565b61132f81836112da565b905460039190911b1c6001600160a01b039081169084161461135357600101611316565b50505050600190565b505050600190565b91908110156112ef5760051b81013590605e19813603018212156101ec570190565b35611390816101f0565b90565b903590601e19813603018212156101ec57018035906001600160401b0382116101ec576020019181360383136101ec57565b604090611390939281528160208201520190610cb3565b156113e357565b60405162461bcd60e51b8152602060048201526015602482015274082e4e4c2f240d8cadccee8d040dad2e6dac2e8c6d605b1b6044820152606490fd5b91908110156112ef5760051b0190565b908210156112ef576114479160051b810190611393565b9091565b90604051611458816104a8565b82546001600160a01b038116825265ffffffffffff60a082901c16602083015260d01c60408201526001909201546060830152565b60018060a01b03165f52600160205260405f206040516114ac816104a8565b81546001600160a01b03811680835265ffffffffffff60a083901c166020840181905260d09290921c604084018190526001909401546060909301929092529015611534576115099065ffffffffffff165b65ffffffffffff1690565b421061152f576115209065ffffffffffff166114fe565b421161152b57600190565b5f90565b505f90565b50505f90565b90808203611546575050565b805482546001600160a01b039091166001600160a01b0319821681178455825465ffffffffffff60a01b166001600160d01b031992831682178117855583549092169117178255600190810154910155565b634e487b7160e01b5f52601160045260245ffd5b8181106115b7575050565b5f81556001016115ac565b80545f8255806115d0575050565b6104f8915f5260205f20908101906115ac565b903590601e19813603018212156101ec57018035906001600160401b0382116101ec57602001918160051b360383136101ec57565b8054600160401b8110156104c357611635916001820181556112da565b81546001600160a01b0393841660039290921b91821b9390911b1916919091179055565b80545f825580611667575050565b6104f8915f52600760205f20910160031c8101906115ac565b3561139081611280565b91909180548310156112ef575f52601c60205f208360031c019260021b1690565b8054600160401b8110156104c3576116c89160018201815561168a565b63ffffffff829392549160031b9260e01c831b921b1916179055565b90604051918281549182825260208201905f5260205f20925f5b8181106117135750506104f8925003836104c8565b84546001600160a01b03168352600194850194879450602090930192016116fe565b6040518154808252909291839061175360208301915f5260205f2090565b925f905b80600783011061189a576104f894549181811061187b575b81811061185c575b81811061183d575b81811061181e575b8181106117ff575b8181106117e0575b8181106117c2575b106117ad575b5003836104c8565b6001600160e01b03191681526020015f6117a5565b602083811b6001600160e01b0319168552909360019101930161179f565b604083901b6001600160e01b0319168452926001906020019301611797565b606083901b6001600160e01b031916845292600190602001930161178f565b608083901b6001600160e01b0319168452926001906020019301611787565b60a083901b6001600160e01b031916845292600190602001930161177f565b60c083901b6001600160e01b0319168452926001906020019301611777565b6001600160e01b031960e084901b16845292600190602001930161176f565b91600891935061010060019161194987546118c0838260e01b63ffffffff60e01b169052565b60c081901b6001600160e01b031916602084015260a081901b6001600160e01b0319166040840152608081901b6001600160e01b0319166060840152606081901b6001600160e01b0319166080840152604081901b6001600160e01b03191660a0840152602081901b6001600160e01b03191660c08401526001600160e01b03191660e0830152565b019401920185929391611757565b9190820391821161196457565b611598565b916104289061199c9461197a611c82565b6003546001600160a01b031681838688846119ae575b50505050503691610515565b600380546001600160a01b0319169055565b6119b794611d2f565b5f81838688611990565b5f80546001600160a01b0319166001600160a01b039290921691821781557f9b44a2c7f9f0b5aa4e7da60d8a2325796c57f93a45559d66515743ffbd8a61039080a2565b15611a0c57565b60405162461bcd60e51b815260206004820152601560248201527414d95cdcda5bdb881ad95e481b9bdd08199bdd5b99605a1b6044820152606490fd5b6040513d5f823e3d90fd5b6001600160a01b03165f90815260026020526040902060030180549190821561135c575f5b838110611a8857505050505f90565b611a92818361168a565b90546001600160e01b031960039290921b1c60e01b81169084161461135357600101611a79565b7f00000000000000000000000000000000000000000000000000000000000000006001600160a01b031633819003611aee5750565b63fe34a6d360e01b5f52336004523060245260445260645ffd5b611b4e610421611b42611b54947f19457468657265756d205369676e6564204d6573736167653a0a3332000000005f52601c52603c5f2090565b92610100810190611393565b906120cf565b5f546001600160a01b03166001600160a01b0382161461152f576001600160a01b0381165f908152600160205260409020611b8e9061144b565b80516001600160a01b0316611ba4575050600190565b602081015165ffffffffffff169042821161135c576040015165ffffffffffff1642811061135c57611bf56113909360018060a01b03166bffffffffffffffffffffffff60a01b6003541617600355565b60a01b65ffffffffffff60a01b1660d09190911b6001600160d01b0319161790565b3d15611c41573d90611c28826104fa565b91611c3660405193846104c8565b82523d5f602084013e565b606090565b925f939184939260208451940192f190565b3d604051906020818301016040528082525f602083013e90565b611c7a611c58565b602081519101fd5b5f546001600160a01b031633141580611cab575b611c9c57565b63142888bd60e21b5f5260045ffd5b50337f00000000000000000000000000000000000000000000000000000000000000006001600160a01b03161415611c96565b906004116101ec5790600490565b356001600160e01b0319811692919060048210611d07575050565b6001600160e01b031960049290920360031b82901b16169150565b9190820180921161196457565b6001600160a01b0381165f908152600260205260409020919492939092919460028601805480611f08575b505050600482101580611efb575b611e57575b5050600483015480151580611e4e575b611e375750600583018054611d93575b50505050565b600691620151804204906007860182815410611df1575b50505054920191611dbd83548092611957565b808311611dda575090611dcf91611d22565b90555f808080611d8d565b6377b326b560e11b5f52600483905260245260445ffd5b5f858801558290556040519182526001600160a01b0316907fe08bf5ec0359ff00ff7306d2a54240f6b4970e8ed71e637f2117ab9b246896f990602090a25f8080611daa565b634557d16560e01b5f52600483905260245260445ffd5b50808311611d7d565b611e6a91611e6491611cde565b90611cec565b6003840180545f916001600160e01b0319841690835b838110611eb3575b5050505015611e975780611d6d565b631d8370a360e11b5f526001600160e01b03191660045260245ffd5b82611ede611ed1611ec4848661168a565b90549060031b1c60e01b90565b6001600160e01b03191690565b14611eeb57600101611e80565b505050505060015f808080611e88565b5060038501541515611d68565b5f915f5b828110611f3e575b50505015611f23578080611d5a565b63e356c1d360e01b5f526001600160a01b031660045260245ffd5b611f60611f4b82846112da565b905460039190911b1c6001600160a01b031690565b6001600160a01b03868116911614611f7a57600101611f0c565b5050505060015f8080611f14565b915f928392602083519301915af1611f9e611c17565b9015611c7a5750565b908160209103126101ec575190565b5f546001600160a01b03163303611fc957565b6330cd747160e01b5f5260045ffd5b611fe281806115e3565b9190611ff160208301836115e3565b91906060604085013594013560405194859360208501978060a0870160808b525260c0860191905f5b81811061209b57505050602090601f198682030160408701528681520192945f5b8181106120675750506060840152608083015203601f19810183526120619150826104c8565b51902090565b919360019193955060208091883561207e81611280565b63ffffffff60e01b1681520196019101918694929593919561203b565b919395979496509160208060019286356120b4816101f0565b848060a01b031681520194019101918896949795939261201a565b611390916120dc91612187565b909291926121df565b90813b15612166575f51602061236a5f395f51905f5280546001600160a01b0319166001600160a01b0384169081179091557fbc7cd75a20ee27fd9adebab32041f755214dbc6bffa90cc0225b39da2e5c2d3b5f80a280511561214e5761214b9161225b565b50565b50503461215757565b63b398979f60e01b5f5260045ffd5b50634c9c8ce360e01b5f9081526001600160a01b0391909116600452602490fd5b81519190604183036121b7576121b09250602082015190606060408401519301515f1a906122ce565b9192909190565b50505f9160029190565b600411156121cb57565b634e487b7160e01b5f52602160045260245ffd5b6121e8816121c1565b806121f1575050565b6121fa816121c1565b600181036122115763f645eedf60e01b5f5260045ffd5b61221a816121c1565b60028103612235575063fce698f760e01b5f5260045260245ffd5b806122416003926121c1565b146122495750565b6335e2f38360e21b5f5260045260245ffd5b905f8091602081519101845af480806122bb575b1561227e575050611390612350565b156122a357639996b31560e01b5f9081526001600160a01b0391909116600452602490fd5b3d15155f03611a495763d6bda27560e01b5f5260045ffd5b503d15158061226f5750813b151561226f565b91907f7fffffffffffffffffffffffffffffff5d576e7357a4501ddfe92f46681b20a08411612345579160209360809260ff5f9560405194855216868401526040830152606082015282805260015afa1561127b575f516001600160a01b0381161561233b57905f905f90565b505f906001905f90565b5050505f9160039190565b604051903d82523d5f602084013e60203d83010160405256fe360894a13ba1a3210667c828492db98dca3e2076cc3735a920a3ca505d382bbcf0c57e16840df040f15088dc2f81fe391c3923bec73e23a9662efc9c229c6a00a264697066735822122056d1a54a302d669b3f189d9b2e29519e92a5a8d6cabc9472dae42f960a6f9e5164736f6c634300081c0033f0c57e16840df040f15088dc2f81fe391c3923bec73e23a9662efc9c229c6a00","linkReferences":{}},"methodIdentifiers":{"UPGRADE_INTERFACE_VERSION()":"ad3cb1cc","addSessionKey(address,uint48,uint48,(address[],bytes4[],uint256,uint256))":"7d34dc18","addSessionKeyLegacy(address,uint48,uint48,bytes32)":"8d980d55","entryPoint()":"b0d691fe","execute(address,uint256,bytes)":"b61d27f6","executeBatch((address,uint256,bytes)[])":"34fcd5be","executeBatch(address[],uint256[],bytes[])":"47e1da2a","getNonce()":"d087d288","getSessionKeyPermissions(address)":"8c5ac3a5","getSessionKeySpendingInfo(address)":"ab31d898","initialize(address)":"c4d66de8","isSelectorAllowed(address,bytes4)":"fd5d471c","isTargetAllowed(address,address)":"2a2314c1","isValidSessionKey(address)":"6b4ec35d","owner()":"8da5cb5b","proxiableUUID()":"52d1902d","removeSessionKey(address)":"bf9890ab","sessionKeys(address)":"b7b8d604","updateSessionKeyPermissions(address,(address[],bytes4[],uint256,uint256))":"c70dc4e6","upgradeToAndCall(address,bytes)":"4f1ef286","validateUserOp((address,uint256,bytes,bytes,bytes32,uint256,bytes32,bytes,bytes),bytes32,uint256)":"19822f7c"},"id":55}