{"abi":[{"type":"constructor","inputs":[{"name":"anEntryPoint","type":"address","internalType":"contract IEntryPoint"}],"stateMutability":"nonpayable"},{"type":"receive","stateMutability":"payable"},{"type":"function","name":"MAX_BATCH_SIZE","inputs":[],"outputs":[{"name":"","type":"uint256","internalType":"uint256"}],"stateMutability":"view"},{"type":"function","name":"addSessionKey","inputs":[{"name":"key","type":"address","internalType":"address"},{"name":"validAfter","type":"uint48","internalType":"uint48"},{"name":"validUntil","type":"uint48","internalType":"uint48"},{"name":"permissions","type":"tuple","internalType":"struct RampOSAccount.SessionKeyPermissions","components":[{"name":"allowedTargets","type":"address[]","internalType":"address[]"},{"name":"allowedSelectors","type":"bytes4[]","internalType":"bytes4[]"},{"name":"spendingLimit","type":"uint256","internalType":"uint256"},{"name":"dailyLimit","type":"uint256","internalType":"uint256"}]}],"outputs":[],"stateMutability":"nonpayable"},{"type":"function","name":"addSessionKeyLegacy","inputs":[{"name":"key","type":"address","internalType":"address"},{"name":"validAfter","type":"uint48","internalType":"uint48"},{"name":"validUntil","type":"uint48","internalType":"uint48"},{"name":"permissionsHash","type":"bytes32","internalType":"bytes32"}],"outputs":[],"stateMutability":"nonpayable"},{"type":"function","name":"entryPoint","inputs":[],"outputs":[{"name":"","type":"address","internalType":"contract IEntryPoint"}],"stateMutability":"view"},{"type":"function","name":"execute","inputs":[{"name":"dest","type":"address","internalType":"address"},{"name":"value","type":"uint256","internalType":"uint256"},{"name":"data","type":"bytes","internalType":"bytes"}],"outputs":[],"stateMutability":"nonpayable"},{"type":"function","name":"executeBatch","inputs":[{"name":"calls","type":"tuple[]","internalType":"struct BaseAccount.Call[]","components":[{"name":"target","type":"address","internalType":"address"},{"name":"value","type":"uint256","internalType":"uint256"},{"name":"data","type":"bytes","internalType":"bytes"}]}],"outputs":[],"stateMutability":"nonpayable"},{"type":"function","name":"executeBatch","inputs":[{"name":"dests","type":"address[]","internalType":"address[]"},{"name":"values","type":"uint256[]","internalType":"uint256[]"},{"name":"datas","type":"bytes[]","internalType":"bytes[]"}],"outputs":[],"stateMutability":"nonpayable"},{"type":"function","name":"getNonce","inputs":[],"outputs":[{"name":"","type":"uint256","internalType":"uint256"}],"stateMutability":"view"},{"type":"function","name":"getSessionKeyPermissions","inputs":[{"name":"key","type":"address","internalType":"address"}],"outputs":[{"name":"permissions","type":"tuple","internalType":"struct RampOSAccount.SessionKeyPermissions","components":[{"name":"allowedTargets","type":"address[]","internalType":"address[]"},{"name":"allowedSelectors","type":"bytes4[]","internalType":"bytes4[]"},{"name":"spendingLimit","type":"uint256","internalType":"uint256"},{"name":"dailyLimit","type":"uint256","internalType":"uint256"}]}],"stateMutability":"view"},{"type":"function","name":"getSessionKeySpendingInfo","inputs":[{"name":"key","type":"address","internalType":"address"}],"outputs":[{"name":"dailySpent","type":"uint256","internalType":"uint256"},{"name":"dailyRemaining","type":"uint256","internalType":"uint256"},{"name":"spendingLimit","type":"uint256","internalType":"uint256"}],"stateMutability":"view"},{"type":"function","name":"initialize","inputs":[{"name":"anOwner","type":"address","internalType":"address"}],"outputs":[],"stateMutability":"nonpayable"},{"type":"function","name":"isSelectorAllowed","inputs":[{"name":"key","type":"address","internalType":"address"},{"name":"selector","type":"bytes4","internalType":"bytes4"}],"outputs":[{"name":"","type":"bool","internalType":"bool"}],"stateMutability":"view"},{"type":"function","name":"isTargetAllowed","inputs":[{"name":"key","type":"address","internalType":"address"},{"name":"target","type":"address","internalType":"address"}],"outputs":[{"name":"","type":"bool","internalType":"bool"}],"stateMutability":"view"},{"type":"function","name":"isValidSessionKey","inputs":[{"name":"key","type":"address","internalType":"address"}],"outputs":[{"name":"","type":"bool","internalType":"bool"}],"stateMutability":"view"},{"type":"function","name":"owner","inputs":[],"outputs":[{"name":"","type":"address","internalType":"address"}],"stateMutability":"view"},{"type":"function","name":"removeSessionKey","inputs":[{"name":"key","type":"address","internalType":"address"}],"outputs":[],"stateMutability":"nonpayable"},{"type":"function","name":"sessionKeys","inputs":[{"name":"","type":"address","internalType":"address"}],"outputs":[{"name":"key","type":"address","internalType":"address"},{"name":"validAfter","type":"uint48","internalType":"uint48"},{"name":"validUntil","type":"uint48","internalType":"uint48"},{"name":"permissionsHash","type":"bytes32","internalType":"bytes32"}],"stateMutability":"view"},{"type":"function","name":"updateSessionKeyPermissions","inputs":[{"name":"key","type":"address","internalType":"address"},{"name":"permissions","type":"tuple","internalType":"struct RampOSAccount.SessionKeyPermissions","components":[{"name":"allowedTargets","type":"address[]","internalType":"address[]"},{"name":"allowedSelectors","type":"bytes4[]","internalType":"bytes4[]"},{"name":"spendingLimit","type":"uint256","internalType":"uint256"},{"name":"dailyLimit","type":"uint256","internalType":"uint256"}]}],"outputs":[],"stateMutability":"nonpayable"},{"type":"function","name":"validateUserOp","inputs":[{"name":"userOp","type":"tuple","internalType":"struct PackedUserOperation","components":[{"name":"sender","type":"address","internalType":"address"},{"name":"nonce","type":"uint256","internalType":"uint256"},{"name":"initCode","type":"bytes","internalType":"bytes"},{"name":"callData","type":"bytes","internalType":"bytes"},{"name":"accountGasLimits","type":"bytes32","internalType":"bytes32"},{"name":"preVerificationGas","type":"uint256","internalType":"uint256"},{"name":"gasFees","type":"bytes32","internalType":"bytes32"},{"name":"paymasterAndData","type":"bytes","internalType":"bytes"},{"name":"signature","type":"bytes","internalType":"bytes"}]},{"name":"userOpHash","type":"bytes32","internalType":"bytes32"},{"name":"missingAccountFunds","type":"uint256","internalType":"uint256"}],"outputs":[{"name":"validationData","type":"uint256","internalType":"uint256"}],"stateMutability":"nonpayable"},{"type":"event","name":"AccountInitialized","inputs":[{"name":"owner","type":"address","indexed":true,"internalType":"address"}],"anonymous":false},{"type":"event","name":"DailyLimitReset","inputs":[{"name":"key","type":"address","indexed":true,"internalType":"address"},{"name":"day","type":"uint256","indexed":false,"internalType":"uint256"}],"anonymous":false},{"type":"event","name":"Initialized","inputs":[{"name":"version","type":"uint64","indexed":false,"internalType":"uint64"}],"anonymous":false},{"type":"event","name":"LegacySessionKeyDeprecated","inputs":[{"name":"key","type":"address","indexed":true,"internalType":"address"}],"anonymous":false},{"type":"event","name":"SessionKeyAdded","inputs":[{"name":"key","type":"address","indexed":true,"internalType":"address"},{"name":"validUntil","type":"uint48","indexed":false,"internalType":"uint48"}],"anonymous":false},{"type":"event","name":"SessionKeyPermissionsUpdated","inputs":[{"name":"key","type":"address","indexed":true,"internalType":"address"},{"name":"permissionsHash","type":"bytes32","indexed":false,"internalType":"bytes32"}],"anonymous":false},{"type":"event","name":"SessionKeyRemoved","inputs":[{"name":"key","type":"address","indexed":true,"internalType":"address"}],"anonymous":false},{"type":"error","name":"DailyLimitExceeded","inputs":[{"name":"requested","type":"uint256","internalType":"uint256"},{"name":"remaining","type":"uint256","internalType":"uint256"}]},{"type":"error","name":"ECDSAInvalidSignature","inputs":[]},{"type":"error","name":"ECDSAInvalidSignatureLength","inputs":[{"name":"length","type":"uint256","internalType":"uint256"}]},{"type":"error","name":"ECDSAInvalidSignatureS","inputs":[{"name":"s","type":"bytes32","internalType":"bytes32"}]},{"type":"error","name":"ExecuteError","inputs":[{"name":"index","type":"uint256","internalType":"uint256"},{"name":"error","type":"bytes","internalType":"bytes"}]},{"type":"error","name":"InvalidInitialization","inputs":[]},{"type":"error","name":"InvalidSessionKey","inputs":[]},{"type":"error","name":"NotFromEntryPoint","inputs":[{"name":"msgSender","type":"address","internalType":"address"},{"name":"entity","type":"address","internalType":"address"},{"name":"entryPoint","type":"address","internalType":"address"}]},{"type":"error","name":"NotInitializing","inputs":[]},{"type":"error","name":"NotOwner","inputs":[]},{"type":"error","name":"NotOwnerOrEntryPoint","inputs":[]},{"type":"error","name":"SelectorNotAllowed","inputs":[{"name":"selector","type":"bytes4","internalType":"bytes4"}]},{"type":"error","name":"SessionKeyExpired","inputs":[]},{"type":"error","name":"SpendingLimitExceeded","inputs":[{"name":"requested","type":"uint256","internalType":"uint256"},{"name":"limit","type":"uint256","internalType":"uint256"}]},{"type":"error","name":"TargetNotAllowed","inputs":[{"name":"target","type":"address","internalType":"address"}]},{"type":"error","name":"TargetNotContract","inputs":[{"name":"target","type":"address","internalType":"address"}]}],"bytecode":{"object":"0x60a03461017057601f6125b238819003918201601f19168301916001600160401b038311848410176101745780849260209460405283398101031261017057516001600160a01b038116808203610170571561012b576080525f5160206125925f395f51905f525460ff8160401c1661011c576002600160401b03196001600160401b038216016100c6575b6040516124099081610189823960805181818161048401528181610b1301528181610fff01528181611a6401528181611bc30152611dc90152f35b6001600160401b0319166001600160401b039081175f5160206125925f395f51905f52556040519081527fc7f505b2f371ae2175ee4913f4499e1f2633a7b5936321eed1cdaeb6115181d290602090a15f61008b565b63f92ee8a960e01b5f5260045ffd5b60405162461bcd60e51b815260206004820152601360248201527f496e76616c696420656e74727920706f696e74000000000000000000000000006044820152606490fd5b5f80fd5b634e487b7160e01b5f52604160045260245ffdfe6080604052600436101561001a575b3615610018575f80fd5b005b5f3560e01c806319822f7c146101495780632a2314c11461014457806334fcd5be1461013f57806347e1da2a1461013a5780636b4ec35d146101355780637d34dc18146101305780638c5ac3a51461012b5780638d980d55146101265780638da5cb5b14610121578063ab31d8981461011c578063b0d691fe14610117578063b61d27f614610112578063b7b8d6041461010d578063bf9890ab14610108578063c4d66de814610103578063c70dc4e6146100fe578063cfdbf254146100f9578063d087d288146100f45763fd5d471c0361000e5761108c565b610fce565b610fb4565b610e2a565b610cbf565b610c14565b610bac565b610b42565b610afe565b610a50565b610a29565b610896565b610805565b61051a565b6104bb565b610317565b61024f565b6101e1565b346101cc5760603660031901126101cc576004356001600160401b0381116101cc5761012060031982360301126101cc576101b09061019860243560443592610190611bc1565b600401611c10565b90806101b4575b506040519081529081906020820190565b0390f35b5f80808093335af1506101c5611d31565b505f61019f565b5f80fd5b6001600160a01b038116036101cc57565b346101cc5760403660031901126101cc576020610215600435610203816101d0565b60243590610210826101d0565b6110ee565b6040519015158152f35b9181601f840112156101cc578235916001600160401b0383116101cc576020808501948460051b0101116101cc57565b346101cc5760203660031901126101cc576004356001600160401b0381116101cc5761027f90369060040161021f565b610287611bc1565b5f5b81811061029257005b6102d86102d46102ce6102a684868861115e565b6102af81611180565b906102c3602082013591604081019061118d565b93905a943691611240565b91611d60565b1590565b6102e457600101610289565b600182145f03611d8c576102f6611d72565b604051635a15467560e01b81529182916103139160048401611276565b0390fd5b346101cc5760603660031901126101cc576004356001600160401b0381116101cc5761034790369060040161021f565b6024356001600160401b0381116101cc5761036690369060040161021f565b92906044356001600160401b0381116101cc5761038790369060040161021f565b92610390611d9c565b858514806104b2575b6103a2906112a8565b6103af60208611156112ec565b6003546001600160a01b0316151580610480575b610429575b600380546001600160a01b03191690555f5b8581106103e357005b806104236103fc6103f76001948a87611338565b611180565b610407838b89611338565b3561041d610416858b8a611348565b3691611240565b916120d6565b016103da565b5f5b85811061043857506103c8565b6003546001919061047a906001600160a01b031661045a6103f7848b88611338565b90610466848c8a611338565b35610472858b8a611348565b939092611e49565b0161042b565b50337f00000000000000000000000000000000000000000000000000000000000000006001600160a01b0316146103c3565b50858414610399565b346101cc5760203660031901126101cc5760206102156004356104dd816101d0565b6113a5565b6024359065ffffffffffff821682036101cc57565b6044359065ffffffffffff821682036101cc57565b908160809103126101cc5790565b346101cc5760803660031901126101cc57600435610537816101d0565b61053f6104e2565b906105486104f7565b6064356001600160401b0381116101cc5761056790369060040161050c565b9261057061212e565b6001600160a01b038316906106109061058a831515611452565b6105b065ffffffffffff85166105a965ffffffffffff84168211611494565b42106114d6565b6105b986612150565b6105e16105c4611214565b6001600160a01b0388168152925b65ffffffffffff166020840152565b65ffffffffffff8516604083015260608201526001600160a01b0385165f908152600160205260409020611522565b6001600160a01b03929092165f9081526002602090815260408083206001909252909120909290610641908461156f565b600283019161064f836115f7565b5f5b61065b8680611618565b905081101561068d57806106876106816103f760019461067b8b80611618565b90611338565b8661164d565b01610651565b50839085600383019361069f8561168e565b60208201925f5b6106b08585611618565b90508110156106e157806106db6106d56106d060019461067b8a8a611618565b6116b5565b896116e0565b016106a6565b5060408301356004860155606083013560058601555f60068601557fdf7893125b618293614687811f7475856f46429380555502fba0af70c12f404390610748908660076201518042045b91015560405165ffffffffffff90911681529081906020820190565b0390a2005b90602080835192838152019201905f5b81811061076a5750505090565b82516001600160e01b03191684526020938401939092019160010161075d565b6020815260a08101825190608060208401528151809152602060c084019201905f5b8181106107e65750505060606107d46080926020860151601f1986830301604087015261074d565b93604081015182850152015191015290565b82516001600160a01b03168452602093840193909201916001016107ac565b346101cc5760203660031901126101cc576101b0600435610825816101d0565b60405190610832826111d3565b6060825260056020830160608152604084015f815260608501935f855260018060a01b03165f52600260205260405f209161086f60028401611719565b865261087d6003840161176a565b905260048201549052015490526040519182918261078a565b346101cc5760803660031901126101cc576004356108b3816101d0565b6108bb6104e2565b907fdf7893125b618293614687811f7475856f46429380555502fba0af70c12f4043610a006108e86104f7565b606435936108f461212e565b6001600160a01b03811695869561099c9190610911881515611452565b61093065ffffffffffff86166105a965ffffffffffff85168211611494565b61095062093a8065ffffffffffff610948858961198c565b1611156119af565b61096d61095b611214565b6001600160a01b0386168152926105d2565b65ffffffffffff8516604083015260608201526001600160a01b0383165f908152600160205260409020611522565b6001600160a01b03165f90815260026020908152604080832060019092529091206109c7908261156f565b6109d3600282016115f7565b6109df6003820161168e565b5f60048201555f60058201555f6006820155600761072c4262015180900490565b0390a27ffc02478c9031af87a228ad62891ad06b80c8b1d74d8bb50ae3d922e942de3f4c5f80a2005b346101cc575f3660031901126101cc575f546040516001600160a01b039091168152602090f35b346101cc5760203660031901126101cc57600435610a6d816101d0565b6001600160a01b03165f90815260026020526040902062015180420460078201541015610af4575f5b600582015480610ac957506101b060045f19935b0154604051938493846040919493926060820195825260208201520152565b81818110610adf5750506101b060045f93610aaa565b610aee6004916101b0936119f3565b93610aaa565b6006810154610a96565b346101cc575f3660031901126101cc576040517f00000000000000000000000000000000000000000000000000000000000000006001600160a01b03168152602090f35b346101cc5760603660031901126101cc57600435610b5f816101d0565b602435604435916001600160401b0383116101cc57366023840112156101cc578260040135916001600160401b0383116101cc5736602484860101116101cc576024610018940191611a00565b346101cc5760203660031901126101cc57600435610bc9816101d0565b60018060a01b03165f526001602052608060405f20600181549101546040519160018060a01b038116835265ffffffffffff8160a01c16602084015260d01c60408301526060820152f35b346101cc5760203660031901126101cc57600435610c31816101d0565b610c3961212e565b60018060a01b0316805f5260016020525f6001604082208281550155805f5260026020525f600760408220828155826001820155610c79600282016115f7565b610c856003820161168e565b82600482015582600582015582600682015501557f827105b0db5c62d83203be159279cf30a9457305ecb14bbbeda1d695a9f146315f80a2005b346101cc5760203660031901126101cc57600435610cdc816101d0565b5f5160206123b45f395f51905f5254906001600160401b03610d0d60ff604085901c1615936001600160401b031690565b1680159081610e22575b6001149081610e18575b159081610e0f575b50610e0057610d6c9082610d6360016001600160401b03195f5160206123b45f395f51905f525416175f5160206123b45f395f51905f5255565b610dcb57611a92565b610d7257005b610d9c60ff60401b195f5160206123b45f395f51905f5254165f5160206123b45f395f51905f5255565b604051600181527fc7f505b2f371ae2175ee4913f4499e1f2633a7b5936321eed1cdaeb6115181d290602090a1005b610dfb600160401b60ff60401b195f5160206123b45f395f51905f525416175f5160206123b45f395f51905f5255565b611a92565b63f92ee8a960e01b5f5260045ffd5b9050155f610d29565b303b159150610d21565b839150610d17565b346101cc5760403660031901126101cc57600435610e47816101d0565b6024356001600160401b0381116101cc57610e6690369060040161050c565b90610e6f61212e565b6001600160a01b038181165f90815260016020526040902054610e9491161515611b0d565b610e9d82612150565b90816001610ebb8360018060a01b03165f52600160205260405f2090565b01556001600160a01b0381165f908152600260205260409020918060018401556002830191610ee9836115f7565b5f5b610ef58680611618565b9050811015610f1b5780610f156106816103f760019461067b8b80611618565b01610eeb565b508390856003830193610f2d8561168e565b60208201925f5b610f3e8585611618565b9050811015610f645780610f5e6106d56106d060019461067b8a8a611618565b01610f34565b50604080840135600487015560608401356005870155519182526001600160a01b0316907fc4096fe8a888c8ef29c35e66a4dbf58fb142dce9c40ad467c1dbe907b4d26bf5908060208101610748565b346101cc575f3660031901126101cc576020604051818152f35b346101cc575f3660031901126101cc57604051631aab3f0d60e11b81523060048201525f60248201526020816044817f00000000000000000000000000000000000000000000000000000000000000006001600160a01b03165afa8015611075575f90611041575b604051908152602090f35b506020813d60201161106d575b8161105b602093836111f3565b810103126101cc576101b09051611036565b3d915061104e565b611b51565b6001600160e01b03198116036101cc57565b346101cc5760403660031901126101cc5760206102156004356110ae816101d0565b602435906110bb8261107a565b611b5c565b634e487b7160e01b5f52603260045260245ffd5b80548210156110e9575f5260205f2001905f90565b6110c0565b60018060a01b03165f526002602052600260405f2001908154918215611156575f5b83811061111f57505050505f90565b61112981836110d4565b905460039190911b1c6001600160a01b039081169084161461114d57600101611110565b50505050600190565b505050600190565b91908110156110e95760051b81013590605e19813603018212156101cc570190565b3561118a816101d0565b90565b903590601e19813603018212156101cc57018035906001600160401b0382116101cc576020019181360383136101cc57565b634e487b7160e01b5f52604160045260245ffd5b608081019081106001600160401b038211176111ee57604052565b6111bf565b90601f801991011681019081106001600160401b038211176111ee57604052565b604051906112236080836111f3565b565b6001600160401b0381116111ee57601f01601f191660200190565b92919261124c82611225565b9161125a60405193846111f3565b8294818452818301116101cc578281602093845f960137010152565b9060609260209183526040828401528051918291826040860152018484015e5f828201840152601f01601f1916010190565b156112af57565b60405162461bcd60e51b8152602060048201526015602482015274082e4e4c2f240d8cadccee8d040dad2e6dac2e8c6d605b1b6044820152606490fd5b156112f357565b60405162461bcd60e51b815260206004820152601860248201527f42617463682073697a652065786365656473206c696d697400000000000000006044820152606490fd5b91908110156110e95760051b0190565b908210156110e95761135f9160051b81019061118d565b9091565b90604051611370816111d3565b82546001600160a01b038116825265ffffffffffff60a082901c16602083015260d01c60408201526001909201546060830152565b60018060a01b03165f52600160205260405f206040516113c4816111d3565b81546001600160a01b03811680835265ffffffffffff60a083901c166020840181905260d09290921c60408401819052600190940154606090930192909252901561144c576114219065ffffffffffff165b65ffffffffffff1690565b4210611447576114389065ffffffffffff16611416565b421161144357600190565b5f90565b505f90565b50505f90565b1561145957565b60405162461bcd60e51b8152602060048201526013602482015272496e76616c69642073657373696f6e206b657960681b6044820152606490fd5b1561149b57565b60405162461bcd60e51b8152602060048201526013602482015272496e76616c69642074696d6520626f756e647360681b6044820152606490fd5b156114dd57565b60405162461bcd60e51b815260206004820152601760248201527f53657373696f6e20616c726561647920657870697265640000000000000000006044820152606490fd5b81516020830151604084015160d01b6001600160d01b03191665ffffffffffff60a01b60a09290921b919091166001600160a01b0390921691909117178155606090910151600190910155565b9080820361157b575050565b805482546001600160a01b039091166001600160a01b0319821681178455825465ffffffffffff60a01b166001600160d01b031992831682178117855583549092169117178255600190810154910155565b634e487b7160e01b5f52601160045260245ffd5b8181106115ec575050565b5f81556001016115e1565b80545f825580611605575050565b611223915f5260205f20908101906115e1565b903590601e19813603018212156101cc57018035906001600160401b0382116101cc57602001918160051b360383136101cc57565b8054600160401b8110156111ee5761166a916001820181556110d4565b81546001600160a01b0393841660039290921b91821b9390911b1916919091179055565b80545f82558061169c575050565b611223915f52600760205f20910160031c8101906115e1565b3561118a8161107a565b91909180548310156110e9575f52601c60205f208360031c019260021b1690565b8054600160401b8110156111ee576116fd916001820181556116bf565b63ffffffff829392549160031b9260e01c831b921b1916179055565b90604051918281549182825260208201905f5260205f20925f5b818110611748575050611223925003836111f3565b84546001600160a01b0316835260019485019487945060209093019201611733565b6040518154808252909291839061178860208301915f5260205f2090565b925f905b8060078301106118cf576112239454918181106118b0575b818110611891575b818110611872575b818110611853575b818110611834575b818110611815575b8181106117f7575b106117e2575b5003836111f3565b6001600160e01b03191681526020015f6117da565b602083811b6001600160e01b031916855290936001910193016117d4565b604083901b6001600160e01b03191684529260019060200193016117cc565b606083901b6001600160e01b03191684529260019060200193016117c4565b608083901b6001600160e01b03191684529260019060200193016117bc565b60a083901b6001600160e01b03191684529260019060200193016117b4565b60c083901b6001600160e01b03191684529260019060200193016117ac565b6001600160e01b031960e084901b1684529260019060200193016117a4565b91600891935061010060019161197e87546118f5838260e01b63ffffffff60e01b169052565b60c081901b6001600160e01b031916602084015260a081901b6001600160e01b0319166040840152608081901b6001600160e01b0319166060840152606081901b6001600160e01b0319166080840152604081901b6001600160e01b03191660a0840152602081901b6001600160e01b03191660c08401526001600160e01b03191660e0830152565b01940192018592939161178c565b9065ffffffffffff8091169116039065ffffffffffff82116119aa57565b6115cd565b156119b657565b60405162461bcd60e51b81526020600482015260156024820152744c6567616379206b6579206d61782037206461797360581b6044820152606490fd5b919082039182116119aa57565b9161041d9061122394611a11611d9c565b6003546001600160a01b03168183868884151580611a60575b611a4d575b50505050506001600160601b0360a01b600354166003553691611240565b611a5694611e49565b5f81838688611a2f565b50337f00000000000000000000000000000000000000000000000000000000000000006001600160a01b031614611a2a565b6001600160a01b03168015611ad8575f80546001600160a01b031916821781557f9b44a2c7f9f0b5aa4e7da60d8a2325796c57f93a45559d66515743ffbd8a61039080a2565b60405162461bcd60e51b815260206004820152600d60248201526c24b73b30b634b21037bbb732b960991b6044820152606490fd5b15611b1457565b60405162461bcd60e51b815260206004820152601560248201527414d95cdcda5bdb881ad95e481b9bdd08199bdd5b99605a1b6044820152606490fd5b6040513d5f823e3d90fd5b6001600160a01b03165f908152600260205260409020600301805491908215611156575f5b838110611b9057505050505f90565b611b9a81836116bf565b90546001600160e01b031960039290921b1c60e01b81169084161461114d57600101611b81565b7f00000000000000000000000000000000000000000000000000000000000000006001600160a01b031633819003611bf65750565b63fe34a6d360e01b5f52336004523060245260445260645ffd5b611c6d610416611c61611c7394611c346001600160601b0360a01b60035416600355565b7f19457468657265756d205369676e6564204d6573736167653a0a3332000000005f52601c52603c5f2090565b9261010081019061118d565b90612247565b5f546001600160a01b03166001600160a01b03821614611447576001600160a01b0381165f908152600160205260409020611cad90611363565b80516001600160a01b0316611cc3575050600190565b602081015165ffffffffffff1690428211611156576040015165ffffffffffff1642811061115657611d0f61118a9360018060a01b03166001600160601b0360a01b6003541617600355565b60a01b65ffffffffffff60a01b1660d09190911b6001600160d01b0319161790565b3d15611d5b573d90611d4282611225565b91611d5060405193846111f3565b82523d5f602084013e565b606090565b925f939184939260208451940192f190565b3d604051906020818301016040528082525f602083013e90565b611d94611d72565b602081519101fd5b5f546001600160a01b031633141580611dc5575b611db657565b63142888bd60e21b5f5260045ffd5b50337f00000000000000000000000000000000000000000000000000000000000000006001600160a01b03161415611db0565b906004116101cc5790600490565b356001600160e01b0319811692919060048210611e21575050565b6001600160e01b031960049290920360031b82901b16169150565b919082018092116119aa57565b6001600160a01b0381165f908152600260205260409020919492939092919460028601805480612056575b505050600385019182549182151580809161204c575b6120385760048310159081612030575b50611f8c575b50505050600483015480151580611f83575b611f6c5750600583018054611ec8575b50505050565b600691620151804204906007860182815410611f26575b50505054920191611ef2835480926119f3565b808311611f0f575090611f0491611e3c565b90555f808080611ec2565b6377b326b560e11b5f52600483905260245260445ffd5b5f858801558290556040519182526001600160a01b0316907fe08bf5ec0359ff00ff7306d2a54240f6b4970e8ed71e637f2117ab9b246896f990602090a25f8080611edf565b634557d16560e01b5f52600483905260245260445ffd5b50808311611eb2565b611fa291611f9c91949394611df8565b90611e06565b915f916001600160e01b0319841690835b838110611fe8575b5050505015611fcc57808080611ea0565b631d8370a360e11b5f526001600160e01b03191660045260245ffd5b82612013612006611ff984866116bf565b90549060031b1c60e01b90565b6001600160e01b03191690565b1461202057600101611fb3565b505050505060015f808080611fbb565b90505f611e9a565b631d8370a360e11b5f90815260045260245ffd5b5060048310611e8a565b5f915f5b82811061208c575b50505015612071578080611e74565b63e356c1d360e01b5f526001600160a01b031660045260245ffd5b6120ae61209982846110d4565b905460039190911b1c6001600160a01b031690565b6001600160a01b038681169116146120c85760010161205a565b5050505060015f8080612062565b9291908151151580612125575b61210757905f92938392602083519301915af16120fe611d31565b9015611d945750565b63109a6d7360e01b5f9081526001600160a01b038516600452602490fd5b50833b156120e3565b5f546001600160a01b0316330361214157565b6330cd747160e01b5f5260045ffd5b61215a8180611618565b91906121696020830183611618565b91906060604085013594013560405194859360208501978060a0870160808b525260c0860191905f5b81811061221357505050602090601f198682030160408701528681520192945f5b8181106121df5750506060840152608083015203601f19810183526121d99150826111f3565b51902090565b91936001919395506020809188356121f68161107a565b63ffffffff60e01b168152019601910191869492959391956121b3565b9193959794965091602080600192863561222c816101d0565b848060a01b0316815201940191019188969497959392612192565b61118a916122549161225d565b909291926122b5565b815191906041830361228d576122869250602082015190606060408401519301515f1a90612331565b9192909190565b50505f9160029190565b600411156122a157565b634e487b7160e01b5f52602160045260245ffd5b6122be81612297565b806122c7575050565b6122d081612297565b600181036122e75763f645eedf60e01b5f5260045ffd5b6122f081612297565b6002810361230b575063fce698f760e01b5f5260045260245ffd5b80612317600392612297565b1461231f5750565b6335e2f38360e21b5f5260045260245ffd5b91907f7fffffffffffffffffffffffffffffff5d576e7357a4501ddfe92f46681b20a084116123a8579160209360809260ff5f9560405194855216868401526040830152606082015282805260015afa15611075575f516001600160a01b0381161561239e57905f905f90565b505f906001905f90565b5050505f916003919056fef0c57e16840df040f15088dc2f81fe391c3923bec73e23a9662efc9c229c6a00a2646970667358221220400e915273eda6ad9782abf1fe1455c3550fd24dacb01327a7280f7b5b57708764736f6c634300081c0033f0c57e16840df040f15088dc2f81fe391c3923bec73e23a9662efc9c229c6a00","linkReferences":{}},"methodIdentifiers":{"MAX_BATCH_SIZE()":"cfdbf254","addSessionKey(address,uint48,uint48,(address[],bytes4[],uint256,uint256))":"7d34dc18","addSessionKeyLegacy(address,uint48,uint48,bytes32)":"8d980d55","entryPoint()":"b0d691fe","execute(address,uint256,bytes)":"b61d27f6","executeBatch((address,uint256,bytes)[])":"34fcd5be","executeBatch(address[],uint256[],bytes[])":"47e1da2a","getNonce()":"d087d288","getSessionKeyPermissions(address)":"8c5ac3a5","getSessionKeySpendingInfo(address)":"ab31d898","initialize(address)":"c4d66de8","isSelectorAllowed(address,bytes4)":"fd5d471c","isTargetAllowed(address,address)":"2a2314c1","isValidSessionKey(address)":"6b4ec35d","owner()":"8da5cb5b","removeSessionKey(address)":"bf9890ab","sessionKeys(address)":"b7b8d604","updateSessionKeyPermissions(address,(address[],bytes4[],uint256,uint256))":"c70dc4e6","validateUserOp((address,uint256,bytes,bytes,bytes32,uint256,bytes32,bytes,bytes),bytes32,uint256)":"19822f7c"},"id":61}