{"abi":[{"type":"constructor","inputs":[],"stateMutability":"nonpayable"},{"type":"function","name":"createSender","inputs":[{"name":"initCode","type":"bytes","internalType":"bytes"}],"outputs":[{"name":"sender","type":"address","internalType":"address"}],"stateMutability":"nonpayable"},{"type":"function","name":"entryPoint","inputs":[],"outputs":[{"name":"","type":"address","internalType":"address"}],"stateMutability":"view"},{"type":"function","name":"initEip7702Sender","inputs":[{"name":"sender","type":"address","internalType":"address"},{"name":"initCallData","type":"bytes","internalType":"bytes"}],"outputs":[],"stateMutability":"nonpayable"},{"type":"error","name":"FailedOpWithRevert","inputs":[{"name":"opIndex","type":"uint256","internalType":"uint256"},{"name":"reason","type":"string","internalType":"string"},{"name":"inner","type":"bytes","internalType":"bytes"}]},{"type":"error","name":"NotFromEntryPoint","inputs":[{"name":"msgSender","type":"address","internalType":"address"},{"name":"entity","type":"address","internalType":"address"},{"name":"entryPoint","type":"address","internalType":"address"}]}],"bytecode":{"object":"0x60a08060405234602f57336080526103759081610034823960805181818160980152818161019401526102190152f35b5f80fdfe60806040526004361015610011575f80fd5b5f3560e01c8063570e1a36146101c3578063b0d691fe1461017f5763c09ad0d91461003a575f80fd5b3461017b57604036600319011261017b576004356001600160a01b038116810361017b5760243567ffffffffffffffff811161017b573660238201121561017b575f916100928392369060248160040135910161029d565b906100ca7f000000000000000000000000000000000000000000000000000000000000000030336001600160a01b0383168114610309565b82602083519301915af1156100db57005b3d6108008111610172575b60c460405160208382010160405282815260208101925f843e6040519283916365c8fd4d60e01b83525f600484015260606024840152601f60648401527f4141313320454950373730322073656e64657220696e6974206661696c656400608484015260a060448401525180918160a48501528484015e5f828201840152601f01601f19168101030190fd5b506108006100e6565b5f80fd5b3461017b575f36600319011261017b576040517f00000000000000000000000000000000000000000000000000000000000000006001600160a01b03168152602090f35b3461017b57602036600319011261017b5760043567ffffffffffffffff811161017b573660238201121561017b5780600401359067ffffffffffffffff821161017b57366024838301011161017b575f9161024b7f000000000000000000000000000000000000000000000000000000000000000030336001600160a01b0383168114610309565b8060141161017b5760209161026a5f923690601319016038840161029d565b90826024858451940192013560601c5af1610295575b6040516001600160a01b039091168152602090f35b505f51610280565b92919267ffffffffffffffff82116102f55760405191601f8101601f19908116603f0116830167ffffffffffffffff8111848210176102f55760405282948184528183011161017b578281602093845f960137010152565b634e487b7160e01b5f52604160045260245ffd5b1561031357505050565b63fe34a6d360e01b5f9081526001600160a01b0391821660045291811660245291909116604452606490fdfea2646970667358221220451ed03ecf525dfd7cedd92c21bc4d5643539f9c0acdcbfaa3e50d3d9611dc7564736f6c634300081c0033","linkReferences":{}},"methodIdentifiers":{"createSender(bytes)":"570e1a36","entryPoint()":"b0d691fe","initEip7702Sender(address,bytes)":"c09ad0d9"},"id":6}