{"abi":[{"type":"fallback","stateMutability":"payable"},{"type":"receive","stateMutability":"payable"},{"type":"function","name":"balanceOf","inputs":[{"name":"account","type":"address","internalType":"address"}],"outputs":[{"name":"","type":"uint256","internalType":"uint256"}],"stateMutability":"view"},{"type":"function","name":"depositTo","inputs":[{"name":"account","type":"address","internalType":"address"}],"outputs":[],"stateMutability":"payable"},{"type":"function","name":"deposits","inputs":[{"name":"","type":"address","internalType":"address"}],"outputs":[{"name":"","type":"uint256","internalType":"uint256"}],"stateMutability":"view"},{"type":"function","name":"withdrawTo","inputs":[{"name":"withdrawAddress","type":"address","internalType":"address payable"},{"name":"withdrawAmount","type":"uint256","internalType":"uint256"}],"outputs":[],"stateMutability":"nonpayable"}],"bytecode":{"object":"0x60808060405234601557610265908161001a8239f35b5f80fdfe608080604052600436101561001057005b5f3560e01c908163205c2878146100d25750806370a0823114610044578063b760faf9146100835763fc7e286d1461004457005b3461007f57602036600319011261007f576004356001600160a01b0381169081900361007f575f525f602052602060405f2054604051908152f35b5f80fd5b602036600319011261007f576004356001600160a01b0381169081900361007f575f525f60205260405f208054903482018092116100be5755005b634e487b7160e01b5f52601160045260245ffd5b3461007f57604036600319011261007f576004356001600160a01b0381169081900361007f5760243591335f525f6020528260405f2054106101e15750335f525f60205260405f208054908382039182116100be575f93849384938493555af13d156101dc573d67ffffffffffffffff81116101c85760405190601f8101601f19908116603f0116820167ffffffffffffffff8111838210176101c85760405281525f60203d92013e5b1561018357005b60405162461bcd60e51b815260206004820152601f60248201527f4d6f636b456e747279506f696e743a205769746864726177206661696c6564006044820152606490fd5b634e487b7160e01b5f52604160045260245ffd5b61017c565b62461bcd60e51b8152602060048201526024808201527f4d6f636b456e747279506f696e743a20496e73756666696369656e74206465706044820152631bdcda5d60e21b6064820152608490fdfea264697066735822122003c72972e50c1da079fa39cd21b125c8e15709070a39d9994188a9d01f162c7564736f6c634300081c0033","linkReferences":{}},"methodIdentifiers":{"balanceOf(address)":"70a08231","depositTo(address)":"b760faf9","deposits(address)":"fc7e286d","withdrawTo(address,uint256)":"205c2878"},"id":51}