{"abi":[{"type":"constructor","inputs":[{"name":"_admin","type":"address","internalType":"address"},{"name":"_verifier","type":"address","internalType":"contract ZkKycVerifier"}],"stateMutability":"nonpayable"},{"type":"function","name":"addVerifier","inputs":[{"name":"verifierAddress","type":"address","internalType":"address"}],"outputs":[],"stateMutability":"nonpayable"},{"type":"function","name":"admin","inputs":[],"outputs":[{"name":"","type":"address","internalType":"address"}],"stateMutability":"view"},{"type":"function","name":"getVerificationCount","inputs":[{"name":"user","type":"address","internalType":"address"}],"outputs":[{"name":"count","type":"uint256","internalType":"uint256"}],"stateMutability":"view"},{"type":"function","name":"hasAnyVerification","inputs":[{"name":"user","type":"address","internalType":"address"}],"outputs":[{"name":"","type":"bool","internalType":"bool"}],"stateMutability":"view"},{"type":"function","name":"isVerified","inputs":[{"name":"user","type":"address","internalType":"address"},{"name":"commitment","type":"bytes32","internalType":"bytes32"}],"outputs":[{"name":"","type":"bool","internalType":"bool"}],"stateMutability":"view"},{"type":"function","name":"registerVerification","inputs":[{"name":"user","type":"address","internalType":"address"},{"name":"commitment","type":"bytes32","internalType":"bytes32"}],"outputs":[],"stateMutability":"nonpayable"},{"type":"function","name":"registerVerificationWithProof","inputs":[{"name":"user","type":"address","internalType":"address"},{"name":"commitment","type":"bytes32","internalType":"bytes32"},{"name":"proof","type":"bytes","internalType":"bytes"}],"outputs":[],"stateMutability":"nonpayable"},{"type":"function","name":"removeVerifier","inputs":[{"name":"verifierAddress","type":"address","internalType":"address"}],"outputs":[],"stateMutability":"nonpayable"},{"type":"function","name":"revokeVerification","inputs":[{"name":"user","type":"address","internalType":"address"},{"name":"commitment","type":"bytes32","internalType":"bytes32"}],"outputs":[],"stateMutability":"nonpayable"},{"type":"function","name":"transferAdmin","inputs":[{"name":"newAdmin","type":"address","internalType":"address"}],"outputs":[],"stateMutability":"nonpayable"},{"type":"function","name":"verifiedCommitments","inputs":[{"name":"","type":"address","internalType":"address"},{"name":"","type":"bytes32","internalType":"bytes32"}],"outputs":[{"name":"","type":"bool","internalType":"bool"}],"stateMutability":"view"},{"type":"function","name":"verifier","inputs":[],"outputs":[{"name":"","type":"address","internalType":"contract ZkKycVerifier"}],"stateMutability":"view"},{"type":"function","name":"verifiers","inputs":[{"name":"","type":"address","internalType":"address"}],"outputs":[{"name":"","type":"bool","internalType":"bool"}],"stateMutability":"view"},{"type":"event","name":"AdminTransferred","inputs":[{"name":"previousAdmin","type":"address","indexed":true,"internalType":"address"},{"name":"newAdmin","type":"address","indexed":true,"internalType":"address"}],"anonymous":false},{"type":"event","name":"VerificationRegistered","inputs":[{"name":"user","type":"address","indexed":true,"internalType":"address"},{"name":"commitment","type":"bytes32","indexed":true,"internalType":"bytes32"},{"name":"verifierAddress","type":"address","indexed":true,"internalType":"address"}],"anonymous":false},{"type":"event","name":"VerificationRevoked","inputs":[{"name":"user","type":"address","indexed":true,"internalType":"address"},{"name":"commitment","type":"bytes32","indexed":true,"internalType":"bytes32"},{"name":"revokedBy","type":"address","indexed":true,"internalType":"address"}],"anonymous":false},{"type":"event","name":"VerifierAdded","inputs":[{"name":"verifierAddress","type":"address","indexed":true,"internalType":"address"}],"anonymous":false},{"type":"event","name":"VerifierRemoved","inputs":[{"name":"verifierAddress","type":"address","indexed":true,"internalType":"address"}],"anonymous":false},{"type":"error","name":"AlreadyVerified","inputs":[]},{"type":"error","name":"AlreadyVerifier","inputs":[]},{"type":"error","name":"EmptyCommitment","inputs":[]},{"type":"error","name":"NotAdmin","inputs":[]},{"type":"error","name":"NotCurrentVerifier","inputs":[]},{"type":"error","name":"NotVerifiedCommitment","inputs":[]},{"type":"error","name":"NotVerifier","inputs":[]},{"type":"error","name":"ZeroAddress","inputs":[]}],"bytecode":{"object":"0x60803460a557601f61097638819003918201601f19168301916001600160401b0383118484101760a957808492604094855283398101031260a55780516001600160a01b038116919082900360a557602001516001600160a01b038116919082900360a557801560965760018060a01b03195f5416175f5560018060a01b031960015416176001556040516108b890816100be8239f35b63d92e233d60e01b5f5260045ffd5b5f80fd5b634e487b7160e01b5f52604160045260245ffdfe6080806040526004361015610012575f80fd5b5f3560e01c9081632b7ac3f31461077d575080636c8244871461074057806375829def146106cd5780639000b3d614610634578063a1e0da3014610607578063aa8726ec1461040e578063ba03e2051461017a578063ca2dfd0a1461037e578063d610f2e1146102c3578063e39da061146101c3578063e41a36561461017a578063f017c5a6146100d65763f851a440146100ab575f80fd5b346100d2575f3660031901126100d2575f546040516001600160a01b039091168152602090f35b5f80fd5b346100d25760203660031901126100d2576100ef6107a0565b6001600160a01b03165f81815260046020526040812080549192835b83811061011d57602085604051908152f35b815f52600360205260405f2061013382856107b6565b90549060031b1c5f5260205260ff60405f205416610154575b60010161010b565b935f198114610166576001019361014c565b634e487b7160e01b5f52601160045260245ffd5b346100d25760403660031901126100d2576001600160a01b0361019b6107a0565b165f52600360205260405f206024355f52602052602060ff60405f2054166040519015158152f35b346100d25760403660031901126100d2576101dc6107a0565b60243590335f52600260205260ff60405f205416156102b4576001600160a01b03169081156102a557801561029657815f52600360205260405f20815f5260205260ff60405f20541661028757815f52600360205260405f20815f5260205260405f20600160ff19825416179055815f52600460205261025f8160405f20610849565b33917f76a941d24fc22e0d6cda6a895deb7eb1ade457e0abdf300f3901cc81d177fda85f80a4005b630231faf760e31b5f5260045ffd5b635560fe6360e11b5f5260045ffd5b63d92e233d60e01b5f5260045ffd5b6312331aab60e11b5f5260045ffd5b346100d25760403660031901126100d2576102dc6107a0565b5f5460243591906001600160a01b0316330361036f5760018060a01b031690815f52600360205260405f20815f5260205260ff60405f2054161561036057815f52600360205260405f20815f5260205260405f2060ff19815416905533917fdac129fa81d776e884c589baa3fafb00d453f1ab247fdace7bda0b0e0cf5a4ca5f80a4005b634eee0d0160e11b5f5260045ffd5b637bfa4b9f60e01b5f5260045ffd5b346100d25760203660031901126100d2576103976107a0565b5f546001600160a01b0316330361036f576001600160a01b03165f8181526002602052604090205460ff161561040157805f52600260205260405f2060ff1981541690557f44a3cd4eb5cc5748f6169df057b1cb2ae4c383e87cd94663c430e095d4cba4245f80a2005b61633f60e41b5f5260045ffd5b346100d25760603660031901126100d2576104276107a0565b6024356044359167ffffffffffffffff83116100d257366023840112156100d25782600401359067ffffffffffffffff82116100d25736602483860101116100d257335f52600260205260ff60405f205416156102b4576001600160a01b03169283156102a557821561029657835f52600360205260405f20835f5260205260ff60405f205416610287578160209160245f606460018060a01b036001541693604051978896879586936348203b0760e01b85528c600486015260408286015282604486015201848401378181018301849052601f01601f191681010301925af19081156105fc575f91610597575b501561055257815f52600360205260405f20815f5260205260405f20600160ff19825416179055815f52600460205261025f8160405f20610849565b60405162461bcd60e51b815260206004820152601c60248201527f5a4b2070726f6f6620766572696669636174696f6e206661696c6564000000006044820152606490fd5b905060203d6020116105f5575b601f8101601f1916820167ffffffffffffffff8111838210176105e1576020918391604052810103126100d2575180151581036100d25783610516565b634e487b7160e01b5f52604160045260245ffd5b503d6105a4565b6040513d5f823e3d90fd5b346100d25760203660031901126100d257602061062a6106256107a0565b6107df565b6040519015158152f35b346100d25760203660031901126100d25761064d6107a0565b5f546001600160a01b0316330361036f576001600160a01b031680156102a557805f52600260205260ff60405f2054166106be57805f52600260205260405f20600160ff198254161790557f6d05492139c5ea989514a5d2150c028041e5c087e2a39967f67dc7d2655adb815f80a2005b63046f58af60e31b5f5260045ffd5b346100d25760203660031901126100d2576106e66107a0565b5f546001600160a01b038116913383900361036f576001600160a01b03169182156102a55782907ff8ccb027dfcd135e000e9d45e6cc2d662578a8825d4c45b5e32e0adf67e79ec65f80a36001600160a01b031916175f55005b346100d25760203660031901126100d2576001600160a01b036107616107a0565b165f526002602052602060ff60405f2054166040519015158152f35b346100d2575f3660031901126100d2576001546001600160a01b03168152602090f35b600435906001600160a01b03821682036100d257565b80548210156107cb575f5260205f2001905f90565b634e487b7160e01b5f52603260045260245ffd5b6001600160a01b03165f81815260046020526040812080549290915b83811061080a57505050505f90565b815f52600360205260405f2061082082856107b6565b90549060031b1c5f5260205260ff60405f205416610840576001016107fb565b50505050600190565b8054680100000000000000008110156105e15761086b916001820181556107b6565b819291549060031b91821b915f19901b191617905556fea264697066735822122002e853b82e2780993e81731f00fb242b94bc869d20d4dd6bea48392b84c01e5c64736f6c634300081c0033","linkReferences":{}},"methodIdentifiers":{"addVerifier(address)":"9000b3d6","admin()":"f851a440","getVerificationCount(address)":"f017c5a6","hasAnyVerification(address)":"a1e0da30","isVerified(address,bytes32)":"ba03e205","registerVerification(address,bytes32)":"e39da061","registerVerificationWithProof(address,bytes32,bytes)":"aa8726ec","removeVerifier(address)":"ca2dfd0a","revokeVerification(address,bytes32)":"d610f2e1","transferAdmin(address)":"75829def","verifiedCommitments(address,bytes32)":"e41a3656","verifier()":"2b7ac3f3","verifiers(address)":"6c824487"},"id":100}