{"abi":[{"type":"constructor","inputs":[{"name":"anEntryPoint","type":"address","internalType":"contract IEntryPoint"}],"stateMutability":"nonpayable"},{"type":"fallback","stateMutability":"payable"},{"type":"receive","stateMutability":"payable"},{"type":"function","name":"entryPoint","inputs":[],"outputs":[{"name":"","type":"address","internalType":"contract IEntryPoint"}],"stateMutability":"view"},{"type":"function","name":"execute","inputs":[{"name":"target","type":"address","internalType":"address"},{"name":"value","type":"uint256","internalType":"uint256"},{"name":"data","type":"bytes","internalType":"bytes"}],"outputs":[],"stateMutability":"nonpayable"},{"type":"function","name":"executeBatch","inputs":[{"name":"calls","type":"tuple[]","internalType":"struct BaseAccount.Call[]","components":[{"name":"target","type":"address","internalType":"address"},{"name":"value","type":"uint256","internalType":"uint256"},{"name":"data","type":"bytes","internalType":"bytes"}]}],"outputs":[],"stateMutability":"nonpayable"},{"type":"function","name":"getNonce","inputs":[],"outputs":[{"name":"","type":"uint256","internalType":"uint256"}],"stateMutability":"view"},{"type":"function","name":"isValidSignature","inputs":[{"name":"hash","type":"bytes32","internalType":"bytes32"},{"name":"signature","type":"bytes","internalType":"bytes"}],"outputs":[{"name":"magicValue","type":"bytes4","internalType":"bytes4"}],"stateMutability":"view"},{"type":"function","name":"onERC1155BatchReceived","inputs":[{"name":"","type":"address","internalType":"address"},{"name":"","type":"address","internalType":"address"},{"name":"","type":"uint256[]","internalType":"uint256[]"},{"name":"","type":"uint256[]","internalType":"uint256[]"},{"name":"","type":"bytes","internalType":"bytes"}],"outputs":[{"name":"","type":"bytes4","internalType":"bytes4"}],"stateMutability":"nonpayable"},{"type":"function","name":"onERC1155Received","inputs":[{"name":"","type":"address","internalType":"address"},{"name":"","type":"address","internalType":"address"},{"name":"","type":"uint256","internalType":"uint256"},{"name":"","type":"uint256","internalType":"uint256"},{"name":"","type":"bytes","internalType":"bytes"}],"outputs":[{"name":"","type":"bytes4","internalType":"bytes4"}],"stateMutability":"nonpayable"},{"type":"function","name":"onERC721Received","inputs":[{"name":"","type":"address","internalType":"address"},{"name":"","type":"address","internalType":"address"},{"name":"","type":"uint256","internalType":"uint256"},{"name":"","type":"bytes","internalType":"bytes"}],"outputs":[{"name":"","type":"bytes4","internalType":"bytes4"}],"stateMutability":"nonpayable"},{"type":"function","name":"supportsInterface","inputs":[{"name":"id","type":"bytes4","internalType":"bytes4"}],"outputs":[{"name":"","type":"bool","internalType":"bool"}],"stateMutability":"pure"},{"type":"function","name":"validateUserOp","inputs":[{"name":"userOp","type":"tuple","internalType":"struct PackedUserOperation","components":[{"name":"sender","type":"address","internalType":"address"},{"name":"nonce","type":"uint256","internalType":"uint256"},{"name":"initCode","type":"bytes","internalType":"bytes"},{"name":"callData","type":"bytes","internalType":"bytes"},{"name":"accountGasLimits","type":"bytes32","internalType":"bytes32"},{"name":"preVerificationGas","type":"uint256","internalType":"uint256"},{"name":"gasFees","type":"bytes32","internalType":"bytes32"},{"name":"paymasterAndData","type":"bytes","internalType":"bytes"},{"name":"signature","type":"bytes","internalType":"bytes"}]},{"name":"userOpHash","type":"bytes32","internalType":"bytes32"},{"name":"missingAccountFunds","type":"uint256","internalType":"uint256"}],"outputs":[{"name":"validationData","type":"uint256","internalType":"uint256"}],"stateMutability":"nonpayable"},{"type":"error","name":"ECDSAInvalidSignature","inputs":[]},{"type":"error","name":"ECDSAInvalidSignatureLength","inputs":[{"name":"length","type":"uint256","internalType":"uint256"}]},{"type":"error","name":"ECDSAInvalidSignatureS","inputs":[{"name":"s","type":"bytes32","internalType":"bytes32"}]},{"type":"error","name":"ExecuteError","inputs":[{"name":"index","type":"uint256","internalType":"uint256"},{"name":"error","type":"bytes","internalType":"bytes"}]},{"type":"error","name":"NotFromEntryPoint","inputs":[{"name":"msgSender","type":"address","internalType":"address"},{"name":"entity","type":"address","internalType":"address"},{"name":"entryPoint","type":"address","internalType":"address"}]}],"bytecode":{"object":"0x60a03461008657601f610acc38819003918201601f19168301916001600160401b0383118484101761008a5780849260209460405283398101031261008657516001600160a01b038116810361008657608052604051610a2d908161009f8239608051818181610111015281816102ce0152818161047901528181610847015261087f0152f35b5f80fd5b634e487b7160e01b5f52604160045260245ffdfe6080806040526004361015610011575b005b5f3560e01c90816301ffc9a7146105fd57508063150b7a02146105a85780631626ba7e1461052d57806319822f7c1461042957806334fcd5be146102fd578063b0d691fe146102b9578063b61d27f614610226578063bc197c8114610191578063d087d288146100e05763f23a6e611461008757005b346100dc5760a03660031901126100dc576100a0610698565b506100a96106ae565b506084356001600160401b0381116100dc576100c990369060040161074a565b5060405163f23a6e6160e01b8152602090f35b5f80fd5b346100dc575f3660031901126100dc57604051631aab3f0d60e11b81523060048201525f60248201526020816044817f00000000000000000000000000000000000000000000000000000000000000006001600160a01b03165afa8015610186575f90610153575b602090604051908152f35b506020813d60201161017e575b8161016d602093836106c4565b810103126100dc5760209051610148565b3d9150610160565b6040513d5f823e3d90fd5b346100dc5760a03660031901126100dc576101aa610698565b506101b36106ae565b506044356001600160401b0381116100dc576101d3903690600401610768565b506064356001600160401b0381116100dc576101f3903690600401610768565b506084356001600160401b0381116100dc5761021390369060040161074a565b5060405163bc197c8160e01b8152602090f35b346100dc5760603660031901126100dc5761023f610698565b6044356001600160401b0381116100dc57366023820112156100dc5780600401356001600160401b0381116100dc5736602482840101116100dc575f926102958493610289610837565b5a936024369201610714565b916020835193019160243591f1156102a957005b6102b16108ad565b602081519101fd5b346100dc575f3660031901126100dc576040517f00000000000000000000000000000000000000000000000000000000000000006001600160a01b03168152602090f35b346100dc5760203660031901126100dc576004356001600160401b0381116100dc57366023820112156100dc5780600401356001600160401b0381116100dc573660248260051b840101116100dc57610354610837565b36829003608219015f5b8281101561000f5760248160051b85010135828112156100dc5784016024810180356001600160a01b03811681036100dc57826103b06103a55f95946064879601906107cf565b91905a923691610714565b92604460208551950193013591f1156103cb5760010161035e565b600183036103db576102b16108ad565b60646103e56108ad565b60408051635a15467560e01b815260048101949094526024840152805160448401819052839181906020018484015e5f828201840152601f01601f19168101030190fd5b346100dc5760603660031901126100dc576004356001600160401b0381116100dc5761012060031982360301126100dc576020906104c96104c06104b86104b1604435946104a360018060a01b037f0000000000000000000000000000000000000000000000000000000000000000163033823314610801565b6101048101906004016107cf565b3691610714565b6024356108c7565b90929192610901565b6001600160a01b03163003610525575f905b806104ea575b50604051908152f35b5f80808093335af1503d15610520573d610503816106f9565b9061051160405192836106c4565b81525f833d92013e5b826104e1565b61051a565b6001906104db565b346100dc5760403660031901126100dc576024356001600160401b0381116100dc576104c061056361056b92369060040161074a565b6004356108c7565b6001600160a01b03163003610598576020630b135d3f60e11b5b6040516001600160e01b03199091168152f35b60206001600160e01b0319610585565b346100dc5760803660031901126100dc576105c1610698565b506105ca6106ae565b506064356001600160401b0381116100dc576105ea90369060040161074a565b50604051630a85bd0160e11b8152602090f35b346100dc5760203660031901126100dc576004359063ffffffff60e01b82168092036100dc576020916301ffc9a760e01b8114908115610687575b8115610676575b8115610665575b8115610654575b5015158152f35b630a85bd0160e11b1490508361064d565b630271189760e51b81149150610646565b630b135d3f60e11b8114915061063f565b6306608bdf60e21b81149150610638565b600435906001600160a01b03821682036100dc57565b602435906001600160a01b03821682036100dc57565b90601f801991011681019081106001600160401b038211176106e557604052565b634e487b7160e01b5f52604160045260245ffd5b6001600160401b0381116106e557601f01601f191660200190565b929192610720826106f9565b9161072e60405193846106c4565b8294818452818301116100dc578281602093845f960137010152565b9080601f830112156100dc5781602061076593359101610714565b90565b9080601f830112156100dc578135916001600160401b0383116106e5578260051b906040519361079b60208401866106c4565b84526020808501928201019283116100dc57602001905b8282106107bf5750505090565b81358152602091820191016107b2565b903590601e19813603018212156100dc57018035906001600160401b0382116100dc576020019181360383136100dc57565b1561080b57505050565b63fe34a6d360e01b5f9081526001600160a01b0391821660045291811660245291909116604452606490fd5b303314801561087b575b610879907f00000000000000000000000000000000000000000000000000000000000000006001600160a01b03169030903390610801565b565b50337f00000000000000000000000000000000000000000000000000000000000000006001600160a01b031614610841565b3d604051906020818301016040528082525f602083013e90565b81519190604183036108f7576108f09250602082015190606060408401519301515f1a90610975565b9192909190565b50505f9160029190565b60048110156109615780610913575050565b6001810361092a5763f645eedf60e01b5f5260045ffd5b60028103610945575063fce698f760e01b5f5260045260245ffd5b60031461094f5750565b6335e2f38360e21b5f5260045260245ffd5b634e487b7160e01b5f52602160045260245ffd5b91907f7fffffffffffffffffffffffffffffff5d576e7357a4501ddfe92f46681b20a084116109ec579160209360809260ff5f9560405194855216868401526040830152606082015282805260015afa15610186575f516001600160a01b038116156109e257905f905f90565b505f906001905f90565b5050505f916003919056fea2646970667358221220a61103081ed213fe76a9585c2aad0775a3888f150e2d8b0032ab41737bf23e3064736f6c634300081c0033","linkReferences":{}},"methodIdentifiers":{"entryPoint()":"b0d691fe","execute(address,uint256,bytes)":"b61d27f6","executeBatch((address,uint256,bytes)[])":"34fcd5be","getNonce()":"d087d288","isValidSignature(bytes32,bytes)":"1626ba7e","onERC1155BatchReceived(address,address,uint256[],uint256[],bytes)":"bc197c81","onERC1155Received(address,address,uint256,uint256,bytes)":"f23a6e61","onERC721Received(address,address,uint256,bytes)":"150b7a02","supportsInterface(bytes4)":"01ffc9a7","validateUserOp((address,uint256,bytes,bytes,bytes32,uint256,bytes32,bytes,bytes),bytes32,uint256)":"19822f7c"},"id":0}