{"abi":[{"type":"constructor","inputs":[{"name":"anEntryPoint","type":"address","internalType":"contract IEntryPoint"}],"stateMutability":"nonpayable"},{"type":"fallback","stateMutability":"payable"},{"type":"receive","stateMutability":"payable"},{"type":"function","name":"authorizeDelegate","inputs":[{"name":"delegate","type":"address","internalType":"address"},{"name":"deadline","type":"uint256","internalType":"uint256"},{"name":"signature","type":"bytes","internalType":"bytes"}],"outputs":[],"stateMutability":"nonpayable"},{"type":"function","name":"eip712Domain","inputs":[],"outputs":[{"name":"fields","type":"bytes1","internalType":"bytes1"},{"name":"name","type":"string","internalType":"string"},{"name":"version","type":"string","internalType":"string"},{"name":"chainId","type":"uint256","internalType":"uint256"},{"name":"verifyingContract","type":"address","internalType":"address"},{"name":"salt","type":"bytes32","internalType":"bytes32"},{"name":"extensions","type":"uint256[]","internalType":"uint256[]"}],"stateMutability":"view"},{"type":"function","name":"entryPoint","inputs":[],"outputs":[{"name":"","type":"address","internalType":"contract IEntryPoint"}],"stateMutability":"view"},{"type":"function","name":"execute","inputs":[{"name":"target","type":"address","internalType":"address"},{"name":"value","type":"uint256","internalType":"uint256"},{"name":"data","type":"bytes","internalType":"bytes"}],"outputs":[],"stateMutability":"nonpayable"},{"type":"function","name":"executeBatch","inputs":[{"name":"calls","type":"tuple[]","internalType":"struct BaseAccount.Call[]","components":[{"name":"target","type":"address","internalType":"address"},{"name":"value","type":"uint256","internalType":"uint256"},{"name":"data","type":"bytes","internalType":"bytes"}]}],"outputs":[],"stateMutability":"nonpayable"},{"type":"function","name":"getNonce","inputs":[],"outputs":[{"name":"","type":"uint256","internalType":"uint256"}],"stateMutability":"view"},{"type":"function","name":"isDelegate","inputs":[{"name":"","type":"address","internalType":"address"}],"outputs":[{"name":"","type":"bool","internalType":"bool"}],"stateMutability":"view"},{"type":"function","name":"isValidSignature","inputs":[{"name":"hash","type":"bytes32","internalType":"bytes32"},{"name":"signature","type":"bytes","internalType":"bytes"}],"outputs":[{"name":"magicValue","type":"bytes4","internalType":"bytes4"}],"stateMutability":"view"},{"type":"function","name":"nonces","inputs":[{"name":"owner","type":"address","internalType":"address"}],"outputs":[{"name":"","type":"uint256","internalType":"uint256"}],"stateMutability":"view"},{"type":"function","name":"onERC1155BatchReceived","inputs":[{"name":"","type":"address","internalType":"address"},{"name":"","type":"address","internalType":"address"},{"name":"","type":"uint256[]","internalType":"uint256[]"},{"name":"","type":"uint256[]","internalType":"uint256[]"},{"name":"","type":"bytes","internalType":"bytes"}],"outputs":[{"name":"","type":"bytes4","internalType":"bytes4"}],"stateMutability":"nonpayable"},{"type":"function","name":"onERC1155Received","inputs":[{"name":"","type":"address","internalType":"address"},{"name":"","type":"address","internalType":"address"},{"name":"","type":"uint256","internalType":"uint256"},{"name":"","type":"uint256","internalType":"uint256"},{"name":"","type":"bytes","internalType":"bytes"}],"outputs":[{"name":"","type":"bytes4","internalType":"bytes4"}],"stateMutability":"nonpayable"},{"type":"function","name":"onERC721Received","inputs":[{"name":"","type":"address","internalType":"address"},{"name":"","type":"address","internalType":"address"},{"name":"","type":"uint256","internalType":"uint256"},{"name":"","type":"bytes","internalType":"bytes"}],"outputs":[{"name":"","type":"bytes4","internalType":"bytes4"}],"stateMutability":"nonpayable"},{"type":"function","name":"revokeDelegate","inputs":[{"name":"delegate","type":"address","internalType":"address"}],"outputs":[],"stateMutability":"nonpayable"},{"type":"function","name":"supportsInterface","inputs":[{"name":"id","type":"bytes4","internalType":"bytes4"}],"outputs":[{"name":"","type":"bool","internalType":"bool"}],"stateMutability":"pure"},{"type":"function","name":"validateUserOp","inputs":[{"name":"userOp","type":"tuple","internalType":"struct PackedUserOperation","components":[{"name":"sender","type":"address","internalType":"address"},{"name":"nonce","type":"uint256","internalType":"uint256"},{"name":"initCode","type":"bytes","internalType":"bytes"},{"name":"callData","type":"bytes","internalType":"bytes"},{"name":"accountGasLimits","type":"bytes32","internalType":"bytes32"},{"name":"preVerificationGas","type":"uint256","internalType":"uint256"},{"name":"gasFees","type":"bytes32","internalType":"bytes32"},{"name":"paymasterAndData","type":"bytes","internalType":"bytes"},{"name":"signature","type":"bytes","internalType":"bytes"}]},{"name":"userOpHash","type":"bytes32","internalType":"bytes32"},{"name":"missingAccountFunds","type":"uint256","internalType":"uint256"}],"outputs":[{"name":"validationData","type":"uint256","internalType":"uint256"}],"stateMutability":"nonpayable"},{"type":"event","name":"Delegated","inputs":[{"name":"user","type":"address","indexed":true,"internalType":"address"},{"name":"delegate","type":"address","indexed":true,"internalType":"address"},{"name":"nonce","type":"uint256","indexed":false,"internalType":"uint256"}],"anonymous":false},{"type":"event","name":"EIP712DomainChanged","inputs":[],"anonymous":false},{"type":"error","name":"ECDSAInvalidSignature","inputs":[]},{"type":"error","name":"ECDSAInvalidSignatureLength","inputs":[{"name":"length","type":"uint256","internalType":"uint256"}]},{"type":"error","name":"ECDSAInvalidSignatureS","inputs":[{"name":"s","type":"bytes32","internalType":"bytes32"}]},{"type":"error","name":"ExecuteError","inputs":[{"name":"index","type":"uint256","internalType":"uint256"},{"name":"error","type":"bytes","internalType":"bytes"}]},{"type":"error","name":"InvalidShortString","inputs":[]},{"type":"error","name":"NotFromEntryPoint","inputs":[{"name":"msgSender","type":"address","internalType":"address"},{"name":"entity","type":"address","internalType":"address"},{"name":"entryPoint","type":"address","internalType":"address"}]},{"type":"error","name":"StringTooLong","inputs":[{"name":"str","type":"string","internalType":"string"}]}],"bytecode":{"object":"0x610180806040523461018e5760208161169c80380380916100208285610192565b83398101031261018e57516001600160a01b038116810361018e576040519061004a604083610192565b60118252602082017022a4a81b9b98192232b632b3b0ba34b7b760791b815260405192610078604085610192565b600384526020840192620312e360ec1b8452608052610096816101c9565b610140526100a38461035f565b6101605251902091826101005251902080610120524660c0526040519060208201927f8b73c3c69bb8fe3d512ecc4cf759cc79239f7b179b0ffacaa9a75d522b39400f8452604083015260608201524660808201523060a082015260a0815261010d60c082610192565b51902060a0523060e0526040516112049081610498823960805181818161040d0152818161057e0152818161083a01528181610cf70152610d47015260a051816110eb015260c051816111a8015260e051816110b50152610100518161113a01526101205181611160015261014051816105c5015261016051816105ee0152f35b5f80fd5b601f909101601f19168101906001600160401b038211908210176101b557604052565b634e487b7160e01b5f52604160045260245ffd5b908151602081105f14610243575090601f8151116102035760208151910151602082106101f4571790565b5f198260200360031b1b161790565b604460209160405192839163305a27a960e01b83528160048401528051918291826024860152018484015e5f828201840152601f01601f19168101030190fd5b6001600160401b0381116101b5575f54600181811c91168015610355575b602082101461034157601f811161030f575b50602092601f82116001146102b057928192935f926102a5575b50508160011b915f199060031b1c1916175f5560ff90565b015190505f8061028d565b601f198216935f8052805f20915f5b8681106102f757508360019596106102df575b505050811b015f5560ff90565b01515f1960f88460031b161c191690555f80806102d2565b919260206001819286850151815501940192016102bf565b5f8052601f60205f20910160051c810190601f830160051c015b8181106103365750610273565b5f8155600101610329565b634e487b7160e01b5f52602260045260245ffd5b90607f1690610261565b908151602081105f1461038a575090601f8151116102035760208151910151602082106101f4571790565b6001600160401b0381116101b557600154600181811c9116801561048d575b602082101461034157601f811161045a575b50602092601f82116001146103f957928192935f926103ee575b50508160011b915f199060031b1c19161760015560ff90565b015190505f806103d5565b601f1982169360015f52805f20915f5b868110610442575083600195961061042a575b505050811b0160015560ff90565b01515f1960f88460031b161c191690555f808061041c565b91926020600181928685015181550194019201610409565b60015f52601f60205f20910160051c810190601f830160051c015b81811061048257506103bb565b5f8155600101610475565b90607f16906103a956fe6080806040526004361015610011575b005b5f3560e01c90816301ffc9a7146109e35750806307779627146109a6578063150b7a02146109515780631626ba7e146108e357806319822f7c146107f157806334fcd5be146106dd5780637ecebe00146106a557806384b0196e146105ad578063b0d691fe14610569578063b61d27f614610522578063bc197c811461048d578063d087d288146103dc578063f23a6e6114610387578063f32ca82e146101565763fa352c00146100be57005b34610152576020366003190112610152576100d7610a7e565b303314801561013c575b15610106576001600160a01b03165f908152600360205260409020805460ff19169055005b60405162461bcd60e51b815260206004820152600e60248201526d139bdd08185d5d1a1bdc9a5e995960921b6044820152606490fd5b50335f52600360205260ff60405f2054166100e1565b5f80fd5b346101525761016436610b72565b903330036101bf575050506001600160a01b03165f818152600360209081526040808320805460ff191660011790555191825230917fe5541a6b6103d4fa7e021ed54fad39c66f27a76bd13d374cf6240ae6bd0bb72b9190a3005b92909192305f52600260205260405f2054928442116103425761026461026a9260426102739560405160208101917feadb05088f3810576ab21537bad3381b56b145ba6298078d2325e35201b19a45835260018060a01b0316998a604083015289606083015260808201526080815261023960a082610aaa565b5190206102446110b2565b906040519161190160f01b83526002830152602282015220923691610afa565b90610f82565b90929192610fbc565b306001600160a01b03909116036102fd57305f52600260205260405f20908154915f1983146102e957600184930190556040519081527fe5541a6b6103d4fa7e021ed54fad39c66f27a76bd13d374cf6240ae6bd0bb72b60203092a35f908152600360205260409020805460ff19166001179055005b634e487b7160e01b5f52601160045260245ffd5b60405162461bcd60e51b815260206004820152601e60248201527f45495037373032417574683a20696e76616c6964207369676e617475726500006044820152606490fd5b60405162461bcd60e51b815260206004820152601d60248201527f45495037373032417574683a206578706972656420646561646c696e650000006044820152606490fd5b346101525760a0366003190112610152576103a0610a7e565b506103a9610a94565b506084356001600160401b038111610152576103c9903690600401610b30565b5060405163f23a6e6160e01b8152602090f35b34610152575f36600319011261015257604051631aab3f0d60e11b81523060048201525f60248201526020816044817f00000000000000000000000000000000000000000000000000000000000000006001600160a01b03165afa8015610482575f9061044f575b602090604051908152f35b506020813d60201161047a575b8161046960209383610aaa565b810103126101525760209051610444565b3d915061045c565b6040513d5f823e3d90fd5b346101525760a0366003190112610152576104a6610a7e565b506104af610a94565b506044356001600160401b038111610152576104cf903690600401610bd9565b506064356001600160401b038111610152576104ef903690600401610bd9565b506084356001600160401b0381116101525761050f903690600401610b30565b5060405163bc197c8160e01b8152602090f35b34610152575f8061054961053536610b72565b929390610540610ce0565b5a933691610afa565b9260208451940192f11561055957005b610561610d75565b602081519101fd5b34610152575f366003190112610152576040517f00000000000000000000000000000000000000000000000000000000000000006001600160a01b03168152602090f35b34610152575f366003190112610152576106496105e97f0000000000000000000000000000000000000000000000000000000000000000610d8f565b6106127f0000000000000000000000000000000000000000000000000000000000000000610eb2565b6020610657604051926106258385610aaa565b5f84525f368137604051958695600f60f81b875260e08588015260e0870190610b4e565b908582036040870152610b4e565b4660608501523060808501525f60a085015283810360c08501528180845192838152019301915f5b82811061068e57505050500390f35b83518552869550938101939281019260010161067f565b34610152576020366003190112610152576001600160a01b036106c6610a7e565b165f526002602052602060405f2054604051908152f35b34610152576020366003190112610152576004356001600160401b03811161015257366023820112156101525780600401356001600160401b038111610152573660248260051b8401011161015257610734610ce0565b36829003608219015f5b8281101561000f5760248160051b85010135828112156101525784016024810180356001600160a01b038116810361015257826107906107855f9594606487960190610c41565b91905a923691610afa565b92604460208551950193013591f1156107ab5760010161073e565b600183036107bb57610561610d75565b6107c3610d75565b906107ed604051928392635a15467560e01b84526004840152604060248401526044830190610b4e565b0390fd5b34610152576060366003190112610152576004356001600160401b0381116101525761012060031982360301126101525760209060443590610889906108819061087a9061086c7f00000000000000000000000000000000000000000000000000000000000000006001600160a01b03163033808314610caa565b610104810190600401610c41565b3691610afa565b602435610c73565b156108db575f905b806108a0575b50604051908152f35b5f80808093335af1503d156108d6573d6108b981610adf565b906108c76040519283610aaa565b81525f833d92013e5b82610897565b6108d0565b600190610891565b34610152576040366003190112610152576024356001600160401b0381116101525761091661091e913690600401610b30565b600435610c73565b15610941576020630b135d3f60e11b5b6040516001600160e01b03199091168152f35b60206001600160e01b031961092e565b346101525760803660031901126101525761096a610a7e565b50610973610a94565b506064356001600160401b03811161015257610993903690600401610b30565b50604051630a85bd0160e11b8152602090f35b34610152576020366003190112610152576001600160a01b036109c7610a7e565b165f526003602052602060ff60405f2054166040519015158152f35b34610152576020366003190112610152576004359063ffffffff60e01b8216809203610152576020916301ffc9a760e01b8114908115610a6d575b8115610a5c575b8115610a4b575b8115610a3a575b5015158152f35b630a85bd0160e11b14905083610a33565b630271189760e51b81149150610a2c565b630b135d3f60e11b81149150610a25565b6306608bdf60e21b81149150610a1e565b600435906001600160a01b038216820361015257565b602435906001600160a01b038216820361015257565b90601f801991011681019081106001600160401b03821117610acb57604052565b634e487b7160e01b5f52604160045260245ffd5b6001600160401b038111610acb57601f01601f191660200190565b929192610b0682610adf565b91610b146040519384610aaa565b829481845281830111610152578281602093845f960137010152565b9080601f8301121561015257816020610b4b93359101610afa565b90565b805180835260209291819084018484015e5f828201840152601f01601f1916010190565b906060600319830112610152576004356001600160a01b03811681036101525791602435916044356001600160401b0381116101525782602382011215610152578060040135926001600160401b0384116101525760248483010111610152576024019190565b9080601f83011215610152578135916001600160401b038311610acb578260051b906020820193610c0d6040519586610aaa565b845260208085019282010192831161015257602001905b828210610c315750505090565b8135815260209182019101610c24565b903590601e198136030182121561015257018035906001600160401b0382116101525760200191813603831361015257565b610c809161026a91610f82565b60018060a01b0316308114908115610c96575090565b90505f52600360205260ff60405f20541690565b15610cb457505050565b63fe34a6d360e01b5f9081526001600160a01b0391821660045291811660245291909116604452606490fd5b3033148015610d43575b8015610d2b575b610d29907f00000000000000000000000000000000000000000000000000000000000000006001600160a01b03169030903390610caa565b565b50335f9081526003602052604090205460ff16610cf1565b50337f00000000000000000000000000000000000000000000000000000000000000006001600160a01b031614610cea565b3d604051906020818301016040528082525f602083013e90565b60ff8114610dd55760ff811690601f8211610dc65760405191610db3604084610aaa565b6020808452838101919036833783525290565b632cd44ac360e21b5f5260045ffd5b506040515f5f548060011c9160018216918215610ea8575b602084108314610e94578385528492908115610e755750600114610e18575b610b4b92500382610aaa565b505f80805290917f290decd9548b62a8d60345a988386fc84ba6bc95484008f6362f93160ef3e5635b818310610e59575050906020610b4b92820101610e0c565b6020919350806001915483858801015201910190918392610e41565b60209250610b4b94915060ff191682840152151560051b820101610e0c565b634e487b7160e01b5f52602260045260245ffd5b92607f1692610ded565b60ff8114610ed65760ff811690601f8211610dc65760405191610db3604084610aaa565b506040515f6001548060011c9160018216918215610f78575b602084108314610e94578385528492908115610e755750600114610f1957610b4b92500382610aaa565b5060015f90815290917fb10e2d527612073b26eecdfd717e6a320cf44b4afac2b0732d9fcbe2b7fa0cf65b818310610f5c575050906020610b4b92820101610e0c565b6020919350806001915483858801015201910190918392610f44565b92607f1692610eef565b8151919060418303610fb257610fab9250602082015190606060408401519301515f1a90611030565b9192909190565b50505f9160029190565b600481101561101c5780610fce575050565b60018103610fe55763f645eedf60e01b5f5260045ffd5b60028103611000575063fce698f760e01b5f5260045260245ffd5b60031461100a5750565b6335e2f38360e21b5f5260045260245ffd5b634e487b7160e01b5f52602160045260245ffd5b91907f7fffffffffffffffffffffffffffffff5d576e7357a4501ddfe92f46681b20a084116110a7579160209360809260ff5f9560405194855216868401526040830152606082015282805260015afa15610482575f516001600160a01b0381161561109d57905f905f90565b505f906001905f90565b5050505f9160039190565b307f00000000000000000000000000000000000000000000000000000000000000006001600160a01b031614806111a5575b1561110d577f000000000000000000000000000000000000000000000000000000000000000090565b60405160208101907f8b73c3c69bb8fe3d512ecc4cf759cc79239f7b179b0ffacaa9a75d522b39400f82527f000000000000000000000000000000000000000000000000000000000000000060408201527f000000000000000000000000000000000000000000000000000000000000000060608201524660808201523060a082015260a0815261119f60c082610aaa565b51902090565b507f000000000000000000000000000000000000000000000000000000000000000046146110e456fea26469706673582212202529bd9adbd7164173665301e3931b7d2dd0c7e4c57fb3448982b5bb251c078b64736f6c634300081c0033","linkReferences":{}},"methodIdentifiers":{"authorizeDelegate(address,uint256,bytes)":"f32ca82e","eip712Domain()":"84b0196e","entryPoint()":"b0d691fe","execute(address,uint256,bytes)":"b61d27f6","executeBatch((address,uint256,bytes)[])":"34fcd5be","getNonce()":"d087d288","isDelegate(address)":"07779627","isValidSignature(bytes32,bytes)":"1626ba7e","nonces(address)":"7ecebe00","onERC1155BatchReceived(address,address,uint256[],uint256[],bytes)":"bc197c81","onERC1155Received(address,address,uint256,uint256,bytes)":"f23a6e61","onERC721Received(address,address,uint256,bytes)":"150b7a02","revokeDelegate(address)":"fa352c00","supportsInterface(bytes4)":"01ffc9a7","validateUserOp((address,uint256,bytes,bytes,bytes32,uint256,bytes32,bytes,bytes),bytes32,uint256)":"19822f7c"},"id":58}