{"abi":[{"type":"constructor","inputs":[],"stateMutability":"nonpayable"},{"type":"receive","stateMutability":"payable"},{"type":"function","name":"addStake","inputs":[{"name":"unstakeDelaySec","type":"uint32","internalType":"uint32"}],"outputs":[],"stateMutability":"payable"},{"type":"function","name":"balanceOf","inputs":[{"name":"account","type":"address","internalType":"address"}],"outputs":[{"name":"","type":"uint256","internalType":"uint256"}],"stateMutability":"view"},{"type":"function","name":"delegateAndRevert","inputs":[{"name":"target","type":"address","internalType":"address"},{"name":"data","type":"bytes","internalType":"bytes"}],"outputs":[],"stateMutability":"nonpayable"},{"type":"function","name":"depositTo","inputs":[{"name":"account","type":"address","internalType":"address"}],"outputs":[],"stateMutability":"payable"},{"type":"function","name":"eip712Domain","inputs":[],"outputs":[{"name":"fields","type":"bytes1","internalType":"bytes1"},{"name":"name","type":"string","internalType":"string"},{"name":"version","type":"string","internalType":"string"},{"name":"chainId","type":"uint256","internalType":"uint256"},{"name":"verifyingContract","type":"address","internalType":"address"},{"name":"salt","type":"bytes32","internalType":"bytes32"},{"name":"extensions","type":"uint256[]","internalType":"uint256[]"}],"stateMutability":"view"},{"type":"function","name":"getCurrentUserOpHash","inputs":[],"outputs":[{"name":"","type":"bytes32","internalType":"bytes32"}],"stateMutability":"view"},{"type":"function","name":"getDepositInfo","inputs":[{"name":"account","type":"address","internalType":"address"}],"outputs":[{"name":"info","type":"tuple","internalType":"struct IStakeManager.DepositInfo","components":[{"name":"deposit","type":"uint256","internalType":"uint256"},{"name":"staked","type":"bool","internalType":"bool"},{"name":"stake","type":"uint112","internalType":"uint112"},{"name":"unstakeDelaySec","type":"uint32","internalType":"uint32"},{"name":"withdrawTime","type":"uint48","internalType":"uint48"}]}],"stateMutability":"view"},{"type":"function","name":"getDomainSeparatorV4","inputs":[],"outputs":[{"name":"","type":"bytes32","internalType":"bytes32"}],"stateMutability":"view"},{"type":"function","name":"getNonce","inputs":[{"name":"sender","type":"address","internalType":"address"},{"name":"key","type":"uint192","internalType":"uint192"}],"outputs":[{"name":"nonce","type":"uint256","internalType":"uint256"}],"stateMutability":"view"},{"type":"function","name":"getPackedUserOpTypeHash","inputs":[],"outputs":[{"name":"","type":"bytes32","internalType":"bytes32"}],"stateMutability":"pure"},{"type":"function","name":"getSenderAddress","inputs":[{"name":"initCode","type":"bytes","internalType":"bytes"}],"outputs":[],"stateMutability":"nonpayable"},{"type":"function","name":"getUserOpHash","inputs":[{"name":"userOp","type":"tuple","internalType":"struct PackedUserOperation","components":[{"name":"sender","type":"address","internalType":"address"},{"name":"nonce","type":"uint256","internalType":"uint256"},{"name":"initCode","type":"bytes","internalType":"bytes"},{"name":"callData","type":"bytes","internalType":"bytes"},{"name":"accountGasLimits","type":"bytes32","internalType":"bytes32"},{"name":"preVerificationGas","type":"uint256","internalType":"uint256"},{"name":"gasFees","type":"bytes32","internalType":"bytes32"},{"name":"paymasterAndData","type":"bytes","internalType":"bytes"},{"name":"signature","type":"bytes","internalType":"bytes"}]}],"outputs":[{"name":"","type":"bytes32","internalType":"bytes32"}],"stateMutability":"view"},{"type":"function","name":"handleAggregatedOps","inputs":[{"name":"opsPerAggregator","type":"tuple[]","internalType":"struct IEntryPoint.UserOpsPerAggregator[]","components":[{"name":"userOps","type":"tuple[]","internalType":"struct PackedUserOperation[]","components":[{"name":"sender","type":"address","internalType":"address"},{"name":"nonce","type":"uint256","internalType":"uint256"},{"name":"initCode","type":"bytes","internalType":"bytes"},{"name":"callData","type":"bytes","internalType":"bytes"},{"name":"accountGasLimits","type":"bytes32","internalType":"bytes32"},{"name":"preVerificationGas","type":"uint256","internalType":"uint256"},{"name":"gasFees","type":"bytes32","internalType":"bytes32"},{"name":"paymasterAndData","type":"bytes","internalType":"bytes"},{"name":"signature","type":"bytes","internalType":"bytes"}]},{"name":"aggregator","type":"address","internalType":"contract IAggregator"},{"name":"signature","type":"bytes","internalType":"bytes"}]},{"name":"beneficiary","type":"address","internalType":"address payable"}],"outputs":[],"stateMutability":"nonpayable"},{"type":"function","name":"handleOps","inputs":[{"name":"ops","type":"tuple[]","internalType":"struct PackedUserOperation[]","components":[{"name":"sender","type":"address","internalType":"address"},{"name":"nonce","type":"uint256","internalType":"uint256"},{"name":"initCode","type":"bytes","internalType":"bytes"},{"name":"callData","type":"bytes","internalType":"bytes"},{"name":"accountGasLimits","type":"bytes32","internalType":"bytes32"},{"name":"preVerificationGas","type":"uint256","internalType":"uint256"},{"name":"gasFees","type":"bytes32","internalType":"bytes32"},{"name":"paymasterAndData","type":"bytes","internalType":"bytes"},{"name":"signature","type":"bytes","internalType":"bytes"}]},{"name":"beneficiary","type":"address","internalType":"address payable"}],"outputs":[],"stateMutability":"nonpayable"},{"type":"function","name":"incrementNonce","inputs":[{"name":"key","type":"uint192","internalType":"uint192"}],"outputs":[],"stateMutability":"nonpayable"},{"type":"function","name":"innerHandleOp","inputs":[{"name":"callData","type":"bytes","internalType":"bytes"},{"name":"opInfo","type":"tuple","internalType":"struct EntryPoint.UserOpInfo","components":[{"name":"mUserOp","type":"tuple","internalType":"struct EntryPoint.MemoryUserOp","components":[{"name":"sender","type":"address","internalType":"address"},{"name":"nonce","type":"uint256","internalType":"uint256"},{"name":"verificationGasLimit","type":"uint256","internalType":"uint256"},{"name":"callGasLimit","type":"uint256","internalType":"uint256"},{"name":"paymasterVerificationGasLimit","type":"uint256","internalType":"uint256"},{"name":"paymasterPostOpGasLimit","type":"uint256","internalType":"uint256"},{"name":"preVerificationGas","type":"uint256","internalType":"uint256"},{"name":"paymaster","type":"address","internalType":"address"},{"name":"maxFeePerGas","type":"uint256","internalType":"uint256"},{"name":"maxPriorityFeePerGas","type":"uint256","internalType":"uint256"}]},{"name":"userOpHash","type":"bytes32","internalType":"bytes32"},{"name":"prefund","type":"uint256","internalType":"uint256"},{"name":"contextOffset","type":"uint256","internalType":"uint256"},{"name":"preOpGas","type":"uint256","internalType":"uint256"}]},{"name":"context","type":"bytes","internalType":"bytes"}],"outputs":[{"name":"actualGasCost","type":"uint256","internalType":"uint256"}],"stateMutability":"nonpayable"},{"type":"function","name":"nonceSequenceNumber","inputs":[{"name":"","type":"address","internalType":"address"},{"name":"","type":"uint192","internalType":"uint192"}],"outputs":[{"name":"","type":"uint256","internalType":"uint256"}],"stateMutability":"view"},{"type":"function","name":"senderCreator","inputs":[],"outputs":[{"name":"","type":"address","internalType":"contract ISenderCreator"}],"stateMutability":"view"},{"type":"function","name":"supportsInterface","inputs":[{"name":"interfaceId","type":"bytes4","internalType":"bytes4"}],"outputs":[{"name":"","type":"bool","internalType":"bool"}],"stateMutability":"view"},{"type":"function","name":"unlockStake","inputs":[],"outputs":[],"stateMutability":"nonpayable"},{"type":"function","name":"withdrawStake","inputs":[{"name":"withdrawAddress","type":"address","internalType":"address payable"}],"outputs":[],"stateMutability":"nonpayable"},{"type":"function","name":"withdrawTo","inputs":[{"name":"withdrawAddress","type":"address","internalType":"address payable"},{"name":"withdrawAmount","type":"uint256","internalType":"uint256"}],"outputs":[],"stateMutability":"nonpayable"},{"type":"event","name":"AccountDeployed","inputs":[{"name":"userOpHash","type":"bytes32","indexed":true,"internalType":"bytes32"},{"name":"sender","type":"address","indexed":true,"internalType":"address"},{"name":"factory","type":"address","indexed":false,"internalType":"address"},{"name":"paymaster","type":"address","indexed":false,"internalType":"address"}],"anonymous":false},{"type":"event","name":"BeforeExecution","inputs":[],"anonymous":false},{"type":"event","name":"Deposited","inputs":[{"name":"account","type":"address","indexed":true,"internalType":"address"},{"name":"totalDeposit","type":"uint256","indexed":false,"internalType":"uint256"}],"anonymous":false},{"type":"event","name":"EIP712DomainChanged","inputs":[],"anonymous":false},{"type":"event","name":"EIP7702AccountInitialized","inputs":[{"name":"userOpHash","type":"bytes32","indexed":true,"internalType":"bytes32"},{"name":"sender","type":"address","indexed":true,"internalType":"address"},{"name":"delegate","type":"address","indexed":true,"internalType":"address"}],"anonymous":false},{"type":"event","name":"IgnoredInitCode","inputs":[{"name":"userOpHash","type":"bytes32","indexed":true,"internalType":"bytes32"},{"name":"sender","type":"address","indexed":true,"internalType":"address"},{"name":"unusedFactory","type":"address","indexed":false,"internalType":"address"}],"anonymous":false},{"type":"event","name":"PostOpRevertReason","inputs":[{"name":"userOpHash","type":"bytes32","indexed":true,"internalType":"bytes32"},{"name":"sender","type":"address","indexed":true,"internalType":"address"},{"name":"nonce","type":"uint256","indexed":false,"internalType":"uint256"},{"name":"revertReason","type":"bytes","indexed":false,"internalType":"bytes"}],"anonymous":false},{"type":"event","name":"SignatureAggregatorChanged","inputs":[{"name":"aggregator","type":"address","indexed":true,"internalType":"address"}],"anonymous":false},{"type":"event","name":"StakeLocked","inputs":[{"name":"account","type":"address","indexed":true,"internalType":"address"},{"name":"totalStaked","type":"uint256","indexed":false,"internalType":"uint256"},{"name":"unstakeDelaySec","type":"uint256","indexed":false,"internalType":"uint256"}],"anonymous":false},{"type":"event","name":"StakeUnlocked","inputs":[{"name":"account","type":"address","indexed":true,"internalType":"address"},{"name":"withdrawTime","type":"uint256","indexed":false,"internalType":"uint256"}],"anonymous":false},{"type":"event","name":"StakeWithdrawn","inputs":[{"name":"account","type":"address","indexed":true,"internalType":"address"},{"name":"withdrawAddress","type":"address","indexed":false,"internalType":"address"},{"name":"amount","type":"uint256","indexed":false,"internalType":"uint256"}],"anonymous":false},{"type":"event","name":"UserOperationEvent","inputs":[{"name":"userOpHash","type":"bytes32","indexed":true,"internalType":"bytes32"},{"name":"sender","type":"address","indexed":true,"internalType":"address"},{"name":"paymaster","type":"address","indexed":true,"internalType":"address"},{"name":"nonce","type":"uint256","indexed":false,"internalType":"uint256"},{"name":"success","type":"bool","indexed":false,"internalType":"bool"},{"name":"actualGasCost","type":"uint256","indexed":false,"internalType":"uint256"},{"name":"actualGasUsed","type":"uint256","indexed":false,"internalType":"uint256"}],"anonymous":false},{"type":"event","name":"UserOperationPrefundTooLow","inputs":[{"name":"userOpHash","type":"bytes32","indexed":true,"internalType":"bytes32"},{"name":"sender","type":"address","indexed":true,"internalType":"address"},{"name":"nonce","type":"uint256","indexed":false,"internalType":"uint256"}],"anonymous":false},{"type":"event","name":"UserOperationRevertReason","inputs":[{"name":"userOpHash","type":"bytes32","indexed":true,"internalType":"bytes32"},{"name":"sender","type":"address","indexed":true,"internalType":"address"},{"name":"nonce","type":"uint256","indexed":false,"internalType":"uint256"},{"name":"revertReason","type":"bytes","indexed":false,"internalType":"bytes"}],"anonymous":false},{"type":"event","name":"Withdrawn","inputs":[{"name":"account","type":"address","indexed":true,"internalType":"address"},{"name":"withdrawAddress","type":"address","indexed":false,"internalType":"address"},{"name":"amount","type":"uint256","indexed":false,"internalType":"uint256"}],"anonymous":false},{"type":"error","name":"DelegateAndRevert","inputs":[{"name":"success","type":"bool","internalType":"bool"},{"name":"ret","type":"bytes","internalType":"bytes"}]},{"type":"error","name":"DepositWithdrawalFailed","inputs":[{"name":"account","type":"address","internalType":"address"},{"name":"withdrawAddress","type":"address","internalType":"address"},{"name":"amount","type":"uint256","internalType":"uint256"},{"name":"revertReason","type":"bytes","internalType":"bytes"}]},{"type":"error","name":"Eip7702SenderNotDelegate","inputs":[{"name":"sender","type":"address","internalType":"address"}]},{"type":"error","name":"Eip7702SenderWithoutCode","inputs":[{"name":"sender","type":"address","internalType":"address"}]},{"type":"error","name":"FailedOp","inputs":[{"name":"opIndex","type":"uint256","internalType":"uint256"},{"name":"reason","type":"string","internalType":"string"}]},{"type":"error","name":"FailedOpWithRevert","inputs":[{"name":"opIndex","type":"uint256","internalType":"uint256"},{"name":"reason","type":"string","internalType":"string"},{"name":"inner","type":"bytes","internalType":"bytes"}]},{"type":"error","name":"FailedSendToBeneficiary","inputs":[{"name":"beneficiary","type":"address","internalType":"address"},{"name":"amount","type":"uint256","internalType":"uint256"},{"name":"revertData","type":"bytes","internalType":"bytes"}]},{"type":"error","name":"InsufficientDeposit","inputs":[{"name":"currentDeposit","type":"uint256","internalType":"uint256"},{"name":"withdrawAmount","type":"uint256","internalType":"uint256"}]},{"type":"error","name":"InternalFunction","inputs":[]},{"type":"error","name":"InvalidBeneficiary","inputs":[{"name":"beneficiary","type":"address","internalType":"address"}]},{"type":"error","name":"InvalidPaymaster","inputs":[{"name":"paymaster","type":"address","internalType":"address"}]},{"type":"error","name":"InvalidPaymasterData","inputs":[{"name":"paymasterAndDataLength","type":"uint256","internalType":"uint256"}]},{"type":"error","name":"InvalidPaymasterSignatureLength","inputs":[{"name":"dataLength","type":"uint256","internalType":"uint256"},{"name":"pmSignatureLength","type":"uint256","internalType":"uint256"}]},{"type":"error","name":"InvalidShortString","inputs":[]},{"type":"error","name":"InvalidStake","inputs":[{"name":"msgValue","type":"uint256","internalType":"uint256"},{"name":"currentStake","type":"uint256","internalType":"uint256"}]},{"type":"error","name":"InvalidUnstakeDelay","inputs":[{"name":"newUnstakeDelaySec","type":"uint256","internalType":"uint256"},{"name":"currentUnstakeDelaySec","type":"uint256","internalType":"uint256"}]},{"type":"error","name":"NotStaked","inputs":[{"name":"currentStake","type":"uint256","internalType":"uint256"},{"name":"unstakeDelaySec","type":"uint256","internalType":"uint256"},{"name":"staked","type":"bool","internalType":"bool"}]},{"type":"error","name":"PostOpReverted","inputs":[{"name":"returnData","type":"bytes","internalType":"bytes"}]},{"type":"error","name":"Reentrancy","inputs":[]},{"type":"error","name":"SenderAddressResult","inputs":[{"name":"sender","type":"address","internalType":"address"}]},{"type":"error","name":"SignatureValidationFailed","inputs":[{"name":"aggregator","type":"address","internalType":"address"}]},{"type":"error","name":"StakeNotUnlocked","inputs":[{"name":"withdrawTime","type":"uint256","internalType":"uint256"},{"name":"blockTimestamp","type":"uint256","internalType":"uint256"}]},{"type":"error","name":"StakeWithdrawalFailed","inputs":[{"name":"account","type":"address","internalType":"address"},{"name":"withdrawAddress","type":"address","internalType":"address"},{"name":"amount","type":"uint256","internalType":"uint256"},{"name":"revertReason","type":"bytes","internalType":"bytes"}]},{"type":"error","name":"StringTooLong","inputs":[{"name":"str","type":"string","internalType":"string"}]},{"type":"error","name":"WithdrawalNotDue","inputs":[{"name":"withdrawTime","type":"uint256","internalType":"uint256"},{"name":"blockTimestamp","type":"uint256","internalType":"uint256"}]}],"bytecode":{"object":"0x6101806040523461019557604051610018604082610199565b600781526020810190664552433433333760c81b82526040519161003d604084610199565b600183526020830191603160f81b8352610056816101bc565b6101205261006384610357565b61014052519020918260e05251902080610100524660a0526040519060208201927f8b73c3c69bb8fe3d512ecc4cf759cc79239f7b179b0ffacaa9a75d522b39400f8452604083015260608201524660808201523060a082015260a081526100cc60c082610199565b5190206080523060c0526040516103a98082016001600160401b03811183821017610181578291614403833903905ff080156101765761016052604051613f7390816104908239608051816125e5015260a051816126a2015260c051816125af015260e051816126340152610100518161265a015261012051816112130152610140518161123c0152610160518181816110d70152818161178e01528181613bbb0152613e150152f35b6040513d5f823e3d90fd5b634e487b7160e01b5f52604160045260245ffd5b5f80fd5b601f909101601f19168101906001600160401b0382119082101761018157604052565b908151602081105f14610236575090601f8151116101f65760208151910151602082106101e7571790565b5f198260200360031b1b161790565b604460209160405192839163305a27a960e01b83528160048401528051918291826024860152018484015e5f828201840152601f01601f19168101030190fd5b6001600160401b03811161018157600254600181811c9116801561034d575b602082101461033957601f8111610306575b50602092601f82116001146102a557928192935f9261029a575b50508160011b915f199060031b1c19161760025560ff90565b015190505f80610281565b601f1982169360025f52805f20915f5b8681106102ee57508360019596106102d6575b505050811b0160025560ff90565b01515f1960f88460031b161c191690555f80806102c8565b919260206001819286850151815501940192016102b5565b60025f52601f60205f20910160051c810190601f830160051c015b81811061032e5750610267565b5f8155600101610321565b634e487b7160e01b5f52602260045260245ffd5b90607f1690610255565b908151602081105f14610382575090601f8151116101f65760208151910151602082106101e7571790565b6001600160401b03811161018157600354600181811c91168015610485575b602082101461033957601f8111610452575b50602092601f82116001146103f157928192935f926103e6575b50508160011b915f199060031b1c19161760035560ff90565b015190505f806103cd565b601f1982169360035f52805f20915f5b86811061043a5750836001959610610422575b505050811b0160035560ff90565b01515f1960f88460031b161c191690555f8080610414565b91926020600181928685015181550194019201610401565b60035f52601f60205f20910160051c810190601f830160051c015b81811061047a57506103b3565b5f815560010161046d565b90607f16906103a156fe6101806040526004361015610024575b3615610019575f80fd5b6100223361235a565b005b5f610140525f3560e01c806242dc53146119e557806301ffc9a7146119475780630396cb60146117bd57806309ccb880146117765780630bd28e3b1461171b57806313c65a6e146116fe578063154e58dc146116c15780631b2e01b814611669578063205c28781461158457806322cdde4c1461153d57806335567e1a146114d85780635287ce12146113eb57806370a08231146113ab578063765e827f146112fe57806384b0196e146111f8578063850aaf621461116c5780639b249f6914611070578063b0a398d11461104e578063b760faf914611032578063bb9fe6bf14610f3d578063c23a5cea14610dfe5763dbed18e00361000f5734610c505761012c36611f66565b6101005260e05233321480610df5575b15610de0576101405190815b60e0518110610c70575061015b8261221e565b61012052610140516080526101405160c0525b60e05160c05110610279577fbb47ee3e183a558b1a2ff0874b079f3fc5478b7454eacf2bfc5af2ff5878f9726101405161014051a161014051608081905290815b60e05181106101cc576101c583610100516134f7565b6101405180f35b6102216101dc8260e051856123e8565b6001600160a01b036101f06020830161243f565b167f575ff3acadd5ab348fe1855e217e0f3678f8d767d7494c9f9fefbee2e17cca4d6101405161014051a28061240a565b9061014051915b80831061023a575050506001016101af565b90919460019061026761024e8885876122d0565b61025d60805161012051612307565b5190608051613157565b01958160805101608052019190610228565b61028860c05160e051836123e8565b610292818061240a565b60a052906001600160a01b03906102ab9060200161243f565b61014051911691905b60a05181106102d85750505060a05160805101608052600160c0510160c05261016e565b6102e9816080510161012051612307565b516102f78260a051856122d0565b61014051915a8151926001600160a01b036103118261243f565b168452602081810135908501526001600160801b036080808301358281166060880152811c604087015260a083013560c0808801919091528301359182166101008701521c61012085015261036960e0820182612453565b9081610bdc575b50506040519361037f826120f7565b6020850152846040526040810151946001600160781b038660c08401511760608401511760808401511760a084015117610100840151176101208401511711610b945750604081015160608201510160808201510160a08201510160c0820151016101008201510294856040860152845160018060a01b038151169061041761040b6040870187612453565b90898d60805101613b3a565b60e001516101405197906001600160a01b03168015610b63575b8751604080820151915190516020808c01516306608bdf60e21b918301918252919c6001600160a01b03909316939290918d91610472918c60248501613ef7565b03601f1981018d52610484908d611e9b565b61014051908c5190846101405190602095f161014051519a3d602003610b58575b60405215610aaa575015610a4b575b505060018060a01b03825116602083015190610140515260016020526040610140512060018060c01b038260401c165f526020526001600160401b0360405f20918254926105018461207c565b905516036109fb575a8403116109ab5760e001516060906001600160a01b0316610756575b606084015261054593929160809160a00135905a900301910152613969565b916001600160a01b0316860361070f57610673575061056390613969565b916001600160a01b031661062c5761057e57506001016102b4565b6105dc5760408051631101335b60e11b815260805190920160048301526024820152602160448201527f41413332207061796d61737465722065787069726564206f72206e6f742064756064820152606560f81b608482015260a490fd5b60408051631101335b60e11b815260805190920160048301526024820152602060448201527f41413337207061796d617374657220696e76616c20626c6f636b2072616e67656064820152608490fd5b60848360405190631101335b60e11b825260805101600482015260406024820152601460448201527320a0999a1039b4b3b730ba3ab9329032b93937b960611b6064820152fd5b826084916106c25760408051631101335b60e11b8152608051909201600483015260248201526017604482015276414132322065787069726564206f72206e6f742064756560481b6064820152fd5b60408051631101335b60e11b815260805190920160048301526024820152601e60448201527f41413237206f7574736964652076616c696420626c6f636b2072616e676500006064820152fd5b60848460405190631101335b60e11b825260805101600482015260406024820152601460448201527320a0991a1039b4b3b730ba3ab9329032b93937b960611b6064820152fd5b94505a835160e0810151604086015192979261077a916001600160a01b0316613f19565b1561095b576080015195604051966020860151976107c2816107b460408a0151602083019c8d6314add44b60e21b90528960248501613ef7565b03601f198101835282611e9b565b8651608060018060a01b0360e08301511691015161014051918b61014051928551926101405191f1983d908161014051843e519482519a604084019b8c51911561090257604014908115916108ee575b506108825750601f01601f1916016040819052915a900311610835575094610526565b631101335b60e11b81526080518801600482015260406024820152602060448201527f41413336206f76657220706d566572696669636174696f6e4761734c696d69746064820152608490fd5b8b6108ea61088e61257f565b6040519384936365c8fd4d60e01b85526080510160048501526024840152601d60648401527f41413335206d616c666f726d6564207061796d61737465722064617461000000608484015260a0604484015260a4830190611fcc565b0390fd5b601f01601f1916820183141590505f610812565b828e6108ea61090f61257f565b6040519384936365c8fd4d60e01b85526080510160048501526024840152600d60648401526c10504cccc81c995d995c9d1959609a1b608484015260a0604484015260a4830190611fcc565b60848860405190631101335b60e11b825260805101600482015260406024820152601e60448201527f41413331207061796d6173746572206465706f73697420746f6f206c6f7700006064820152fd5b60848760405190631101335b60e11b825260805101600482015260406024820152601e60448201527f41413236206f76657220766572696669636174696f6e4761734c696d697400006064820152fd5b60848860405190631101335b60e11b825260805101600482015260406024820152601a60448201527f4141323520696e76616c6964206163636f756e74206e6f6e63650000000000006064820152fd5b610a5491613f19565b15610a60578b806104b4565b60848860405190631101335b60e11b825260805101600482015260406024820152601760448201527610504c8c48191a591b89dd081c185e481c1c99599d5b99604a1b6064820152fd5b8b903b610afd5760408051631101335b60e11b815260805190920160048301526024820152601960448201527810504c8c081858d8dbdd5b9d081b9bdd0819195c1b1bde5959603a1b6064820152608490fd5b610b0561257f565b6040516365c8fd4d60e01b8152608051909201600483015260606024830152600d60648301526c10504c8cc81c995d995c9d1959609a1b608483015260a0604483015281906108ea9060a4830190611fcc565b6101405191506104a5565b6101408051849052516020819052604090205490985081811115610b8d5750610140515b97610431565b8103610b87565b631101335b60e11b81526080518801600482015260406024820152601860448201527741413934206761732076616c756573206f766572666c6f7760401b6064820152608490fd5b60348210610c575781601411610c505780359160248110610c5057603411610c50576024810135608090811c60a0880152601490910135811c90860152606081901c15610c325760601c60e08501528980610370565b6101408051636c66594960e11b905260609190911c60045251602490fd5b6101405180fd5b5063120aaab560e01b6101405152600452602461014051fd5b610c7d8160e051846123e8565b92610c88848061240a565b91906001600160a01b03610c9e6020880161243f565b169560018714610dc75786610cbb575b5050019250600101610148565b806040610cc9920190612453565b91873b15610c505791604051928391632dd8113360e01b835286604484016040600486015252606483019160648860051b85010192816101405161011e1982360301915b8b8210610d8b5750505050508291610d3591600319848303016024850152610140519561233a565b0381610140518a5af19081610d70575b50610d63578463086a9f7560e41b6101405152600452602461014051fd5b929350839260015f610cae565b61014051610d7d91611e9b565b61014051610c50575f610d45565b91939650919394606319898203018552863584811215610c50576020610db6600193858394016124b6565b980195019201889695949391610d0d565b8663086a9f7560e41b6101405152600452602461014051fd5b63558a1e0360e11b6101405152600461014051fd5b50333b1561013c565b34610c50576020366003190112610c5057610e17611f0d565b33610140515261014051602052600160406101405120019081549165ffffffffffff6001600160701b038460081c1693610e6160ff821663ffffffff8360781c16878015156123b3565b60981c168015610f2157428111610f0557508054610100600160c81b0319169055604080516001600160a01b03831681526020810184905233917fb7c918e0e249f999e965cafeb6c664271b3f4317d296461500e71da39f0cbda391a261014051808080856001600160a01b0386165af1610eda612097565b9015610ee7576101405180f35b6108ea90604051938493630373c21f60e21b855233600486016120c6565b632b0e998960e11b610140515260045242602452604461014051fd5b637de810eb60e11b610140515260045242602452604461014051fd5b34610c505761014051366003190112610c505733610140515261014051602052600160406101405120018054610f9e63ffffffff8260781c16918260ff6001600160701b038360081c16921691610f988383838115156123b3565b826123b3565b65ffffffffffff4216019065ffffffffffff821161101857805460ff65ffffffffffff60981b01191665ffffffffffff60981b609884901b1617905560405165ffffffffffff909116815233907ffa9b3c14cc825c412c9ed81b3ba365a5b459439403f18829e572ed53a4180f0a90602090a26101405180f35b634e487b7160e01b61014051526011600452602461014051fd5b6020366003190112610c50576101c5611049611f0d565b61235a565b34610c505761014051366003190112610c50576020610140515c604051908152f35b34610c50576020366003190112610c50576004356001600160401b038111610c505760206110a56110c8923690600401611f23565b604051632b870d1b60e11b8152600481018490529384928392602484019161233a565b03816101405160018060a01b037f0000000000000000000000000000000000000000000000000000000000000000165af190811561115e57610140519161112f575b506101408051633653dc0360e11b90526001600160a01b039190911660045251602490fd5b611151915060203d602011611157575b6111498183611e9b565b81019061231b565b8161110a565b503d61113f565b6040513d61014051823e3d90fd5b34610c50576040366003190112610c5057611185611f0d565b6024356001600160401b038111610c50576111a4903690600401611f23565b604051929181908437820190610140518252610140519280610140519303915af46111cd612097565b60408051632650415560e21b81529215156004840152602483015281906108ea906044830190611fcc565b34610c505761014051366003190112610c505761129c6112377f000000000000000000000000000000000000000000000000000000000000000061372d565b6112607f0000000000000000000000000000000000000000000000000000000000000000613853565b604051906020906112aa906112758385611e9b565b6101405184525f368137604051958695600f60f81b875260e08588015260e0870190611fcc565b908582036040870152611fcc565b4660608501523060808501526101405160a085015283810360c0850152818084519283815201930191610140515b8281106112e757505050500390f35b8351855286955093810193928101926001016112d8565b34610c505761130c36611f66565b919091333214806113a2575b15610de0576113268361221e565b61133181858561279e565b5061014051927fbb47ee3e183a558b1a2ff0874b079f3fc5478b7454eacf2bfc5af2ff5878f9728480a161014051915b858310611372576101c585856134f7565b9091936001906113986113868789876122d0565b6113908886612307565b519088613157565b0194019190611361565b50333b15611318565b34610c50576020366003190112610c50576001600160a01b036113cc611f0d565b1661014051526101405160205260206040610140512054604051908152f35b34610c50576020366003190112610c5057611404611f0d565b60405161141081611e35565b61014051815261014051602082015261014051604082015261014051606082015260806101405191015260018060a01b031661014051526101405160205260a06040610140512065ffffffffffff60405161146a81611e35565b63ffffffff60018454948584520154916001600160701b036020820160ff8516151581526040830190828660081c1682528660806060860195878960781c168752019660981c1686526040519788525115156020880152511660408601525116606084015251166080820152f35b34610c50576040366003190112610c505760206114f3611f0d565b6114fb611f50565b9060018060a01b03166101405152600182526040610140512060018060c01b0382165f52825260405f2054604051916001600160401b03199060401b16178152f35b34610c50576020366003190112610c50576004356001600160401b038111610c50576101206003198236030112610c505761157c6020916004016120f7565b604051908152f35b34610c50576040366003190112610c505761159d611f0d565b60243590336101405152610140516020526040610140512082815480821161164e57906115c99161208a565b9055604080516001600160a01b03831681526020810184905233917fd1c19fbcd4551a5edfb66d43d2e337c04837afda3482b42bdf569a8fccdae5fb91a261014051808080856001600160a01b0386165af1611623612097565b9015611630576101405180f35b6108ea90604051938493639f3d693360e01b855233600486016120c6565b6312e1fa3760e11b6101405152600452602452604461014051fd5b34610c50576040366003190112610c5057611682611f0d565b61168a611f50565b9060018060a01b031661014051526001602052604061014051209060018060c01b03165f52602052602060405f2054604051908152f35b34610c505761014051366003190112610c505760206040517f29a0bca4af4be3421398da00295e58e6d7de38cb492214754cb6a47507dd6f8e8152f35b34610c505761014051366003190112610c5057602061157c6125ac565b34610c50576020366003190112610c50576004356001600160c01b0381168103610c50573361014051526001602052604061014051209060018060c01b03165f5260205260405f2061176d815461207c565b90556101405180f35b34610c505761014051366003190112610c50576040517f00000000000000000000000000000000000000000000000000000000000000006001600160a01b03168152602090f35b6020366003190112610c505760043563ffffffff8116808203610c50573361014051526101405160205261190f6001600160701b03604061014051209361182460018601549163ffffffff8360781c169061181b828289151561200a565b8187101561200a565b60081c16926118556118363486612032565b946118448134881515612053565b346001600160701b03871115612053565b546040519061186382611e35565b8152600160208083018281526001600160701b0387166040808601918252606086018881526101408051608089019081528151339052905195869052919094209551865591519490930180549351925191516001600160c81b031990941660ff951515959095169490941760089290921b6effffffffffffffffffffffffffff00169190911760789190911b63ffffffff60781b161760989190911b65ffffffffffff60981b16179055565b60405191825260208201527fa5ae833d0bb1dcd632d98a8b70973e8516812898e19bf27b70071ebc8dc52c0160403392a26101405180f35b34610c50576020366003190112610c505760043563ffffffff60e01b8116809103610c505760209063d9934b3f60e01b81149081156119d4575b81156119c3575b81156119b2575b81156119a1575b506040519015158152f35b6301ffc9a760e01b14905082611996565b633e84f02160e01b8114915061198f565b63cf28ef9760e01b81149150611988565b63283f548960e01b81149150611981565b34611d5957610200366003190112611d59576004356001600160401b038111611d595736602382011215611d5957611a27903690602481600401359101611ed7565b36602319016101c08112611d595761014060405191611a4583611e35565b12611d5957604051611a5681611e64565b6024356001600160a01b0381168103611d5957815260443560208201526064356040820152608435606082015260a435608082015260c43560a082015260e43560c0820152610104356001600160a01b0381168103611d595760e082015261012435610100820152610144356101208201528152602081019161016435835260408201906101843582526101a435606084015260808301916101c43583526101e4356001600160401b038111611d5957611b14903690600401611f23565b955a90303303611e26578651606081015195603f5a0260061c61271060a084015189010111611e17575f9681519182611d79575b505050505090611b60915a9003855101963691611ed7565b925a93855161010081015161012082015148018082105f14611d715750975b611b9e60018060a01b0360e08401511694518203606084015190613565565b01925f9281611c67575050516001600160a01b0316945b5a900301019485029051928184105f14611c215750506003811015611c0757600203611bf2576020928161157c9293611bed8161364e565b613584565b63deadaa5160e01b6101405152602061014051fd5b634e487b7160e01b61014051526021600452602461014051fd5b81611c49929594969396039060018060a01b03165f525f60205260405f209081540180915590565b506003841015611c075782611c629260209515906135e9565b61157c565b909691878251611c7a575b505050611bb5565b90919293505a926003881015611d5d5760028803611cb0575b505060a0611ca7925a900391015190613565565b90888080611c72565b60a083015191803b15611d59578b925f9283611cf3938c8b88604051998a9889978895637c627b2160e01b87526004870152608060248701526084860190611fcc565b9202604484015260648301520393f19081611d44575b50611d3a576108ea611d1961257f565b604051632b5e552f60e21b8152602060048201529182916024830190611fcc565b60a0611ca7611c93565b5f611d4e91611e9b565b5f610140528a611d09565b5f80fd5b634e487b7160e01b5f52602160045260245ffd5b905097611b7f565b915f9291838093602060018060a01b03885116910192f115611d9e575b808080611b48565b611b609392955060405191611db161257f565b908151611dca575b505050604052600193909188611d96565b7f1c4fada7374c0a9ee8841fc38afe82932dc0f8e69012e927f061a8bae611a201905191602060018060a01b03855116940151611e0c60405192839283611ff0565b0390a3888080611db9565b63deaddead60e01b5f5260205ffd5b639fbdaa0960e01b5f5260045ffd5b60a081019081106001600160401b03821117611e5057604052565b634e487b7160e01b5f52604160045260245ffd5b61014081019081106001600160401b03821117611e5057604052565b606081019081106001600160401b03821117611e5057604052565b90601f801991011681019081106001600160401b03821117611e5057604052565b6001600160401b038111611e5057601f01601f191660200190565b929192611ee382611ebc565b91611ef16040519384611e9b565b829481845281830111611d59578281602093845f960137010152565b600435906001600160a01b0382168203611d5957565b9181601f84011215611d59578235916001600160401b038311611d595760208381860195010111611d5957565b602435906001600160c01b0382168203611d5957565b906040600319830112611d59576004356001600160401b038111611d595760040182601f82011215611d59578035926001600160401b038411611d59576020808301928560051b010111611d595791906024356001600160a01b0381168103611d595790565b805180835260209291819084018484015e5f828201840152601f01601f1916010190565b604090612007939281528160208201520190611fcc565b90565b15612013575050565b9063ffffffff80926370c11de760e11b5f52166004521660245260445ffd5b9190820180921161203f57565b634e487b7160e01b5f52601160045260245ffd5b1561205c575050565b6001600160701b039250630384002760e21b5f526004521660245260445ffd5b5f19811461203f5760010190565b9190820391821161203f57565b3d156120c1573d906120a882611ebc565b916120b66040519384611e9b565b82523d5f602084013e565b606090565b6001600160a01b03918216815291166020820152604081019190915260806060820181905261200792910190611fcc565b604290612103816126e0565b61210b6125ac565b916121158161243f565b9180156121ea57905b60c061212d6060830183612453565b9081604051918237209161214d61214760e0830183612453565b90613923565b926040519460208601967f29a0bca4af4be3421398da00295e58e6d7de38cb492214754cb6a47507dd6f8e885260018060a01b0316604087015260208301356060870152608086015260a085015260808101358285015260a081013560e0850152013561010083015261012082015261012081526121cd61014082611e9b565b5190206040519161190160f01b8352600283015260228201522090565b506121f86040820182612453565b9081604051918237209061211e565b6001600160401b038111611e505760051b60200190565b9061222882612207565b6122356040519182611e9b565b8281528092612246601f1991612207565b01905f5b82811061225657505050565b60209060405161226581611e35565b60405161227181611e64565b5f81525f848201525f60408201525f60608201525f60808201525f60a08201525f60c08201525f60e08201525f6101008201525f61012082015281525f838201525f60408201525f60608201525f60808201528282850101520161224a565b91908110156122f35760051b8101359061011e1981360301821215611d59570190565b634e487b7160e01b5f52603260045260245ffd5b80518210156122f35760209160051b010190565b90816020910312611d5957516001600160a01b0381168103611d595790565b908060209392818452848401375f828201840152601f01601f1916010190565b7f2da466a7b24304f47e87fa2e1e5a81b9831ce54fec19055ce277ca2f39ba42c4602061239e348460018060a01b03165f525f60205260405f209081540180915590565b6040519081526001600160a01b0390931692a2565b156123bd57505050565b906001600160701b0363ffffffff92638421e8e560e01b5f521660045216602452151560445260645ffd5b91908110156122f35760051b81013590605e1981360301821215611d59570190565b903590601e1981360301821215611d5957018035906001600160401b038211611d5957602001918160051b36038313611d5957565b356001600160a01b0381168103611d595790565b903590601e1981360301821215611d5957018035906001600160401b038211611d5957602001918136038313611d5957565b9035601e1982360301811215611d595701602081359101916001600160401b038211611d59578136038313611d5957565b8035916001600160a01b0383168303611d59576001600160a01b039092168252602081810135908301526120079161257061256461252b6125106124fd6040870187612485565b610120604088015261012087019161233a565b61251d6060870187612485565b90868303606088015261233a565b6080850135608085015260a085013560a085015260c085013560c085015261255660e0860186612485565b9085830360e087015261233a565b92610100810190612485565b9161010081850391015261233a565b3d61080081116125a3575b604051906020818301016040528082525f602083013e90565b5061080061258a565b307f00000000000000000000000000000000000000000000000000000000000000006001600160a01b0316148061269f575b15612607577f000000000000000000000000000000000000000000000000000000000000000090565b60405160208101907f8b73c3c69bb8fe3d512ecc4cf759cc79239f7b179b0ffacaa9a75d522b39400f82527f000000000000000000000000000000000000000000000000000000000000000060408201527f000000000000000000000000000000000000000000000000000000000000000060608201524660808201523060a082015260a0815261269960c082611e9b565b51902090565b507f000000000000000000000000000000000000000000000000000000000000000046146125de565b90939293848311611d59578411611d59578101920390565b6126ed6040820182612453565b90916126f98284613690565b156127975761270a61270f9161243f565b6136b7565b916014821161274657505060405160208101916bffffffffffffffffffffffff199060601b16825260148152612699603482611e9b565b81601411611d5957602061269991604051938491838301966bffffffffffffffffffffffff199060601b168752601460131983019101603484013781015f838201520301601f198101835282611e9b565b5050505f90565b92919092835f5b8181106127b25750505050565b6127bc8185612307565b516127c88284866122d0565b5f915a8151906001600160a01b036127df8561243f565b1682526020820191602085013583526080850135946001600160801b038660801c961693604083019660608401958652875260a08201359460c0840186815260c0840135906001600160801b038260801c9216916101208701906101008801938452815261285060e0870187612453565b9081613036575b5050604051612865876120f7565b9460208c01958652816040528c519c8d855117825117926001600160781b0360808c01948551179560a08d019687511789511790511711612fef5750519051019051019051019051019051029760408801928984528b89516128e18b60018060a01b03835116936128d960408b018b612453565b929091613b3a565b60e001515f9b906001600160a01b03168015612fc8575b8b519c60408e01519d600160a01b600190039051169d8e916040516101605288518b61016051602001926306608bdf60e21b84526101605192610160516024019261294293613ef7565b03601f1981016101605152610160519061295b91611e9b565b6101605151905f6020948194f19c5f519d3d602003612fc1575b6101605160405215612f1c575015612ec1575b5050855190516001600160a01b039091165f90815260016020908152604080832084821c845290915290208054916001600160401b03916129c88461207c565b90551603612e75575a860311612e295760e090930151606093906001600160a01b0316612c04575b5050506060840152612a0d9392916080915a900301910152613969565b916001600160a01b0316612bc157612b2d5750612a2990613969565b916001600160a01b0316612aea57612a4457506001016127a5565b612a9e5760a49060405190631101335b60e11b8252600482015260406024820152602160448201527f41413332207061796d61737465722065787069726564206f72206e6f742064756064820152606560f81b6084820152fd5b60849060405190631101335b60e11b8252600482015260406024820152602060448201527f41413337207061796d617374657220696e76616c20626c6f636b2072616e67656064820152fd5b60848360405190631101335b60e11b8252600482015260406024820152601460448201527320a0999a1039b4b3b730ba3ab9329032b93937b960611b6064820152fd5b82608491612b785760405190631101335b60e11b82526004820152604060248201526017604482015276414132322065787069726564206f72206e6f742064756560481b6064820152fd5b60405190631101335b60e11b8252600482015260406024820152601e60448201527f41413237206f7574736964652076616c696420626c6f636b2072616e676500006064820152fd5b60848460405190631101335b60e11b8252600482015260406024820152601460448201527320a0991a1039b4b3b730ba3ab9329032b93937b960611b6064820152fd5b909197505a865160e08101518451929492612c27916001600160a01b0316613f19565b15612ddd576080612c5b910151926107b460405193849251905190602084019d8e6314add44b60e21b905260248501613ef7565b5f8088518b82608060018060a01b0360e08501511693015192865193f1983d90815f843e519482519a604084019b8c519115612d885760401490811591612d74575b50612d105750601f01601f1916016040819052915a900311612cc657509481612a0d60806129f0565b631101335b60e11b81526004810188905260406024820152602060448201527f41413336206f76657220706d566572696669636174696f6e4761734c696d69746064820152608490fd5b8b6108ea612d1c61257f565b6040519384936365c8fd4d60e01b855260048501526024840152601d60648401527f41413335206d616c666f726d6564207061796d61737465722064617461000000608484015260a0604484015260a4830190611fcc565b601f01601f1916820183141590505f612c9d565b828e6108ea612d9561257f565b6040519384936365c8fd4d60e01b855260048501526024840152600d60648401526c10504cccc81c995d995c9d1959609a1b608484015260a0604484015260a4830190611fcc565b60848b60405190631101335b60e11b8252600482015260406024820152601e60448201527f41413331207061796d6173746572206465706f73697420746f6f206c6f7700006064820152fd5b60848a60405190631101335b60e11b8252600482015260406024820152601e60448201527f41413236206f76657220766572696669636174696f6e4761734c696d697400006064820152fd5b60848b60405190631101335b60e11b8252600482015260406024820152601a60448201527f4141323520696e76616c6964206163636f756e74206e6f6e63650000000000006064820152fd5b612eca91613f19565b15612ed6575f80612988565b60848c60405190631101335b60e11b8252600482015260406024820152601760448201527610504c8c48191a591b89dd081c185e481c1c99599d5b99604a1b6064820152fd5b8f903b612f6b5760849060405190631101335b60e11b8252600482015260406024820152601960448201527810504c8c081858d8dbdd5b9d081b9bdd0819195c1b1bde5959603a1b6064820152fd5b612f7361257f565b906108ea6040519283926365c8fd4d60e01b8452600484015260606024840152600d60648401526c10504c8cc81c995d995c9d1959609a1b608484015260a0604484015260a4830190611fcc565b505f612975565b9b50815f525f60205260405f20548181115f14612fe857505f5b9b6128f8565b8103612fe2565b90508f60849250631101335b60e11b8252600482015260406024820152601860448201527741413934206761732076616c756573206f766572666c6f7760401b6064820152fd5b603482106130a55781601411611d5957803560601c9160248110611d5957601482013590603411611d59576001600160801b0360248193013560801c1660a08b015260801c16608089015280156130935760e08801525f80612857565b636c66594960e11b5f5260045260245ffd5b5063120aaab560e01b5f5260045260245ffd5b60806101a091610120815160018060a01b038151168652602081015160208701526040810151604087015260608101516060870152838101518487015260a081015160a087015260c081015160c087015260018060a01b0360e08201511660e087015261010081015161010087015201516101208501526020810151610140850152604081015161016085015260608101516101808501520151910152565b9092915a6020820180515f5d606083015190604051968761317b6060830183612453565b5f600382116134ef575b6001600160e01b031916638dd7712f60e01b0361348c575050505f61320f61322f6131d46131e86020958751604051938492638dd7712f60e01b8a8501526040602485015260648401906124b6565b90604483015203601f198101835282611e9b565b6107b46040519384926242dc5360e01b888501526102006024850152610224840190611fcc565b61321c604484018c6130b8565b8281036023190161020484015288611fcc565b828151910182305af15f51976040521561324b575b5050505050565b909192939495505f3d60201461347f575b63deaddead60e01b81036132a85760848660405190631101335b60e11b8252600482015260406024820152600f60448201526e41413935206f7574206f662067617360881b6064820152fd5b939450919290919063deadaa5160e01b036132f75750506132db6132d06132eb925a9061208a565b608084015190612032565b604083015183611bed829561364e565b905b5f80808080613244565b9161335a919260405190518551907ff62676f440ff169a3a9afdbf812e89e7f95975ee8e5c31214ffdef631c5f4792602060018060a01b0384511693015161333d61257f565b9061334d60405192839283611ff0565b0390a36040525a9061208a565b61336a6080840191825190612032565b915f905a92855161010081015161012082015148018082105f146134775750955b6133aa60018060a01b0360e08401511693518203606084015190613565565b01925f9280613448575050516001600160a01b0316935b5a900301019283026040850151928184105f1461340a575050806133f6575090816133f09293611bed8161364e565b906132ed565b634e487b7160e01b81526021600452602490fd5b613431908284939795039060018060a01b03165f525f60205260405f209081540180915590565b506133f6575090825f613443936135e9565b6133f0565b95919051613457575b506133c1565b935090506134705a9360a05f955a900391015190613565565b905f613451565b90509561338b565b5060205f803e5f5161325c565b6242dc5360e01b602084015261020060248401526134e693506134d8916134b89161022485019161233a565b6134c560448401896130b8565b8281036023190161020484015285611fcc565b03601f198101895288611e9b565b60205f8861322f565b508135613185565b6001600160a01b03168015613553575f805d5f80808085855af1613519612097565b901561352457505050565b6108ea906040519384936340848e6160e01b855260048501526024840152606060448401526064830190611fcc565b631a3b45fd60e01b5f5260045260245ffd5b90619c40820181111561357e57606491600a9103020490565b50505f90565b9190917f49628fd1471006c1482da88028e9ce4dbb080b815c9b0344d39e5a8e6ec1419f6080602083015192519460018060a01b0386511694602060018060a01b0360e089015116970151916040519283525f602084015260408301526060820152a4565b9060807f49628fd1471006c1482da88028e9ce4dbb080b815c9b0344d39e5a8e6ec1419f91602084015193519560018060a01b0387511695602060018060a01b0360e08a015116980151926040519384521515602084015260408301526060820152a4565b60208101519051907f67b4fa9642f42120bf031f3051d1824b0fe25627945b27b8a6a65d5761d5482e60208060018060a01b03855116940151604051908152a3565b906002116136b257356bffffffffffffffffffffffff1916613b8160f11b1490565b505f90565b60175f80833c5f51906110ff60f01b6001600160e81b03198316016136e6575060481c6001600160a01b031690565b803b1561370d57639f4e4cc960e01b5f9081526001600160a01b0391909116600452602490fd5b63e5819b9560e01b5f9081526001600160a01b0391909116600452602490fd5b60ff81146137735760ff811690601f82116137645760405191613751604084611e9b565b6020808452838101919036833783525290565b632cd44ac360e21b5f5260045ffd5b506040515f6002548060011c9160018216918215613849575b60208410831461383557838552849290811561381657506001146137b7575b61200792500382611e9b565b5060025f90815290917f405787fa12a823e0f2b7631cc41b3ba8828b3321ca811111fa75cd3aa3bb5ace5b8183106137fa575050906020612007928201016137ab565b60209193508060019154838588010152019101909183926137e2565b6020925061200794915060ff191682840152151560051b8201016137ab565b634e487b7160e01b5f52602260045260245ffd5b92607f169261378c565b60ff81146138775760ff811690601f82116137645760405191613751604084611e9b565b506040515f6003548060011c9160018216918215613919575b60208410831461383557838552849290811561381657506001146138ba5761200792500382611e9b565b5060035f90815290917fc2575a0e9e593c00f959f8c92f12db2869c3395a3b0502d05e2516446f71f85b5b8183106138fd575050906020612007928201016137ab565b60209193508060019154838588010152019101909183926138e5565b92607f1692613890565b61392d8282613a5a565b8061393e5750816040519182372090565b604051920390600919820190833767117192d14ba1cb2b60c11b828201600919015260011901902090565b8015613a51575f6040805161397d81611e80565b8281526020810183905201526001600160a01b0381169060a081901c65ffffffffffff16908115613a43575b60409060d01c9181516139bb81611e80565b84815283602082015265ffffffffffff821692839101526580000000000083101580613a33575b15613a1657657fffffffffff9150164311908115613a03575b509060019092565b657fffffffffff9150164311155f6139fb565b504211908115613a28575b50905f9092565b90504211155f613a21565b50658000000000008210156139e2565b65ffffffffffff91506139a9565b505f905f905f90565b603e821061357e57613a7282600719810181846126c8565b6001600160c01b031991359182169160088210613b1a575b50506001600160c01b031916676e8e6d2eb45e34d560c11b0161357e5781613ab891816009198101916126c8565b6001600160f01b031991359182169160028210613afa575b505060f01c90603d1981018211613ae5575090565b6307b9a19160e01b5f5260045260245260445ffd5b6001600160f01b031960029290920360031b82901b161690505f80613ad0565b6001600160c01b031960089290920360031b82901b161690505f80613a8a565b929091925f82613b4b575050505050565b835180516001600160a01b03169590613b648583613690565b613df2575060148410613da65783601411613da257803560601c93863b613d6c57613bb7916020916040885101519085604051809681958294632b870d1b60e11b8452886004850152602484019161233a565b03927f00000000000000000000000000000000000000000000000000000000000000006001600160a01b031690f1918215613d605791613d41575b506001600160a01b0381168015613cf5578503613ca9573b15613c5d575060407fd51a9c61267aa6196961883ecf5ff2da6619c37dac0fa92122513fb32c032d2d9160208401519360e060018060a01b03915101511682519182526020820152a35f80808080613244565b60849060405190631101335b60e11b8252600482015260406024820152602060448201527f4141313520696e6974436f6465206d757374206372656174652073656e6465726064820152fd5b60848260405190631101335b60e11b8252600482015260406024820152602060448201527f4141313420696e6974436f6465206d7573742072657475726e2073656e6465726064820152fd5b60848360405190631101335b60e11b8252600482015260406024820152601b60448201527f4141313320696e6974436f6465206661696c6564206f72204f4f4700000000006064820152fd5b613d5a915060203d602011611157576111498183611e9b565b5f613bf2565b604051903d90823e3d90fd5b50505050906020807fa39bcda08ffd11bafb11c4f170ef24fc6dc1a9d1b0394d90dbd19e0b919050e992015192604051908152a3565b5080fd5b60848360405190631101335b60e11b8252600482015260406024820152601760448201527f4141393920696e6974436f646520746f6f20736d616c6c0000000000000000006064820152fd5b9195949390925060148111613e0a575b505050505050565b604060018060a01b037f00000000000000000000000000000000000000000000000000000000000000001692015181601411611d5957823b15611d5957613e80935f809460405180978196829563c09ad0d960e01b84528c6004850152604060248501526014604485019260131901910161233a565b0393f18015613eec57613ed7575b507f7c9f9ade6a03a0bba484e52df872467a270e798ffc1adab9dfaa8d0e627f05446020613ebb846136b7565b9201516001600160a01b039092169380a45f8080808080613e02565b613ee49193505f90611e9b565b5f915f613e8e565b6040513d5f823e3d90fd5b613f0f604092959493956060835260608301906124b6565b9460208201520152565b60018060a01b03165f525f60205260405f209081548181106127975703905560019056fea26469706673582212209b291089cb02d64c76518ed171ebffb3de878015a40be49b2e6fbe9d1ebb62da64736f6c634300081c003360a08060405234602f57336080526103759081610034823960805181818160980152818161019401526102190152f35b5f80fdfe60806040526004361015610011575f80fd5b5f3560e01c8063570e1a36146101c3578063b0d691fe1461017f5763c09ad0d91461003a575f80fd5b3461017b57604036600319011261017b576004356001600160a01b038116810361017b5760243567ffffffffffffffff811161017b573660238201121561017b575f916100928392369060248160040135910161029d565b906100ca7f000000000000000000000000000000000000000000000000000000000000000030336001600160a01b0383168114610309565b82602083519301915af1156100db57005b3d6108008111610172575b60c460405160208382010160405282815260208101925f843e6040519283916365c8fd4d60e01b83525f600484015260606024840152601f60648401527f4141313320454950373730322073656e64657220696e6974206661696c656400608484015260a060448401525180918160a48501528484015e5f828201840152601f01601f19168101030190fd5b506108006100e6565b5f80fd5b3461017b575f36600319011261017b576040517f00000000000000000000000000000000000000000000000000000000000000006001600160a01b03168152602090f35b3461017b57602036600319011261017b5760043567ffffffffffffffff811161017b573660238201121561017b5780600401359067ffffffffffffffff821161017b57366024838301011161017b575f9161024b7f000000000000000000000000000000000000000000000000000000000000000030336001600160a01b0383168114610309565b8060141161017b5760209161026a5f923690601319016038840161029d565b90826024858451940192013560601c5af1610295575b6040516001600160a01b039091168152602090f35b505f51610280565b92919267ffffffffffffffff82116102f55760405191601f8101601f19908116603f0116830167ffffffffffffffff8111848210176102f55760405282948184528183011161017b578281602093845f960137010152565b634e487b7160e01b5f52604160045260245ffd5b1561031357505050565b63fe34a6d360e01b5f9081526001600160a01b0391821660045291811660245291909116604452606490fdfea2646970667358221220451ed03ecf525dfd7cedd92c21bc4d5643539f9c0acdcbfaa3e50d3d9611dc7564736f6c634300081c0033","linkReferences":{}},"methodIdentifiers":{"addStake(uint32)":"0396cb60","balanceOf(address)":"70a08231","delegateAndRevert(address,bytes)":"850aaf62","depositTo(address)":"b760faf9","eip712Domain()":"84b0196e","getCurrentUserOpHash()":"b0a398d1","getDepositInfo(address)":"5287ce12","getDomainSeparatorV4()":"13c65a6e","getNonce(address,uint192)":"35567e1a","getPackedUserOpTypeHash()":"154e58dc","getSenderAddress(bytes)":"9b249f69","getUserOpHash((address,uint256,bytes,bytes,bytes32,uint256,bytes32,bytes,bytes))":"22cdde4c","handleAggregatedOps(((address,uint256,bytes,bytes,bytes32,uint256,bytes32,bytes,bytes)[],address,bytes)[],address)":"dbed18e0","handleOps((address,uint256,bytes,bytes,bytes32,uint256,bytes32,bytes,bytes)[],address)":"765e827f","incrementNonce(uint192)":"0bd28e3b","innerHandleOp(bytes,((address,uint256,uint256,uint256,uint256,uint256,uint256,address,uint256,uint256),bytes32,uint256,uint256,uint256),bytes)":"0042dc53","nonceSequenceNumber(address,uint192)":"1b2e01b8","senderCreator()":"09ccb880","supportsInterface(bytes4)":"01ffc9a7","unlockStake()":"bb9fe6bf","withdrawStake(address)":"c23a5cea","withdrawTo(address,uint256)":"205c2878"},"id":3}