{"abi":[{"type":"constructor","inputs":[{"name":"_owner","type":"address","internalType":"address"}],"stateMutability":"nonpayable"},{"type":"function","name":"credentialId","inputs":[],"outputs":[{"name":"","type":"bytes","internalType":"bytes"}],"stateMutability":"view"},{"type":"function","name":"getPublicKey","inputs":[],"outputs":[{"name":"x","type":"uint256","internalType":"uint256"},{"name":"y","type":"uint256","internalType":"uint256"}],"stateMutability":"view"},{"type":"function","name":"isPasskeySet","inputs":[],"outputs":[{"name":"","type":"bool","internalType":"bool"}],"stateMutability":"view"},{"type":"function","name":"isValidSignature","inputs":[{"name":"hash","type":"bytes32","internalType":"bytes32"},{"name":"signature","type":"bytes","internalType":"bytes"}],"outputs":[{"name":"magicValue","type":"bytes4","internalType":"bytes4"}],"stateMutability":"view"},{"type":"function","name":"owner","inputs":[],"outputs":[{"name":"","type":"address","internalType":"address"}],"stateMutability":"view"},{"type":"function","name":"pubKeyX","inputs":[],"outputs":[{"name":"","type":"uint256","internalType":"uint256"}],"stateMutability":"view"},{"type":"function","name":"pubKeyY","inputs":[],"outputs":[{"name":"","type":"uint256","internalType":"uint256"}],"stateMutability":"view"},{"type":"function","name":"registerPasskey","inputs":[{"name":"_pubKeyX","type":"uint256","internalType":"uint256"},{"name":"_pubKeyY","type":"uint256","internalType":"uint256"},{"name":"_credentialId","type":"bytes","internalType":"bytes"}],"outputs":[],"stateMutability":"nonpayable"},{"type":"function","name":"transferOwnership","inputs":[{"name":"newOwner","type":"address","internalType":"address"}],"outputs":[],"stateMutability":"nonpayable"},{"type":"function","name":"updatePasskey","inputs":[{"name":"_newPubKeyX","type":"uint256","internalType":"uint256"},{"name":"_newPubKeyY","type":"uint256","internalType":"uint256"}],"outputs":[],"stateMutability":"nonpayable"},{"type":"function","name":"verifyPasskeySignature","inputs":[{"name":"messageHash","type":"bytes32","internalType":"bytes32"},{"name":"r","type":"uint256","internalType":"uint256"},{"name":"s","type":"uint256","internalType":"uint256"}],"outputs":[{"name":"","type":"bool","internalType":"bool"}],"stateMutability":"view"},{"type":"function","name":"verifyWebAuthnSignature","inputs":[{"name":"hash","type":"bytes32","internalType":"bytes32"},{"name":"signature","type":"bytes","internalType":"bytes"}],"outputs":[{"name":"","type":"bool","internalType":"bool"}],"stateMutability":"view"},{"type":"event","name":"OwnershipTransferred","inputs":[{"name":"previousOwner","type":"address","indexed":true,"internalType":"address"},{"name":"newOwner","type":"address","indexed":true,"internalType":"address"}],"anonymous":false},{"type":"event","name":"PasskeyRegistered","inputs":[{"name":"pubKeyX","type":"uint256","indexed":true,"internalType":"uint256"},{"name":"pubKeyY","type":"uint256","indexed":true,"internalType":"uint256"},{"name":"credentialId","type":"bytes","indexed":false,"internalType":"bytes"}],"anonymous":false},{"type":"event","name":"PasskeyUpdated","inputs":[{"name":"newPubKeyX","type":"uint256","indexed":true,"internalType":"uint256"},{"name":"newPubKeyY","type":"uint256","indexed":true,"internalType":"uint256"}],"anonymous":false},{"type":"error","name":"InvalidPublicKey","inputs":[]},{"type":"error","name":"InvalidSignatureLength","inputs":[]},{"type":"error","name":"NotOwner","inputs":[]},{"type":"error","name":"PasskeyNotSet","inputs":[]},{"type":"error","name":"ZeroAddress","inputs":[]}],"bytecode":{"object":"0x608034608357601f6111a238819003918201601f19168301916001600160401b03831184841017608757808492602094604052833981010312608357516001600160a01b0381169081900360835780156074575f80546001600160a01b031916919091179055604051611106908161009c8239f35b63d92e233d60e01b5f5260045ffd5b5f80fd5b634e487b7160e01b5f52604160045260245ffdfe60806040526004361015610011575f80fd5b5f3560e01c80631626ba7e146100d45780632e334452146100cf5780633dc785d7146100ca5780634edaff4e146100c55780636bb8ff75146100c05780638b5e5876146100bb5780638da5cb5b146100b6578063a3c0f0b7146100b1578063b004eab9146100ac578063b8b644ce146100a7578063c42776fe146100a25763f2fde38b1461009d575f80fd5b61069d565b6104b6565b61046c565b61044f565b610375565b6102b1565b61028f565b61026c565b61024f565b61018f565b61016b565b61013f565b9181601f840112156101075782359167ffffffffffffffff8311610107576020838186019501011161010757565b5f80fd5b90604060031983011261010757600435916024359067ffffffffffffffff82116101075761013b916004016100d9565b9091565b346101075760206101586101523661010b565b91610798565b6040516001600160e01b03199091168152f35b34610107575f36600319011261010757604060015460025482519182526020820152f35b34610107576040366003190112610107575f5460243590600435906001600160a01b031633036102405780158015610238575b61021157600160601b63ffffffff60c01b03198110801590610220575b6102115780600155816002557f1ddbd1a32f6c34e350869fa43b0f3c05aec254a0dba9ffcd814d4b345fdae3c95f80a3005b63145a1fdd60e31b5f5260045ffd5b50600160601b63ffffffff60c01b03198210156101df565b5081156101c2565b6330cd747160e01b5f5260045ffd5b34610107575f366003190112610107576020600154604051908152f35b3461010757602061028561027f3661010b565b91610915565b6040519015158152f35b34610107575f36600319011261010757602060ff600454166040519015158152f35b34610107575f366003190112610107575f546040516001600160a01b039091168152602090f35b90600182811c92168015610306575b60208310146102f257565b634e487b7160e01b5f52602260045260245ffd5b91607f16916102e7565b634e487b7160e01b5f52604160045260245ffd5b90601f8019910116810190811067ffffffffffffffff82111761034657604052565b610310565b602060409281835280519182918282860152018484015e5f828201840152601f01601f1916010190565b34610107575f366003190112610107576040515f600354610395816102d8565b808452906001811690811561042b57506001146103cd575b6103c9836103bd81850382610324565b6040519182918261034b565b0390f35b91905060035f527fc2575a0e9e593c00f959f8c92f12db2869c3395a3b0502d05e2516446f71f85b915f905b808210610411575090915081016020016103bd6103ad565b9192600181602092548385880101520191019092916103f9565b60ff191660208086019190915291151560051b840190910191506103bd90506103ad565b34610107575f366003190112610107576020600254604051908152f35b3461010757606036600319011261010757600435602435906044359060ff60045416156104a757602092610285926001549160025493610a4d565b6365f2923f60e11b5f5260045ffd5b346101075760603660031901126101075760043560243560443567ffffffffffffffff8111610107576104ed9036906004016100d9565b5f549193916001600160a01b031633036102405781158015610695575b61021157600160601b63ffffffff60c01b0319821080159061067d575b61021157816001558260025567ffffffffffffffff811161034657610556816105516003546102d8565b6109d6565b5f93601f82116001146105db576105a682807fe2b6fa2af48d0eb895f24201494ece29529f1ddeb1000e8f0ebcd2ba3d97a4989596975f916105d0575b508160011b915f199060031b1c19161790565b6003555b6105bc600160ff196004541617600455565b6105cb60405192839283610a26565b0390a3005b90508301355f610593565b60035f52601f198216947fc2575a0e9e593c00f959f8c92f12db2869c3395a3b0502d05e2516446f71f85b905f5b8781106106655750837fe2b6fa2af48d0eb895f24201494ece29529f1ddeb1000e8f0ebcd2ba3d97a4989596971061064c575b5050600182811b016003556105aa565b8201355f19600385901b60f8161c191690555f8061063c565b90916020600181928587013581550193019101610609565b50600160601b63ffffffff60c01b0319831015610527565b50821561050a565b34610107576020366003190112610107576004356001600160a01b03811690819003610107575f546001600160a01b038116338190036102405782156107125782907f8be0079c531659141344cd1fd0a4f28419497f9722a3daafe3b4186f6b6457e05f80a36001600160a01b031916175f55005b63d92e233d60e01b5f5260045ffd5b901561072a5790565b634e487b7160e01b5f52603260045260245ffd5b909291928360011161010757831161010757600101915f190190565b906021116101075760010190602090565b906041116101075760210190602090565b35906020811061078a575090565b5f199060200360031b1b1690565b906107ac6107a860045460ff1690565b1590565b61087257600183106108395760ff6107de6107d86107ca8685610721565b356001600160f81b03191690565b60f81c90565b1680610848575060418303610839576108106108048461080a61080461081d978661075a565b9061077c565b9361076b565b6001549160025493610a4d565b61082e575b6001600160e01b031990565b630b135d3f60e11b90565b634be6321b60e01b5f5260045ffd5b600114610858575b505050610822565b826108669361027f9261073e565b61082e575f8080610850565b506001600160e01b031992915050565b67ffffffffffffffff811161034657601f01601f191660200190565b81601f82011215610107578035906108b582610882565b926108c36040519485610324565b8284526020838301011161010757815f926020809301838601378301015290565b805191908290602001825e015f815290565b61090390602093926108e4565b9081520190565b6040513d5f823e3d90fd5b909160ff60045416156104a75782019060808383031261010757823567ffffffffffffffff8111610107578261094c91850161089e565b9160208401359067ffffffffffffffff8211610107576020926109756109af925f94880161089e565b506109a360606040880135970135956109956040519384928884016108f6565b03601f198101835282610324565b604051918280926108e4565b039060025afa156109d1576109ce915f51916001549160025493610a4d565b90565b61090a565b601f81116109e2575050565b60035f5260205f20906020601f840160051c83019310610a1c575b601f0160051c01905b818110610a11575050565b5f8155600101610a06565b90915081906109fd565b90918060409360208452816020850152848401375f828201840152601f01601f1916010190565b9392919080158015610b20575b610ae05781158015610b09575b610ae05782158015610b01575b610ae057600160601b63ffffffff60c01b03198310801590610ae9575b610ae0577f7fffffff800000007fffffffffffffffde737d56d38bcf4279dce5617e3192a88211610ae057610ac98484848489610b46565b610ad6576109ce94610be6565b5050505050600190565b50505050505f90565b50600160601b63ffffffff60c01b0319841015610a91565b508315610a74565b505f5160206110b15f395f51905f52821015610a67565b505f5160206110b15f395f51905f52811015610a5a565b90816020910312610107575190565b91935f94938594604051936020850195865260408501526060840152608083015260a082015260a08152610b7b60c082610324565b51906101005afa3d15610bde573d90610b9382610882565b91610ba16040519384610324565b82523d5f602084013e5b80610bd3575b610bba57505f90565b610bcf81602080600194518301019101610b37565b1490565b506020815114610bb1565b606090610bab565b909391610bf290610cb0565b908115610ae0575f5160206110b15f395f51905f5282610c129209610d94565b939092831580610c78575b610c6e575f5160206110b15f395f51905f52610c3b93870991610e57565b90801580610c66575b610ae0575f5160206110b15f395f51905f5293610c6093610ede565b50061490565b508115610c44565b5050505050505f90565b508415610c1d565b600160601b63ffffffff60c01b031990810391908211610c9c57565b634e487b7160e01b5f52601160045260245ffd5b8015610d1c5760405190602082526020808301526020604083015260608201527fffffffff00000000ffffffffffffffffbce6faada7179e84f3b9cac2fc63254f60808201525f5160206110b15f395f51905f5260a082015260208160c08160055afa15610107575190565b505f90565b8015610d1c5760405190602082526020808301526020604083015260608201527fffffffff00000001000000000000000000000000fffffffffffffffffffffffd60808201526ffffffffeffffffffffffffffffffffff60601b1960a082015260208160c08160055afa15610107575190565b8015610e50575f9182917f4fe342e2fe1a7f9b8ee7eb4a7c0f9e162bce33576b315ececbb6406837bf51f57f6b17d1f2e12c4247f8bce6e563a440f277037d812deb33a0f4a13945d898c296825b610deb57505050565b600180841614610e0c575b90610e0091610ffe565b909160011c9182610de2565b939094801580610e48575b15610e2e575050610e00839480945b909150610df6565b8585610e0093610e4093989798610ede565b949095610e26565b508115610e17565b505f905f90565b919290928015610ed5575f938493825b610e7057505050565b600180841614610e91575b90610e8591610ffe565b909160011c9182610e67565b939094801580610ecd575b15610eb3575050610e85839480945b909150610e7b565b8585610e8593610ec593989798610ede565b949095610eab565b508115610e9c565b505f9250829150565b90919392811580610ff6575b610ff057841580610fe8575b610fe257848214610fc757600160601b63ffffffff60c01b031990610f1a84610c80565b9008600160601b63ffffffff60c01b031990610f4082610f3985610c80565b8808610d21565b900993600160601b63ffffffff60c01b0319610f5b83610c80565b600160601b63ffffffff60c01b031987800908600160601b63ffffffff60c01b031991610f8790610c80565b900893600160601b63ffffffff60c01b0319918290610fa587610c80565b90089009600160601b63ffffffff60c01b031991610fc290610c80565b900890565b909293508114610fd95750505f905f90565b61013b91610ffe565b50925090565b508015610ef6565b92915050565b508215610eea565b919080156110a857600160601b63ffffffff60c01b03196110228183600209610d21565b600160601b63ffffffff60c01b03197fffffffff00000001000000000000000000000000fffffffffffffffffffffffc8180888009600309080992600160601b63ffffffff60c01b03196110798183600209610c80565b600160601b63ffffffff60c01b03198680090893600160601b63ffffffff60c01b0319918290610fa587610c80565b505f9150819056feffffffff00000000ffffffffffffffffbce6faada7179e84f3b9cac2fc632551a2646970667358221220e395edbcbf948706636d98f34792b95e2faa2d616f150b19364c2d565169974864736f6c634300081c0033","linkReferences":{}},"methodIdentifiers":{"credentialId()":"a3c0f0b7","getPublicKey()":"2e334452","isPasskeySet()":"8b5e5876","isValidSignature(bytes32,bytes)":"1626ba7e","owner()":"8da5cb5b","pubKeyX()":"4edaff4e","pubKeyY()":"b004eab9","registerPasskey(uint256,uint256,bytes)":"c42776fe","transferOwnership(address)":"f2fde38b","updatePasskey(uint256,uint256)":"3dc785d7","verifyPasskeySignature(bytes32,uint256,uint256)":"b8b644ce","verifyWebAuthnSignature(bytes32,bytes)":"6bb8ff75"},"id":99}